{
	"contracts/BikeRental.sol": {
		"BikeRental": {
			"abi": [
				{
					"inputs": [],
					"stateMutability": "nonpayable",
					"type": "constructor"
				},
				{
					"anonymous": false,
					"inputs": [
						{
							"indexed": false,
							"internalType": "uint256",
							"name": "bikeId",
							"type": "uint256"
						}
					],
					"name": "Refund",
					"type": "event"
				},
				{
					"anonymous": false,
					"inputs": [
						{
							"indexed": true,
							"internalType": "address",
							"name": "renter",
							"type": "address"
						},
						{
							"indexed": false,
							"internalType": "uint256",
							"name": "value",
							"type": "uint256"
						},
						{
							"indexed": false,
							"internalType": "uint256",
							"name": "bikeId",
							"type": "uint256"
						},
						{
							"indexed": false,
							"internalType": "uint256",
							"name": "rentedUntil",
							"type": "uint256"
						}
					],
					"name": "Rent",
					"type": "event"
				},
				{
					"anonymous": false,
					"inputs": [
						{
							"indexed": false,
							"internalType": "uint256",
							"name": "bikeId",
							"type": "uint256"
						}
					],
					"name": "Return",
					"type": "event"
				},
				{
					"inputs": [
						{
							"internalType": "uint256",
							"name": "",
							"type": "uint256"
						}
					],
					"name": "bikes",
					"outputs": [
						{
							"internalType": "uint256",
							"name": "bikeId",
							"type": "uint256"
						},
						{
							"internalType": "string",
							"name": "model",
							"type": "string"
						},
						{
							"internalType": "enum BikeRental.Statuses",
							"name": "status",
							"type": "uint8"
						},
						{
							"internalType": "uint256",
							"name": "rentedUntil",
							"type": "uint256"
						}
					],
					"stateMutability": "view",
					"type": "function"
				},
				{
					"inputs": [
						{
							"internalType": "uint256",
							"name": "bikeId",
							"type": "uint256"
						}
					],
					"name": "getBikeStatus",
					"outputs": [
						{
							"internalType": "enum BikeRental.Statuses",
							"name": "",
							"type": "uint8"
						}
					],
					"stateMutability": "view",
					"type": "function"
				},
				{
					"inputs": [],
					"name": "owner",
					"outputs": [
						{
							"internalType": "address payable",
							"name": "",
							"type": "address"
						}
					],
					"stateMutability": "view",
					"type": "function"
				},
				{
					"inputs": [
						{
							"internalType": "uint256",
							"name": "bikeId",
							"type": "uint256"
						}
					],
					"name": "refund",
					"outputs": [],
					"stateMutability": "nonpayable",
					"type": "function"
				},
				{
					"inputs": [
						{
							"internalType": "uint256",
							"name": "bikeId",
							"type": "uint256"
						}
					],
					"name": "rentBike",
					"outputs": [],
					"stateMutability": "payable",
					"type": "function"
				},
				{
					"inputs": [],
					"name": "rentalDuration",
					"outputs": [
						{
							"internalType": "uint256",
							"name": "",
							"type": "uint256"
						}
					],
					"stateMutability": "view",
					"type": "function"
				},
				{
					"inputs": [],
					"name": "rentalPrice",
					"outputs": [
						{
							"internalType": "uint256",
							"name": "",
							"type": "uint256"
						}
					],
					"stateMutability": "view",
					"type": "function"
				},
				{
					"inputs": [
						{
							"internalType": "uint256",
							"name": "bikeId",
							"type": "uint256"
						}
					],
					"name": "returnBike",
					"outputs": [],
					"stateMutability": "nonpayable",
					"type": "function"
				}
			],
			"devdoc": {
				"kind": "dev",
				"methods": {},
				"version": 1
			},
			"evm": {
				"assembly": "    /* \"contracts/BikeRental.sol\":67:2283  contract BikeRental {... */\n  mstore(0x40, 0x80)\n    /* \"contracts/BikeRental.sol\":229:235  1 days */\n  0x015180\n    /* \"contracts/BikeRental.sol\":197:235  uint256 public rentalDuration = 1 days */\n  0x01\n  sstore\n    /* \"contracts/BikeRental.sol\":723:917  constructor() {... */\n  callvalue\n  dup1\n  iszero\n  tag_1\n  jumpi\n  0x00\n  dup1\n  revert\ntag_1:\n  pop\n    /* \"contracts/BikeRental.sol\":764:774  msg.sender */\n  caller\n    /* \"contracts/BikeRental.sol\":748:753  owner */\n  0x00\n  dup1\n    /* \"contracts/BikeRental.sol\":748:775  owner = payable(msg.sender) */\n  0x0100\n  exp\n  dup2\n  sload\n  dup2\n  0xffffffffffffffffffffffffffffffffffffffff\n  mul\n  not\n  and\n  swap1\n  dup4\n  0xffffffffffffffffffffffffffffffffffffffff\n  and\n  mul\n  or\n  swap1\n  sstore\n  pop\n    /* \"contracts/BikeRental.sol\":797:844  Bike(1, \"Mountain Bike\", Statuses.Available, 0) */\n  mload(0x40)\n  dup1\n  0x80\n  add\n  0x40\n  mstore\n  dup1\n    /* \"contracts/BikeRental.sol\":802:803  1 */\n  0x01\n    /* \"contracts/BikeRental.sol\":797:844  Bike(1, \"Mountain Bike\", Statuses.Available, 0) */\n  dup2\n  mstore\n  0x20\n  add\n  mload(0x40)\n  dup1\n  0x40\n  add\n  0x40\n  mstore\n  dup1\n  0x0d\n  dup2\n  mstore\n  0x20\n  add\n  0x4d6f756e7461696e2042696b6500000000000000000000000000000000000000\n  dup2\n  mstore\n  pop\n  dup2\n  mstore\n  0x20\n  add\n    /* \"contracts/BikeRental.sol\":822:840  Statuses.Available */\n  0x00\n    /* \"contracts/BikeRental.sol\":797:844  Bike(1, \"Mountain Bike\", Statuses.Available, 0) */\n  0x01\n  dup2\n  gt\n  iszero\n  tag_4\n  jumpi\n  tag_5\n  tag_6\n  jump\t// in\ntag_5:\ntag_4:\n  dup2\n  mstore\n  0x20\n  add\n    /* \"contracts/BikeRental.sol\":842:843  0 */\n  0x00\n    /* \"contracts/BikeRental.sol\":797:844  Bike(1, \"Mountain Bike\", Statuses.Available, 0) */\n  dup2\n  mstore\n  pop\n    /* \"contracts/BikeRental.sol\":786:791  bikes */\n  0x02\n    /* \"contracts/BikeRental.sol\":786:794  bikes[1] */\n  0x00\n    /* \"contracts/BikeRental.sol\":792:793  1 */\n  0x01\n    /* \"contracts/BikeRental.sol\":786:794  bikes[1] */\n  dup2\n  mstore\n  0x20\n  add\n  swap1\n  dup2\n  mstore\n  0x20\n  add\n  0x00\n  keccak256\n    /* \"contracts/BikeRental.sol\":786:844  bikes[1] = Bike(1, \"Mountain Bike\", Statuses.Available, 0) */\n  0x00\n  dup3\n  add\n  mload\n  dup2\n  0x00\n  add\n  sstore\n  0x20\n  dup3\n  add\n  mload\n  dup2\n  0x01\n  add\n  swap1\n  dup2\n  tag_7\n  swap2\n  swap1\n  tag_8\n  jump\t// in\ntag_7:\n  pop\n  0x40\n  dup3\n  add\n  mload\n  dup2\n  0x02\n  add\n  exp(0x0100, 0x00)\n  dup2\n  sload\n  dup2\n  0xff\n  mul\n  not\n  and\n  swap1\n  dup4\n  0x01\n  dup2\n  gt\n  iszero\n  tag_9\n  jumpi\n  tag_10\n  tag_6\n  jump\t// in\ntag_10:\ntag_9:\n  mul\n  or\n  swap1\n  sstore\n  pop\n  0x60\n  dup3\n  add\n  mload\n  dup2\n  0x03\n  add\n  sstore\n  swap1\n  pop\n  pop\n    /* \"contracts/BikeRental.sol\":866:909  Bike(2, \"Road Bike\", Statuses.Available, 0) */\n  mload(0x40)\n  dup1\n  0x80\n  add\n  0x40\n  mstore\n  dup1\n    /* \"contracts/BikeRental.sol\":871:872  2 */\n  0x02\n    /* \"contracts/BikeRental.sol\":866:909  Bike(2, \"Road Bike\", Statuses.Available, 0) */\n  dup2\n  mstore\n  0x20\n  add\n  mload(0x40)\n  dup1\n  0x40\n  add\n  0x40\n  mstore\n  dup1\n  0x09\n  dup2\n  mstore\n  0x20\n  add\n  0x526f61642042696b650000000000000000000000000000000000000000000000\n  dup2\n  mstore\n  pop\n  dup2\n  mstore\n  0x20\n  add\n    /* \"contracts/BikeRental.sol\":887:905  Statuses.Available */\n  0x00\n    /* \"contracts/BikeRental.sol\":866:909  Bike(2, \"Road Bike\", Statuses.Available, 0) */\n  0x01\n  dup2\n  gt\n  iszero\n  tag_11\n  jumpi\n  tag_12\n  tag_6\n  jump\t// in\ntag_12:\ntag_11:\n  dup2\n  mstore\n  0x20\n  add\n    /* \"contracts/BikeRental.sol\":907:908  0 */\n  0x00\n    /* \"contracts/BikeRental.sol\":866:909  Bike(2, \"Road Bike\", Statuses.Available, 0) */\n  dup2\n  mstore\n  pop\n    /* \"contracts/BikeRental.sol\":855:860  bikes */\n  0x02\n    /* \"contracts/BikeRental.sol\":855:863  bikes[2] */\n  0x00\n    /* \"contracts/BikeRental.sol\":861:862  2 */\n  0x02\n    /* \"contracts/BikeRental.sol\":855:863  bikes[2] */\n  dup2\n  mstore\n  0x20\n  add\n  swap1\n  dup2\n  mstore\n  0x20\n  add\n  0x00\n  keccak256\n    /* \"contracts/BikeRental.sol\":855:909  bikes[2] = Bike(2, \"Road Bike\", Statuses.Available, 0) */\n  0x00\n  dup3\n  add\n  mload\n  dup2\n  0x00\n  add\n  sstore\n  0x20\n  dup3\n  add\n  mload\n  dup2\n  0x01\n  add\n  swap1\n  dup2\n  tag_13\n  swap2\n  swap1\n  tag_8\n  jump\t// in\ntag_13:\n  pop\n  0x40\n  dup3\n  add\n  mload\n  dup2\n  0x02\n  add\n  exp(0x0100, 0x00)\n  dup2\n  sload\n  dup2\n  0xff\n  mul\n  not\n  and\n  swap1\n  dup4\n  0x01\n  dup2\n  gt\n  iszero\n  tag_14\n  jumpi\n  tag_15\n  tag_6\n  jump\t// in\ntag_15:\ntag_14:\n  mul\n  or\n  swap1\n  sstore\n  pop\n  0x60\n  dup3\n  add\n  mload\n  dup2\n  0x03\n  add\n  sstore\n  swap1\n  pop\n  pop\n    /* \"contracts/BikeRental.sol\":67:2283  contract BikeRental {... */\n  jump(tag_16)\n    /* \"#utility.yul\":7:187   */\ntag_6:\n    /* \"#utility.yul\":55:132   */\n  0x4e487b7100000000000000000000000000000000000000000000000000000000\n    /* \"#utility.yul\":52:53   */\n  0x00\n    /* \"#utility.yul\":45:133   */\n  mstore\n    /* \"#utility.yul\":152:156   */\n  0x21\n    /* \"#utility.yul\":149:150   */\n  0x04\n    /* \"#utility.yul\":142:157   */\n  mstore\n    /* \"#utility.yul\":176:180   */\n  0x24\n    /* \"#utility.yul\":173:174   */\n  0x00\n    /* \"#utility.yul\":166:181   */\n  revert\n    /* \"#utility.yul\":193:292   */\ntag_17:\n    /* \"#utility.yul\":245:251   */\n  0x00\n    /* \"#utility.yul\":279:284   */\n  dup2\n    /* \"#utility.yul\":273:285   */\n  mload\n    /* \"#utility.yul\":263:285   */\n  swap1\n  pop\n    /* \"#utility.yul\":193:292   */\n  swap2\n  swap1\n  pop\n  jump\t// out\n    /* \"#utility.yul\":298:478   */\ntag_18:\n    /* \"#utility.yul\":346:423   */\n  0x4e487b7100000000000000000000000000000000000000000000000000000000\n    /* \"#utility.yul\":343:344   */\n  0x00\n    /* \"#utility.yul\":336:424   */\n  mstore\n    /* \"#utility.yul\":443:447   */\n  0x41\n    /* \"#utility.yul\":440:441   */\n  0x04\n    /* \"#utility.yul\":433:448   */\n  mstore\n    /* \"#utility.yul\":467:471   */\n  0x24\n    /* \"#utility.yul\":464:465   */\n  0x00\n    /* \"#utility.yul\":457:472   */\n  revert\n    /* \"#utility.yul\":484:664   */\ntag_19:\n    /* \"#utility.yul\":532:609   */\n  0x4e487b7100000000000000000000000000000000000000000000000000000000\n    /* \"#utility.yul\":529:530   */\n  0x00\n    /* \"#utility.yul\":522:610   */\n  mstore\n    /* \"#utility.yul\":629:633   */\n  0x22\n    /* \"#utility.yul\":626:627   */\n  0x04\n    /* \"#utility.yul\":619:634   */\n  mstore\n    /* \"#utility.yul\":653:657   */\n  0x24\n    /* \"#utility.yul\":650:651   */\n  0x00\n    /* \"#utility.yul\":643:658   */\n  revert\n    /* \"#utility.yul\":670:990   */\ntag_20:\n    /* \"#utility.yul\":714:720   */\n  0x00\n    /* \"#utility.yul\":751:752   */\n  0x02\n    /* \"#utility.yul\":745:749   */\n  dup3\n    /* \"#utility.yul\":741:753   */\n  div\n    /* \"#utility.yul\":731:753   */\n  swap1\n  pop\n    /* \"#utility.yul\":798:799   */\n  0x01\n    /* \"#utility.yul\":792:796   */\n  dup3\n    /* \"#utility.yul\":788:800   */\n  and\n    /* \"#utility.yul\":819:837   */\n  dup1\n    /* \"#utility.yul\":809:890   */\n  tag_43\n  jumpi\n    /* \"#utility.yul\":875:879   */\n  0x7f\n    /* \"#utility.yul\":867:873   */\n  dup3\n    /* \"#utility.yul\":863:880   */\n  and\n    /* \"#utility.yul\":853:880   */\n  swap2\n  pop\n    /* \"#utility.yul\":809:890   */\ntag_43:\n    /* \"#utility.yul\":937:939   */\n  0x20\n    /* \"#utility.yul\":929:935   */\n  dup3\n    /* \"#utility.yul\":926:940   */\n  lt\n    /* \"#utility.yul\":906:924   */\n  dup2\n    /* \"#utility.yul\":903:941   */\n  sub\n    /* \"#utility.yul\":900:984   */\n  tag_44\n  jumpi\n    /* \"#utility.yul\":956:974   */\n  tag_45\n  tag_19\n  jump\t// in\ntag_45:\n    /* \"#utility.yul\":900:984   */\ntag_44:\n    /* \"#utility.yul\":721:990   */\n  pop\n    /* \"#utility.yul\":670:990   */\n  swap2\n  swap1\n  pop\n  jump\t// out\n    /* \"#utility.yul\":996:1137   */\ntag_21:\n    /* \"#utility.yul\":1045:1049   */\n  0x00\n    /* \"#utility.yul\":1068:1071   */\n  dup2\n    /* \"#utility.yul\":1060:1071   */\n  swap1\n  pop\n    /* \"#utility.yul\":1091:1094   */\n  dup2\n    /* \"#utility.yul\":1088:1089   */\n  0x00\n    /* \"#utility.yul\":1081:1095   */\n  mstore\n    /* \"#utility.yul\":1125:1129   */\n  0x20\n    /* \"#utility.yul\":1122:1123   */\n  0x00\n    /* \"#utility.yul\":1112:1130   */\n  keccak256\n    /* \"#utility.yul\":1104:1130   */\n  swap1\n  pop\n    /* \"#utility.yul\":996:1137   */\n  swap2\n  swap1\n  pop\n  jump\t// out\n    /* \"#utility.yul\":1143:1236   */\ntag_22:\n    /* \"#utility.yul\":1180:1186   */\n  0x00\n    /* \"#utility.yul\":1227:1229   */\n  0x20\n    /* \"#utility.yul\":1222:1224   */\n  0x1f\n    /* \"#utility.yul\":1215:1220   */\n  dup4\n    /* \"#utility.yul\":1211:1225   */\n  add\n    /* \"#utility.yul\":1207:1230   */\n  div\n    /* \"#utility.yul\":1197:1230   */\n  swap1\n  pop\n    /* \"#utility.yul\":1143:1236   */\n  swap2\n  swap1\n  pop\n  jump\t// out\n    /* \"#utility.yul\":1242:1349   */\ntag_23:\n    /* \"#utility.yul\":1286:1294   */\n  0x00\n    /* \"#utility.yul\":1336:1341   */\n  dup3\n    /* \"#utility.yul\":1330:1334   */\n  dup3\n    /* \"#utility.yul\":1326:1342   */\n  shl\n    /* \"#utility.yul\":1305:1342   */\n  swap1\n  pop\n    /* \"#utility.yul\":1242:1349   */\n  swap3\n  swap2\n  pop\n  pop\n  jump\t// out\n    /* \"#utility.yul\":1355:1748   */\ntag_24:\n    /* \"#utility.yul\":1424:1430   */\n  0x00\n    /* \"#utility.yul\":1474:1475   */\n  0x08\n    /* \"#utility.yul\":1462:1472   */\n  dup4\n    /* \"#utility.yul\":1458:1476   */\n  mul\n    /* \"#utility.yul\":1497:1594   */\n  tag_50\n    /* \"#utility.yul\":1527:1593   */\n  0xffffffffffffffffffffffffffffffffffffffffffffffffffffffffffffffff\n    /* \"#utility.yul\":1516:1525   */\n  dup3\n    /* \"#utility.yul\":1497:1594   */\n  tag_23\n  jump\t// in\ntag_50:\n    /* \"#utility.yul\":1615:1654   */\n  tag_51\n    /* \"#utility.yul\":1645:1653   */\n  dup7\n    /* \"#utility.yul\":1634:1643   */\n  dup4\n    /* \"#utility.yul\":1615:1654   */\n  tag_23\n  jump\t// in\ntag_51:\n    /* \"#utility.yul\":1603:1654   */\n  swap6\n  pop\n    /* \"#utility.yul\":1687:1691   */\n  dup1\n    /* \"#utility.yul\":1683:1692   */\n  not\n    /* \"#utility.yul\":1676:1681   */\n  dup5\n    /* \"#utility.yul\":1672:1693   */\n  and\n    /* \"#utility.yul\":1663:1693   */\n  swap4\n  pop\n    /* \"#utility.yul\":1736:1740   */\n  dup1\n    /* \"#utility.yul\":1726:1734   */\n  dup7\n    /* \"#utility.yul\":1722:1741   */\n  and\n    /* \"#utility.yul\":1715:1720   */\n  dup5\n    /* \"#utility.yul\":1712:1742   */\n  or\n    /* \"#utility.yul\":1702:1742   */\n  swap3\n  pop\n    /* \"#utility.yul\":1431:1748   */\n  pop\n  pop\n    /* \"#utility.yul\":1355:1748   */\n  swap4\n  swap3\n  pop\n  pop\n  pop\n  jump\t// out\n    /* \"#utility.yul\":1754:1831   */\ntag_25:\n    /* \"#utility.yul\":1791:1798   */\n  0x00\n    /* \"#utility.yul\":1820:1825   */\n  dup2\n    /* \"#utility.yul\":1809:1825   */\n  swap1\n  pop\n    /* \"#utility.yul\":1754:1831   */\n  swap2\n  swap1\n  pop\n  jump\t// out\n    /* \"#utility.yul\":1837:1897   */\ntag_26:\n    /* \"#utility.yul\":1865:1868   */\n  0x00\n    /* \"#utility.yul\":1886:1891   */\n  dup2\n    /* \"#utility.yul\":1879:1891   */\n  swap1\n  pop\n    /* \"#utility.yul\":1837:1897   */\n  swap2\n  swap1\n  pop\n  jump\t// out\n    /* \"#utility.yul\":1903:2045   */\ntag_27:\n    /* \"#utility.yul\":1953:1962   */\n  0x00\n    /* \"#utility.yul\":1986:2039   */\n  tag_55\n    /* \"#utility.yul\":2004:2038   */\n  tag_56\n    /* \"#utility.yul\":2013:2037   */\n  tag_57\n    /* \"#utility.yul\":2031:2036   */\n  dup5\n    /* \"#utility.yul\":2013:2037   */\n  tag_25\n  jump\t// in\ntag_57:\n    /* \"#utility.yul\":2004:2038   */\n  tag_26\n  jump\t// in\ntag_56:\n    /* \"#utility.yul\":1986:2039   */\n  tag_25\n  jump\t// in\ntag_55:\n    /* \"#utility.yul\":1973:2039   */\n  swap1\n  pop\n    /* \"#utility.yul\":1903:2045   */\n  swap2\n  swap1\n  pop\n  jump\t// out\n    /* \"#utility.yul\":2051:2126   */\ntag_28:\n    /* \"#utility.yul\":2094:2097   */\n  0x00\n    /* \"#utility.yul\":2115:2120   */\n  dup2\n    /* \"#utility.yul\":2108:2120   */\n  swap1\n  pop\n    /* \"#utility.yul\":2051:2126   */\n  swap2\n  swap1\n  pop\n  jump\t// out\n    /* \"#utility.yul\":2132:2401   */\ntag_29:\n    /* \"#utility.yul\":2242:2281   */\n  tag_60\n    /* \"#utility.yul\":2273:2280   */\n  dup4\n    /* \"#utility.yul\":2242:2281   */\n  tag_27\n  jump\t// in\ntag_60:\n    /* \"#utility.yul\":2303:2394   */\n  tag_61\n    /* \"#utility.yul\":2352:2393   */\n  tag_62\n    /* \"#utility.yul\":2376:2392   */\n  dup3\n    /* \"#utility.yul\":2352:2393   */\n  tag_28\n  jump\t// in\ntag_62:\n    /* \"#utility.yul\":2344:2350   */\n  dup5\n    /* \"#utility.yul\":2337:2341   */\n  dup5\n    /* \"#utility.yul\":2331:2342   */\n  sload\n    /* \"#utility.yul\":2303:2394   */\n  tag_24\n  jump\t// in\ntag_61:\n    /* \"#utility.yul\":2297:2301   */\n  dup3\n    /* \"#utility.yul\":2290:2395   */\n  sstore\n    /* \"#utility.yul\":2208:2401   */\n  pop\n    /* \"#utility.yul\":2132:2401   */\n  pop\n  pop\n  pop\n  jump\t// out\n    /* \"#utility.yul\":2407:2480   */\ntag_30:\n    /* \"#utility.yul\":2452:2455   */\n  0x00\n    /* \"#utility.yul\":2407:2480   */\n  swap1\n  jump\t// out\n    /* \"#utility.yul\":2486:2675   */\ntag_31:\n    /* \"#utility.yul\":2563:2595   */\n  tag_65\n  tag_30\n  jump\t// in\ntag_65:\n    /* \"#utility.yul\":2604:2669   */\n  tag_66\n    /* \"#utility.yul\":2662:2668   */\n  dup2\n    /* \"#utility.yul\":2654:2660   */\n  dup5\n    /* \"#utility.yul\":2648:2652   */\n  dup5\n    /* \"#utility.yul\":2604:2669   */\n  tag_29\n  jump\t// in\ntag_66:\n    /* \"#utility.yul\":2539:2675   */\n  pop\n    /* \"#utility.yul\":2486:2675   */\n  pop\n  pop\n  jump\t// out\n    /* \"#utility.yul\":2681:2867   */\ntag_32:\n    /* \"#utility.yul\":2741:2861   */\ntag_68:\n    /* \"#utility.yul\":2758:2761   */\n  dup2\n    /* \"#utility.yul\":2751:2756   */\n  dup2\n    /* \"#utility.yul\":2748:2762   */\n  lt\n    /* \"#utility.yul\":2741:2861   */\n  iszero\n  tag_70\n  jumpi\n    /* \"#utility.yul\":2812:2851   */\n  tag_71\n    /* \"#utility.yul\":2849:2850   */\n  0x00\n    /* \"#utility.yul\":2842:2847   */\n  dup3\n    /* \"#utility.yul\":2812:2851   */\n  tag_31\n  jump\t// in\ntag_71:\n    /* \"#utility.yul\":2785:2786   */\n  0x01\n    /* \"#utility.yul\":2778:2783   */\n  dup2\n    /* \"#utility.yul\":2774:2787   */\n  add\n    /* \"#utility.yul\":2765:2787   */\n  swap1\n  pop\n    /* \"#utility.yul\":2741:2861   */\n  jump(tag_68)\ntag_70:\n    /* \"#utility.yul\":2681:2867   */\n  pop\n  pop\n  jump\t// out\n    /* \"#utility.yul\":2873:3416   */\ntag_33:\n    /* \"#utility.yul\":2974:2976   */\n  0x1f\n    /* \"#utility.yul\":2969:2972   */\n  dup3\n    /* \"#utility.yul\":2966:2977   */\n  gt\n    /* \"#utility.yul\":2963:3409   */\n  iszero\n  tag_73\n  jumpi\n    /* \"#utility.yul\":3008:3046   */\n  tag_74\n    /* \"#utility.yul\":3040:3045   */\n  dup2\n    /* \"#utility.yul\":3008:3046   */\n  tag_21\n  jump\t// in\ntag_74:\n    /* \"#utility.yul\":3092:3121   */\n  tag_75\n    /* \"#utility.yul\":3110:3120   */\n  dup5\n    /* \"#utility.yul\":3092:3121   */\n  tag_22\n  jump\t// in\ntag_75:\n    /* \"#utility.yul\":3082:3090   */\n  dup2\n    /* \"#utility.yul\":3078:3122   */\n  add\n    /* \"#utility.yul\":3275:3277   */\n  0x20\n    /* \"#utility.yul\":3263:3273   */\n  dup6\n    /* \"#utility.yul\":3260:3278   */\n  lt\n    /* \"#utility.yul\":3257:3306   */\n  iszero\n  tag_76\n  jumpi\n    /* \"#utility.yul\":3296:3304   */\n  dup2\n    /* \"#utility.yul\":3281:3304   */\n  swap1\n  pop\n    /* \"#utility.yul\":3257:3306   */\ntag_76:\n    /* \"#utility.yul\":3319:3399   */\n  tag_77\n    /* \"#utility.yul\":3375:3397   */\n  tag_78\n    /* \"#utility.yul\":3393:3396   */\n  dup6\n    /* \"#utility.yul\":3375:3397   */\n  tag_22\n  jump\t// in\ntag_78:\n    /* \"#utility.yul\":3365:3373   */\n  dup4\n    /* \"#utility.yul\":3361:3398   */\n  add\n    /* \"#utility.yul\":3348:3359   */\n  dup3\n    /* \"#utility.yul\":3319:3399   */\n  tag_32\n  jump\t// in\ntag_77:\n    /* \"#utility.yul\":2978:3409   */\n  pop\n  pop\n    /* \"#utility.yul\":2963:3409   */\ntag_73:\n    /* \"#utility.yul\":2873:3416   */\n  pop\n  pop\n  pop\n  jump\t// out\n    /* \"#utility.yul\":3422:3539   */\ntag_34:\n    /* \"#utility.yul\":3476:3484   */\n  0x00\n    /* \"#utility.yul\":3526:3531   */\n  dup3\n    /* \"#utility.yul\":3520:3524   */\n  dup3\n    /* \"#utility.yul\":3516:3532   */\n  shr\n    /* \"#utility.yul\":3495:3532   */\n  swap1\n  pop\n    /* \"#utility.yul\":3422:3539   */\n  swap3\n  swap2\n  pop\n  pop\n  jump\t// out\n    /* \"#utility.yul\":3545:3714   */\ntag_35:\n    /* \"#utility.yul\":3589:3595   */\n  0x00\n    /* \"#utility.yul\":3622:3673   */\n  tag_81\n    /* \"#utility.yul\":3670:3671   */\n  0x00\n    /* \"#utility.yul\":3666:3672   */\n  not\n    /* \"#utility.yul\":3658:3663   */\n  dup5\n    /* \"#utility.yul\":3655:3656   */\n  0x08\n    /* \"#utility.yul\":3651:3664   */\n  mul\n    /* \"#utility.yul\":3622:3673   */\n  tag_34\n  jump\t// in\ntag_81:\n    /* \"#utility.yul\":3618:3674   */\n  not\n    /* \"#utility.yul\":3703:3707   */\n  dup1\n    /* \"#utility.yul\":3697:3701   */\n  dup4\n    /* \"#utility.yul\":3693:3708   */\n  and\n    /* \"#utility.yul\":3683:3708   */\n  swap2\n  pop\n    /* \"#utility.yul\":3596:3714   */\n  pop\n    /* \"#utility.yul\":3545:3714   */\n  swap3\n  swap2\n  pop\n  pop\n  jump\t// out\n    /* \"#utility.yul\":3719:4014   */\ntag_36:\n    /* \"#utility.yul\":3795:3799   */\n  0x00\n    /* \"#utility.yul\":3941:3970   */\n  tag_83\n    /* \"#utility.yul\":3966:3969   */\n  dup4\n    /* \"#utility.yul\":3960:3964   */\n  dup4\n    /* \"#utility.yul\":3941:3970   */\n  tag_35\n  jump\t// in\ntag_83:\n    /* \"#utility.yul\":3933:3970   */\n  swap2\n  pop\n    /* \"#utility.yul\":4003:4006   */\n  dup3\n    /* \"#utility.yul\":4000:4001   */\n  0x02\n    /* \"#utility.yul\":3996:4007   */\n  mul\n    /* \"#utility.yul\":3990:3994   */\n  dup3\n    /* \"#utility.yul\":3987:4008   */\n  or\n    /* \"#utility.yul\":3979:4008   */\n  swap1\n  pop\n    /* \"#utility.yul\":3719:4014   */\n  swap3\n  swap2\n  pop\n  pop\n  jump\t// out\n    /* \"#utility.yul\":4019:5414   */\ntag_8:\n    /* \"#utility.yul\":4136:4173   */\n  tag_85\n    /* \"#utility.yul\":4169:4172   */\n  dup3\n    /* \"#utility.yul\":4136:4173   */\n  tag_17\n  jump\t// in\ntag_85:\n    /* \"#utility.yul\":4238:4256   */\n  0xffffffffffffffff\n    /* \"#utility.yul\":4230:4236   */\n  dup2\n    /* \"#utility.yul\":4227:4257   */\n  gt\n    /* \"#utility.yul\":4224:4280   */\n  iszero\n  tag_86\n  jumpi\n    /* \"#utility.yul\":4260:4278   */\n  tag_87\n  tag_18\n  jump\t// in\ntag_87:\n    /* \"#utility.yul\":4224:4280   */\ntag_86:\n    /* \"#utility.yul\":4304:4342   */\n  tag_88\n    /* \"#utility.yul\":4336:4340   */\n  dup3\n    /* \"#utility.yul\":4330:4341   */\n  sload\n    /* \"#utility.yul\":4304:4342   */\n  tag_20\n  jump\t// in\ntag_88:\n    /* \"#utility.yul\":4389:4456   */\n  tag_89\n    /* \"#utility.yul\":4449:4455   */\n  dup3\n    /* \"#utility.yul\":4441:4447   */\n  dup3\n    /* \"#utility.yul\":4435:4439   */\n  dup6\n    /* \"#utility.yul\":4389:4456   */\n  tag_33\n  jump\t// in\ntag_89:\n    /* \"#utility.yul\":4483:4484   */\n  0x00\n    /* \"#utility.yul\":4507:4511   */\n  0x20\n    /* \"#utility.yul\":4494:4511   */\n  swap1\n  pop\n    /* \"#utility.yul\":4539:4541   */\n  0x1f\n    /* \"#utility.yul\":4531:4537   */\n  dup4\n    /* \"#utility.yul\":4528:4542   */\n  gt\n    /* \"#utility.yul\":4556:4557   */\n  0x01\n    /* \"#utility.yul\":4551:5169   */\n  dup2\n  eq\n  tag_91\n  jumpi\n    /* \"#utility.yul\":5213:5214   */\n  0x00\n    /* \"#utility.yul\":5230:5236   */\n  dup5\n    /* \"#utility.yul\":5227:5304   */\n  iszero\n  tag_92\n  jumpi\n    /* \"#utility.yul\":5279:5288   */\n  dup3\n    /* \"#utility.yul\":5274:5277   */\n  dup8\n    /* \"#utility.yul\":5270:5289   */\n  add\n    /* \"#utility.yul\":5264:5290   */\n  mload\n    /* \"#utility.yul\":5255:5290   */\n  swap1\n  pop\n    /* \"#utility.yul\":5227:5304   */\ntag_92:\n    /* \"#utility.yul\":5330:5397   */\n  tag_93\n    /* \"#utility.yul\":5390:5396   */\n  dup6\n    /* \"#utility.yul\":5383:5388   */\n  dup3\n    /* \"#utility.yul\":5330:5397   */\n  tag_36\n  jump\t// in\ntag_93:\n    /* \"#utility.yul\":5324:5328   */\n  dup7\n    /* \"#utility.yul\":5317:5398   */\n  sstore\n    /* \"#utility.yul\":5186:5408   */\n  pop\n    /* \"#utility.yul\":4521:5408   */\n  jump(tag_90)\n    /* \"#utility.yul\":4551:5169   */\ntag_91:\n    /* \"#utility.yul\":4603:4607   */\n  0x1f\n    /* \"#utility.yul\":4599:4608   */\n  not\n    /* \"#utility.yul\":4591:4597   */\n  dup5\n    /* \"#utility.yul\":4587:4609   */\n  and\n    /* \"#utility.yul\":4637:4674   */\n  tag_94\n    /* \"#utility.yul\":4669:4673   */\n  dup7\n    /* \"#utility.yul\":4637:4674   */\n  tag_21\n  jump\t// in\ntag_94:\n    /* \"#utility.yul\":4696:4697   */\n  0x00\n    /* \"#utility.yul\":4710:4918   */\ntag_95:\n    /* \"#utility.yul\":4724:4731   */\n  dup3\n    /* \"#utility.yul\":4721:4722   */\n  dup2\n    /* \"#utility.yul\":4718:4732   */\n  lt\n    /* \"#utility.yul\":4710:4918   */\n  iszero\n  tag_97\n  jumpi\n    /* \"#utility.yul\":4803:4812   */\n  dup5\n    /* \"#utility.yul\":4798:4801   */\n  dup10\n    /* \"#utility.yul\":4794:4813   */\n  add\n    /* \"#utility.yul\":4788:4814   */\n  mload\n    /* \"#utility.yul\":4780:4786   */\n  dup3\n    /* \"#utility.yul\":4773:4815   */\n  sstore\n    /* \"#utility.yul\":4854:4855   */\n  0x01\n    /* \"#utility.yul\":4846:4852   */\n  dup3\n    /* \"#utility.yul\":4842:4856   */\n  add\n    /* \"#utility.yul\":4832:4856   */\n  swap2\n  pop\n    /* \"#utility.yul\":4901:4903   */\n  0x20\n    /* \"#utility.yul\":4890:4899   */\n  dup6\n    /* \"#utility.yul\":4886:4904   */\n  add\n    /* \"#utility.yul\":4873:4904   */\n  swap5\n  pop\n    /* \"#utility.yul\":4747:4751   */\n  0x20\n    /* \"#utility.yul\":4744:4745   */\n  dup2\n    /* \"#utility.yul\":4740:4752   */\n  add\n    /* \"#utility.yul\":4735:4752   */\n  swap1\n  pop\n    /* \"#utility.yul\":4710:4918   */\n  jump(tag_95)\ntag_97:\n    /* \"#utility.yul\":4946:4952   */\n  dup7\n    /* \"#utility.yul\":4937:4944   */\n  dup4\n    /* \"#utility.yul\":4934:4953   */\n  lt\n    /* \"#utility.yul\":4931:5110   */\n  iszero\n  tag_98\n  jumpi\n    /* \"#utility.yul\":5004:5013   */\n  dup5\n    /* \"#utility.yul\":4999:5002   */\n  dup10\n    /* \"#utility.yul\":4995:5014   */\n  add\n    /* \"#utility.yul\":4989:5015   */\n  mload\n    /* \"#utility.yul\":5047:5095   */\n  tag_99\n    /* \"#utility.yul\":5089:5093   */\n  0x1f\n    /* \"#utility.yul\":5081:5087   */\n  dup10\n    /* \"#utility.yul\":5077:5094   */\n  and\n    /* \"#utility.yul\":5066:5075   */\n  dup3\n    /* \"#utility.yul\":5047:5095   */\n  tag_35\n  jump\t// in\ntag_99:\n    /* \"#utility.yul\":5039:5045   */\n  dup4\n    /* \"#utility.yul\":5032:5096   */\n  sstore\n    /* \"#utility.yul\":4954:5110   */\n  pop\n    /* \"#utility.yul\":4931:5110   */\ntag_98:\n    /* \"#utility.yul\":5156:5157   */\n  0x01\n    /* \"#utility.yul\":5152:5153   */\n  0x02\n    /* \"#utility.yul\":5144:5150   */\n  dup9\n    /* \"#utility.yul\":5140:5154   */\n  mul\n    /* \"#utility.yul\":5136:5158   */\n  add\n    /* \"#utility.yul\":5130:5134   */\n  dup9\n    /* \"#utility.yul\":5123:5159   */\n  sstore\n    /* \"#utility.yul\":4558:5169   */\n  pop\n  pop\n  pop\n    /* \"#utility.yul\":4521:5408   */\ntag_90:\n  pop\n    /* \"#utility.yul\":4111:5414   */\n  pop\n  pop\n  pop\n    /* \"#utility.yul\":4019:5414   */\n  pop\n  pop\n  jump\t// out\n    /* \"contracts/BikeRental.sol\":67:2283  contract BikeRental {... */\ntag_16:\n  dataSize(sub_0)\n  dup1\n  dataOffset(sub_0)\n  0x00\n  codecopy\n  0x00\n  return\nstop\n\nsub_0: assembly {\n        /* \"contracts/BikeRental.sol\":67:2283  contract BikeRental {... */\n      mstore(0x40, 0x80)\n      jumpi(tag_1, lt(calldatasize, 0x04))\n      shr(0xe0, calldataload(0x00))\n      dup1\n      0x6eefcb1f\n      gt\n      tag_10\n      jumpi\n      dup1\n      0x6eefcb1f\n      eq\n      tag_6\n      jumpi\n      dup1\n      0x7ad8f224\n      eq\n      tag_7\n      jumpi\n      dup1\n      0x8da5cb5b\n      eq\n      tag_8\n      jumpi\n      dup1\n      0xa56a91c5\n      eq\n      tag_9\n      jumpi\n      jump(tag_1)\n    tag_10:\n      dup1\n      0x1c43cd04\n      eq\n      tag_2\n      jumpi\n      dup1\n      0x278ecde1\n      eq\n      tag_3\n      jumpi\n      dup1\n      0x5c526e19\n      eq\n      tag_4\n      jumpi\n      dup1\n      0x5ea52713\n      eq\n      tag_5\n      jumpi\n    tag_1:\n      0x00\n      dup1\n      revert\n        /* \"contracts/BikeRental.sol\":147:190  uint256 public constant rentalPrice = 2 wei */\n    tag_2:\n      callvalue\n      dup1\n      iszero\n      tag_11\n      jumpi\n      0x00\n      dup1\n      revert\n    tag_11:\n      pop\n      tag_12\n      tag_13\n      jump\t// in\n    tag_12:\n      mload(0x40)\n      tag_14\n      swap2\n      swap1\n      tag_15\n      jump\t// in\n    tag_14:\n      mload(0x40)\n      dup1\n      swap2\n      sub\n      swap1\n      return\n        /* \"contracts/BikeRental.sol\":1825:2130  function refund(uint256 bikeId) external {... */\n    tag_3:\n      callvalue\n      dup1\n      iszero\n      tag_16\n      jumpi\n      0x00\n      dup1\n      revert\n    tag_16:\n      pop\n      tag_17\n      0x04\n      dup1\n      calldatasize\n      sub\n      dup2\n      add\n      swap1\n      tag_18\n      swap2\n      swap1\n      tag_19\n      jump\t// in\n    tag_18:\n      tag_20\n      jump\t// in\n    tag_17:\n      stop\n        /* \"contracts/BikeRental.sol\":477:514  mapping(uint256 => Bike) public bikes */\n    tag_4:\n      callvalue\n      dup1\n      iszero\n      tag_21\n      jumpi\n      0x00\n      dup1\n      revert\n    tag_21:\n      pop\n      tag_22\n      0x04\n      dup1\n      calldatasize\n      sub\n      dup2\n      add\n      swap1\n      tag_23\n      swap2\n      swap1\n      tag_19\n      jump\t// in\n    tag_23:\n      tag_24\n      jump\t// in\n    tag_22:\n      mload(0x40)\n      tag_25\n      swap5\n      swap4\n      swap3\n      swap2\n      swap1\n      tag_26\n      jump\t// in\n    tag_25:\n      mload(0x40)\n      dup1\n      swap2\n      sub\n      swap1\n      return\n        /* \"contracts/BikeRental.sol\":2162:2280  function getBikeStatus(uint256 bikeId) external view returns (Statuses) {... */\n    tag_5:\n      callvalue\n      dup1\n      iszero\n      tag_27\n      jumpi\n      0x00\n      dup1\n      revert\n    tag_27:\n      pop\n      tag_28\n      0x04\n      dup1\n      calldatasize\n      sub\n      dup2\n      add\n      swap1\n      tag_29\n      swap2\n      swap1\n      tag_19\n      jump\t// in\n    tag_29:\n      tag_30\n      jump\t// in\n    tag_28:\n      mload(0x40)\n      tag_31\n      swap2\n      swap1\n      tag_32\n      jump\t// in\n    tag_31:\n      mload(0x40)\n      dup1\n      swap2\n      sub\n      swap1\n      return\n        /* \"contracts/BikeRental.sol\":197:235  uint256 public rentalDuration = 1 days */\n    tag_6:\n      callvalue\n      dup1\n      iszero\n      tag_33\n      jumpi\n      0x00\n      dup1\n      revert\n    tag_33:\n      pop\n      tag_34\n      tag_35\n      jump\t// in\n    tag_34:\n      mload(0x40)\n      tag_36\n      swap2\n      swap1\n      tag_15\n      jump\t// in\n    tag_36:\n      mload(0x40)\n      dup1\n      swap2\n      sub\n      swap1\n      return\n        /* \"contracts/BikeRental.sol\":1245:1543  function rentBike(uint256 bikeId) external payable onlyAvailable(bikeId) costs(rentalPrice) {... */\n    tag_7:\n      tag_37\n      0x04\n      dup1\n      calldatasize\n      sub\n      dup2\n      add\n      swap1\n      tag_38\n      swap2\n      swap1\n      tag_19\n      jump\t// in\n    tag_38:\n      tag_39\n      jump\t// in\n    tag_37:\n      stop\n        /* \"contracts/BikeRental.sol\":112:140  address payable public owner */\n    tag_8:\n      callvalue\n      dup1\n      iszero\n      tag_40\n      jumpi\n      0x00\n      dup1\n      revert\n    tag_40:\n      pop\n      tag_41\n      tag_42\n      jump\t// in\n    tag_41:\n      mload(0x40)\n      tag_43\n      swap2\n      swap1\n      tag_44\n      jump\t// in\n    tag_43:\n      mload(0x40)\n      dup1\n      swap2\n      sub\n      swap1\n      return\n        /* \"contracts/BikeRental.sol\":1551:1817  function returnBike(uint256 bikeId) external {... */\n    tag_9:\n      callvalue\n      dup1\n      iszero\n      tag_45\n      jumpi\n      0x00\n      dup1\n      revert\n    tag_45:\n      pop\n      tag_46\n      0x04\n      dup1\n      calldatasize\n      sub\n      dup2\n      add\n      swap1\n      tag_47\n      swap2\n      swap1\n      tag_19\n      jump\t// in\n    tag_47:\n      tag_48\n      jump\t// in\n    tag_46:\n      stop\n        /* \"contracts/BikeRental.sol\":147:190  uint256 public constant rentalPrice = 2 wei */\n    tag_13:\n        /* \"contracts/BikeRental.sol\":185:190  2 wei */\n      0x02\n        /* \"contracts/BikeRental.sol\":147:190  uint256 public constant rentalPrice = 2 wei */\n      dup2\n      jump\t// out\n        /* \"contracts/BikeRental.sol\":1825:2130  function refund(uint256 bikeId) external {... */\n    tag_20:\n        /* \"contracts/BikeRental.sol\":1909:1924  Statuses.Rented */\n      0x01\n        /* \"contracts/BikeRental.sol\":1885:1924  bikes[bikeId].status == Statuses.Rented */\n      dup1\n      dup2\n      gt\n      iszero\n      tag_50\n      jumpi\n      tag_51\n      tag_52\n      jump\t// in\n    tag_51:\n    tag_50:\n        /* \"contracts/BikeRental.sol\":1885:1890  bikes */\n      0x02\n        /* \"contracts/BikeRental.sol\":1885:1898  bikes[bikeId] */\n      0x00\n        /* \"contracts/BikeRental.sol\":1891:1897  bikeId */\n      dup4\n        /* \"contracts/BikeRental.sol\":1885:1898  bikes[bikeId] */\n      dup2\n      mstore\n      0x20\n      add\n      swap1\n      dup2\n      mstore\n      0x20\n      add\n      0x00\n      keccak256\n        /* \"contracts/BikeRental.sol\":1885:1905  bikes[bikeId].status */\n      0x02\n      add\n      0x00\n      swap1\n      sload\n      swap1\n      0x0100\n      exp\n      swap1\n      div\n      0xff\n      and\n        /* \"contracts/BikeRental.sol\":1885:1924  bikes[bikeId].status == Statuses.Rented */\n      0x01\n      dup2\n      gt\n      iszero\n      tag_53\n      jumpi\n      tag_54\n      tag_52\n      jump\t// in\n    tag_54:\n    tag_53:\n      eq\n        /* \"contracts/BikeRental.sol\":1877:1948  require(bikes[bikeId].status == Statuses.Rented, \"Bike is not rented!\") */\n      tag_55\n      jumpi\n      mload(0x40)\n      0x08c379a000000000000000000000000000000000000000000000000000000000\n      dup2\n      mstore\n      0x04\n      add\n      tag_56\n      swap1\n      tag_57\n      jump\t// in\n    tag_56:\n      mload(0x40)\n      dup1\n      swap2\n      sub\n      swap1\n      revert\n    tag_55:\n        /* \"contracts/BikeRental.sol\":1982:2000  Statuses.Available */\n      0x00\n        /* \"contracts/BikeRental.sol\":1959:1964  bikes */\n      0x02\n        /* \"contracts/BikeRental.sol\":1959:1972  bikes[bikeId] */\n      0x00\n        /* \"contracts/BikeRental.sol\":1965:1971  bikeId */\n      dup4\n        /* \"contracts/BikeRental.sol\":1959:1972  bikes[bikeId] */\n      dup2\n      mstore\n      0x20\n      add\n      swap1\n      dup2\n      mstore\n      0x20\n      add\n      0x00\n      keccak256\n        /* \"contracts/BikeRental.sol\":1959:1979  bikes[bikeId].status */\n      0x02\n      add\n      0x00\n        /* \"contracts/BikeRental.sol\":1959:2000  bikes[bikeId].status = Statuses.Available */\n      0x0100\n      exp\n      dup2\n      sload\n      dup2\n      0xff\n      mul\n      not\n      and\n      swap1\n      dup4\n      0x01\n      dup2\n      gt\n      iszero\n      tag_58\n      jumpi\n      tag_59\n      tag_52\n      jump\t// in\n    tag_59:\n    tag_58:\n      mul\n      or\n      swap1\n      sstore\n      pop\n        /* \"contracts/BikeRental.sol\":2039:2040  0 */\n      0x00\n        /* \"contracts/BikeRental.sol\":2011:2016  bikes */\n      0x02\n        /* \"contracts/BikeRental.sol\":2011:2024  bikes[bikeId] */\n      0x00\n        /* \"contracts/BikeRental.sol\":2017:2023  bikeId */\n      dup4\n        /* \"contracts/BikeRental.sol\":2011:2024  bikes[bikeId] */\n      dup2\n      mstore\n      0x20\n      add\n      swap1\n      dup2\n      mstore\n      0x20\n      add\n      0x00\n      keccak256\n        /* \"contracts/BikeRental.sol\":2011:2036  bikes[bikeId].rentedUntil */\n      0x03\n      add\n        /* \"contracts/BikeRental.sol\":2011:2040  bikes[bikeId].rentedUntil = 0 */\n      dup2\n      swap1\n      sstore\n      pop\n        /* \"contracts/BikeRental.sol\":2059:2069  msg.sender */\n      caller\n        /* \"contracts/BikeRental.sol\":2051:2079  payable(msg.sender).transfer */\n      0xffffffffffffffffffffffffffffffffffffffff\n      and\n        /* \"contracts/BikeRental.sol\":2051:2092  payable(msg.sender).transfer(rentalPrice) */\n      0x08fc\n        /* \"contracts/BikeRental.sol\":185:190  2 wei */\n      0x02\n        /* \"contracts/BikeRental.sol\":2051:2092  payable(msg.sender).transfer(rentalPrice) */\n      swap1\n      dup2\n      iszero\n      mul\n      swap1\n      mload(0x40)\n      0x00\n      mload(0x40)\n      dup1\n      dup4\n      sub\n      dup2\n      dup6\n      dup9\n      dup9\n      call\n      swap4\n      pop\n      pop\n      pop\n      pop\n      iszero\n      dup1\n      iszero\n      tag_61\n      jumpi\n      returndatasize\n      0x00\n      dup1\n      returndatacopy\n      revert(0x00, returndatasize)\n    tag_61:\n      pop\n        /* \"contracts/BikeRental.sol\":2108:2122  Refund(bikeId) */\n      0x2e1897b0591d764356194f7a795238a87c1987c7a877568e50d829d547c92b97\n        /* \"contracts/BikeRental.sol\":2115:2121  bikeId */\n      dup2\n        /* \"contracts/BikeRental.sol\":2108:2122  Refund(bikeId) */\n      mload(0x40)\n      tag_62\n      swap2\n      swap1\n      tag_15\n      jump\t// in\n    tag_62:\n      mload(0x40)\n      dup1\n      swap2\n      sub\n      swap1\n      log1\n        /* \"contracts/BikeRental.sol\":1825:2130  function refund(uint256 bikeId) external {... */\n      pop\n      jump\t// out\n        /* \"contracts/BikeRental.sol\":477:514  mapping(uint256 => Bike) public bikes */\n    tag_24:\n      mstore(0x20, 0x02)\n      dup1\n      0x00\n      mstore\n      keccak256(0x00, 0x40)\n      0x00\n      swap2\n      pop\n      swap1\n      pop\n      dup1\n      0x00\n      add\n      sload\n      swap1\n      dup1\n      0x01\n      add\n      dup1\n      sload\n      tag_63\n      swap1\n      tag_64\n      jump\t// in\n    tag_63:\n      dup1\n      0x1f\n      add\n      0x20\n      dup1\n      swap2\n      div\n      mul\n      0x20\n      add\n      mload(0x40)\n      swap1\n      dup2\n      add\n      0x40\n      mstore\n      dup1\n      swap3\n      swap2\n      swap1\n      dup2\n      dup2\n      mstore\n      0x20\n      add\n      dup3\n      dup1\n      sload\n      tag_65\n      swap1\n      tag_64\n      jump\t// in\n    tag_65:\n      dup1\n      iszero\n      tag_66\n      jumpi\n      dup1\n      0x1f\n      lt\n      tag_67\n      jumpi\n      0x0100\n      dup1\n      dup4\n      sload\n      div\n      mul\n      dup4\n      mstore\n      swap2\n      0x20\n      add\n      swap2\n      jump(tag_66)\n    tag_67:\n      dup3\n      add\n      swap2\n      swap1\n      0x00\n      mstore\n      keccak256(0x00, 0x20)\n      swap1\n    tag_68:\n      dup2\n      sload\n      dup2\n      mstore\n      swap1\n      0x01\n      add\n      swap1\n      0x20\n      add\n      dup1\n      dup4\n      gt\n      tag_68\n      jumpi\n      dup3\n      swap1\n      sub\n      0x1f\n      and\n      dup3\n      add\n      swap2\n    tag_66:\n      pop\n      pop\n      pop\n      pop\n      pop\n      swap1\n      dup1\n      0x02\n      add\n      0x00\n      swap1\n      sload\n      swap1\n      0x0100\n      exp\n      swap1\n      div\n      0xff\n      and\n      swap1\n      dup1\n      0x03\n      add\n      sload\n      swap1\n      pop\n      dup5\n      jump\t// out\n        /* \"contracts/BikeRental.sol\":2162:2280  function getBikeStatus(uint256 bikeId) external view returns (Statuses) {... */\n    tag_30:\n        /* \"contracts/BikeRental.sol\":2224:2232  Statuses */\n      0x00\n        /* \"contracts/BikeRental.sol\":2252:2257  bikes */\n      0x02\n        /* \"contracts/BikeRental.sol\":2252:2265  bikes[bikeId] */\n      0x00\n        /* \"contracts/BikeRental.sol\":2258:2264  bikeId */\n      dup4\n        /* \"contracts/BikeRental.sol\":2252:2265  bikes[bikeId] */\n      dup2\n      mstore\n      0x20\n      add\n      swap1\n      dup2\n      mstore\n      0x20\n      add\n      0x00\n      keccak256\n        /* \"contracts/BikeRental.sol\":2252:2272  bikes[bikeId].status */\n      0x02\n      add\n      0x00\n      swap1\n      sload\n      swap1\n      0x0100\n      exp\n      swap1\n      div\n      0xff\n      and\n        /* \"contracts/BikeRental.sol\":2245:2272  return bikes[bikeId].status */\n      swap1\n      pop\n        /* \"contracts/BikeRental.sol\":2162:2280  function getBikeStatus(uint256 bikeId) external view returns (Statuses) {... */\n      swap2\n      swap1\n      pop\n      jump\t// out\n        /* \"contracts/BikeRental.sol\":197:235  uint256 public rentalDuration = 1 days */\n    tag_35:\n      sload(0x01)\n      dup2\n      jump\t// out\n        /* \"contracts/BikeRental.sol\":1245:1543  function rentBike(uint256 bikeId) external payable onlyAvailable(bikeId) costs(rentalPrice) {... */\n    tag_39:\n        /* \"contracts/BikeRental.sol\":1310:1316  bikeId */\n      dup1\n        /* \"contracts/BikeRental.sol\":1025:1043  Statuses.Available */\n      0x00\n        /* \"contracts/BikeRental.sol\":1001:1043  bikes[bikeId].status == Statuses.Available */\n      0x01\n      dup2\n      gt\n      iszero\n      tag_71\n      jumpi\n      tag_72\n      tag_52\n      jump\t// in\n    tag_72:\n    tag_71:\n        /* \"contracts/BikeRental.sol\":1001:1006  bikes */\n      0x02\n        /* \"contracts/BikeRental.sol\":1001:1014  bikes[bikeId] */\n      0x00\n        /* \"contracts/BikeRental.sol\":1007:1013  bikeId */\n      dup4\n        /* \"contracts/BikeRental.sol\":1001:1014  bikes[bikeId] */\n      dup2\n      mstore\n      0x20\n      add\n      swap1\n      dup2\n      mstore\n      0x20\n      add\n      0x00\n      keccak256\n        /* \"contracts/BikeRental.sol\":1001:1021  bikes[bikeId].status */\n      0x02\n      add\n      0x00\n      swap1\n      sload\n      swap1\n      0x0100\n      exp\n      swap1\n      div\n      0xff\n      and\n        /* \"contracts/BikeRental.sol\":1001:1043  bikes[bikeId].status == Statuses.Available */\n      0x01\n      dup2\n      gt\n      iszero\n      tag_73\n      jumpi\n      tag_74\n      tag_52\n      jump\t// in\n    tag_74:\n    tag_73:\n      eq\n        /* \"contracts/BikeRental.sol\":993:1070  require(bikes[bikeId].status == Statuses.Available, \"Bike is not available!\") */\n      tag_75\n      jumpi\n      mload(0x40)\n      0x08c379a000000000000000000000000000000000000000000000000000000000\n      dup2\n      mstore\n      0x04\n      add\n      tag_76\n      swap1\n      tag_77\n      jump\t// in\n    tag_76:\n      mload(0x40)\n      dup1\n      swap2\n      sub\n      swap1\n      revert\n    tag_75:\n        /* \"contracts/BikeRental.sol\":185:190  2 wei */\n      0x02\n        /* \"contracts/BikeRental.sol\":1161:1167  amount */\n      dup1\n        /* \"contracts/BikeRental.sol\":1148:1157  msg.value */\n      callvalue\n        /* \"contracts/BikeRental.sol\":1148:1167  msg.value >= amount */\n      lt\n      iszero\n        /* \"contracts/BikeRental.sol\":1140:1191  require(msg.value >= amount, \"Insufficient funds!\") */\n      tag_79\n      jumpi\n      mload(0x40)\n      0x08c379a000000000000000000000000000000000000000000000000000000000\n      dup2\n      mstore\n      0x04\n      add\n      tag_80\n      swap1\n      tag_81\n      jump\t// in\n    tag_80:\n      mload(0x40)\n      dup1\n      swap2\n      sub\n      swap1\n      revert\n    tag_79:\n        /* \"contracts/BikeRental.sol\":1371:1386  Statuses.Rented */\n      0x01\n        /* \"contracts/BikeRental.sol\":1348:1353  bikes */\n      0x02\n        /* \"contracts/BikeRental.sol\":1348:1361  bikes[bikeId] */\n      0x00\n        /* \"contracts/BikeRental.sol\":1354:1360  bikeId */\n      dup6\n        /* \"contracts/BikeRental.sol\":1348:1361  bikes[bikeId] */\n      dup2\n      mstore\n      0x20\n      add\n      swap1\n      dup2\n      mstore\n      0x20\n      add\n      0x00\n      keccak256\n        /* \"contracts/BikeRental.sol\":1348:1368  bikes[bikeId].status */\n      0x02\n      add\n      0x00\n        /* \"contracts/BikeRental.sol\":1348:1386  bikes[bikeId].status = Statuses.Rented */\n      0x0100\n      exp\n      dup2\n      sload\n      dup2\n      0xff\n      mul\n      not\n      and\n      swap1\n      dup4\n      0x01\n      dup2\n      gt\n      iszero\n      tag_83\n      jumpi\n      tag_84\n      tag_52\n      jump\t// in\n    tag_84:\n    tag_83:\n      mul\n      or\n      swap1\n      sstore\n      pop\n        /* \"contracts/BikeRental.sol\":1443:1457  rentalDuration */\n      sload(0x01)\n        /* \"contracts/BikeRental.sol\":1425:1440  block.timestamp */\n      timestamp\n        /* \"contracts/BikeRental.sol\":1425:1457  block.timestamp + rentalDuration */\n      tag_85\n      swap2\n      swap1\n      tag_86\n      jump\t// in\n    tag_85:\n        /* \"contracts/BikeRental.sol\":1397:1402  bikes */\n      0x02\n        /* \"contracts/BikeRental.sol\":1397:1410  bikes[bikeId] */\n      0x00\n        /* \"contracts/BikeRental.sol\":1403:1409  bikeId */\n      dup6\n        /* \"contracts/BikeRental.sol\":1397:1410  bikes[bikeId] */\n      dup2\n      mstore\n      0x20\n      add\n      swap1\n      dup2\n      mstore\n      0x20\n      add\n      0x00\n      keccak256\n        /* \"contracts/BikeRental.sol\":1397:1422  bikes[bikeId].rentedUntil */\n      0x03\n      add\n        /* \"contracts/BikeRental.sol\":1397:1457  bikes[bikeId].rentedUntil = block.timestamp + rentalDuration */\n      dup2\n      swap1\n      sstore\n      pop\n        /* \"contracts/BikeRental.sol\":1478:1488  msg.sender */\n      caller\n        /* \"contracts/BikeRental.sol\":1473:1535  Rent(msg.sender, msg.value, bikeId, bikes[bikeId].rentedUntil) */\n      0xffffffffffffffffffffffffffffffffffffffff\n      and\n      0xcdebf885a8d6b40fb0883b31fdbee6a8b4fadc5ddef539ac0ff90c104046f8a8\n        /* \"contracts/BikeRental.sol\":1490:1499  msg.value */\n      callvalue\n        /* \"contracts/BikeRental.sol\":1501:1507  bikeId */\n      dup6\n        /* \"contracts/BikeRental.sol\":1509:1514  bikes */\n      0x02\n        /* \"contracts/BikeRental.sol\":1509:1522  bikes[bikeId] */\n      0x00\n        /* \"contracts/BikeRental.sol\":1515:1521  bikeId */\n      dup9\n        /* \"contracts/BikeRental.sol\":1509:1522  bikes[bikeId] */\n      dup2\n      mstore\n      0x20\n      add\n      swap1\n      dup2\n      mstore\n      0x20\n      add\n      0x00\n      keccak256\n        /* \"contracts/BikeRental.sol\":1509:1534  bikes[bikeId].rentedUntil */\n      0x03\n      add\n      sload\n        /* \"contracts/BikeRental.sol\":1473:1535  Rent(msg.sender, msg.value, bikeId, bikes[bikeId].rentedUntil) */\n      mload(0x40)\n      tag_87\n      swap4\n      swap3\n      swap2\n      swap1\n      tag_88\n      jump\t// in\n    tag_87:\n      mload(0x40)\n      dup1\n      swap2\n      sub\n      swap1\n      log2\n        /* \"contracts/BikeRental.sol\":1081:1082  _ */\n      pop\n        /* \"contracts/BikeRental.sol\":1245:1543  function rentBike(uint256 bikeId) external payable onlyAvailable(bikeId) costs(rentalPrice) {... */\n      pop\n      pop\n      jump\t// out\n        /* \"contracts/BikeRental.sol\":112:140  address payable public owner */\n    tag_42:\n      0x00\n      dup1\n      sload\n      swap1\n      0x0100\n      exp\n      swap1\n      div\n      0xffffffffffffffffffffffffffffffffffffffff\n      and\n      dup2\n      jump\t// out\n        /* \"contracts/BikeRental.sol\":1551:1817  function returnBike(uint256 bikeId) external {... */\n    tag_48:\n        /* \"contracts/BikeRental.sol\":1634:1639  bikes */\n      0x02\n        /* \"contracts/BikeRental.sol\":1634:1647  bikes[bikeId] */\n      0x00\n        /* \"contracts/BikeRental.sol\":1640:1646  bikeId */\n      dup3\n        /* \"contracts/BikeRental.sol\":1634:1647  bikes[bikeId] */\n      dup2\n      mstore\n      0x20\n      add\n      swap1\n      dup2\n      mstore\n      0x20\n      add\n      0x00\n      keccak256\n        /* \"contracts/BikeRental.sol\":1634:1659  bikes[bikeId].rentedUntil */\n      0x03\n      add\n      sload\n        /* \"contracts/BikeRental.sol\":1615:1630  block.timestamp */\n      timestamp\n        /* \"contracts/BikeRental.sol\":1615:1659  block.timestamp >= bikes[bikeId].rentedUntil */\n      lt\n      iszero\n        /* \"contracts/BikeRental.sol\":1607:1685  require(block.timestamp >= bikes[bikeId].rentedUntil, \"Bike is still rented!\") */\n      tag_90\n      jumpi\n      mload(0x40)\n      0x08c379a000000000000000000000000000000000000000000000000000000000\n      dup2\n      mstore\n      0x04\n      add\n      tag_91\n      swap1\n      tag_92\n      jump\t// in\n    tag_91:\n      mload(0x40)\n      dup1\n      swap2\n      sub\n      swap1\n      revert\n    tag_90:\n        /* \"contracts/BikeRental.sol\":1721:1739  Statuses.Available */\n      0x00\n        /* \"contracts/BikeRental.sol\":1698:1703  bikes */\n      0x02\n        /* \"contracts/BikeRental.sol\":1698:1711  bikes[bikeId] */\n      0x00\n        /* \"contracts/BikeRental.sol\":1704:1710  bikeId */\n      dup4\n        /* \"contracts/BikeRental.sol\":1698:1711  bikes[bikeId] */\n      dup2\n      mstore\n      0x20\n      add\n      swap1\n      dup2\n      mstore\n      0x20\n      add\n      0x00\n      keccak256\n        /* \"contracts/BikeRental.sol\":1698:1718  bikes[bikeId].status */\n      0x02\n      add\n      0x00\n        /* \"contracts/BikeRental.sol\":1698:1739  bikes[bikeId].status = Statuses.Available */\n      0x0100\n      exp\n      dup2\n      sload\n      dup2\n      0xff\n      mul\n      not\n      and\n      swap1\n      dup4\n      0x01\n      dup2\n      gt\n      iszero\n      tag_93\n      jumpi\n      tag_94\n      tag_52\n      jump\t// in\n    tag_94:\n    tag_93:\n      mul\n      or\n      swap1\n      sstore\n      pop\n        /* \"contracts/BikeRental.sol\":1778:1779  0 */\n      0x00\n        /* \"contracts/BikeRental.sol\":1750:1755  bikes */\n      0x02\n        /* \"contracts/BikeRental.sol\":1750:1763  bikes[bikeId] */\n      0x00\n        /* \"contracts/BikeRental.sol\":1756:1762  bikeId */\n      dup4\n        /* \"contracts/BikeRental.sol\":1750:1763  bikes[bikeId] */\n      dup2\n      mstore\n      0x20\n      add\n      swap1\n      dup2\n      mstore\n      0x20\n      add\n      0x00\n      keccak256\n        /* \"contracts/BikeRental.sol\":1750:1775  bikes[bikeId].rentedUntil */\n      0x03\n      add\n        /* \"contracts/BikeRental.sol\":1750:1779  bikes[bikeId].rentedUntil = 0 */\n      dup2\n      swap1\n      sstore\n      pop\n        /* \"contracts/BikeRental.sol\":1795:1809  Return(bikeId) */\n      0x336bea1cd71b6fced353b888a0beae82acd2a0b7a3c283407f4b79af29cfa7ab\n        /* \"contracts/BikeRental.sol\":1802:1808  bikeId */\n      dup2\n        /* \"contracts/BikeRental.sol\":1795:1809  Return(bikeId) */\n      mload(0x40)\n      tag_95\n      swap2\n      swap1\n      tag_15\n      jump\t// in\n    tag_95:\n      mload(0x40)\n      dup1\n      swap2\n      sub\n      swap1\n      log1\n        /* \"contracts/BikeRental.sol\":1551:1817  function returnBike(uint256 bikeId) external {... */\n      pop\n      jump\t// out\n        /* \"#utility.yul\":7:84   */\n    tag_96:\n        /* \"#utility.yul\":44:51   */\n      0x00\n        /* \"#utility.yul\":73:78   */\n      dup2\n        /* \"#utility.yul\":62:78   */\n      swap1\n      pop\n        /* \"#utility.yul\":7:84   */\n      swap2\n      swap1\n      pop\n      jump\t// out\n        /* \"#utility.yul\":90:208   */\n    tag_97:\n        /* \"#utility.yul\":177:201   */\n      tag_128\n        /* \"#utility.yul\":195:200   */\n      dup2\n        /* \"#utility.yul\":177:201   */\n      tag_96\n      jump\t// in\n    tag_128:\n        /* \"#utility.yul\":172:175   */\n      dup3\n        /* \"#utility.yul\":165:202   */\n      mstore\n        /* \"#utility.yul\":90:208   */\n      pop\n      pop\n      jump\t// out\n        /* \"#utility.yul\":214:436   */\n    tag_15:\n        /* \"#utility.yul\":307:311   */\n      0x00\n        /* \"#utility.yul\":345:347   */\n      0x20\n        /* \"#utility.yul\":334:343   */\n      dup3\n        /* \"#utility.yul\":330:348   */\n      add\n        /* \"#utility.yul\":322:348   */\n      swap1\n      pop\n        /* \"#utility.yul\":358:429   */\n      tag_130\n        /* \"#utility.yul\":426:427   */\n      0x00\n        /* \"#utility.yul\":415:424   */\n      dup4\n        /* \"#utility.yul\":411:428   */\n      add\n        /* \"#utility.yul\":402:408   */\n      dup5\n        /* \"#utility.yul\":358:429   */\n      tag_97\n      jump\t// in\n    tag_130:\n        /* \"#utility.yul\":214:436   */\n      swap3\n      swap2\n      pop\n      pop\n      jump\t// out\n        /* \"#utility.yul\":523:640   */\n    tag_99:\n        /* \"#utility.yul\":632:633   */\n      0x00\n        /* \"#utility.yul\":629:630   */\n      dup1\n        /* \"#utility.yul\":622:634   */\n      revert\n        /* \"#utility.yul\":769:891   */\n    tag_101:\n        /* \"#utility.yul\":842:866   */\n      tag_135\n        /* \"#utility.yul\":860:865   */\n      dup2\n        /* \"#utility.yul\":842:866   */\n      tag_96\n      jump\t// in\n    tag_135:\n        /* \"#utility.yul\":835:840   */\n      dup2\n        /* \"#utility.yul\":832:867   */\n      eq\n        /* \"#utility.yul\":822:885   */\n      tag_136\n      jumpi\n        /* \"#utility.yul\":881:882   */\n      0x00\n        /* \"#utility.yul\":878:879   */\n      dup1\n        /* \"#utility.yul\":871:883   */\n      revert\n        /* \"#utility.yul\":822:885   */\n    tag_136:\n        /* \"#utility.yul\":769:891   */\n      pop\n      jump\t// out\n        /* \"#utility.yul\":897:1036   */\n    tag_102:\n        /* \"#utility.yul\":943:948   */\n      0x00\n        /* \"#utility.yul\":981:987   */\n      dup2\n        /* \"#utility.yul\":968:988   */\n      calldataload\n        /* \"#utility.yul\":959:988   */\n      swap1\n      pop\n        /* \"#utility.yul\":997:1030   */\n      tag_138\n        /* \"#utility.yul\":1024:1029   */\n      dup2\n        /* \"#utility.yul\":997:1030   */\n      tag_101\n      jump\t// in\n    tag_138:\n        /* \"#utility.yul\":897:1036   */\n      swap3\n      swap2\n      pop\n      pop\n      jump\t// out\n        /* \"#utility.yul\":1042:1371   */\n    tag_19:\n        /* \"#utility.yul\":1101:1107   */\n      0x00\n        /* \"#utility.yul\":1150:1152   */\n      0x20\n        /* \"#utility.yul\":1138:1147   */\n      dup3\n        /* \"#utility.yul\":1129:1136   */\n      dup5\n        /* \"#utility.yul\":1125:1148   */\n      sub\n        /* \"#utility.yul\":1121:1153   */\n      slt\n        /* \"#utility.yul\":1118:1237   */\n      iszero\n      tag_140\n      jumpi\n        /* \"#utility.yul\":1156:1235   */\n      tag_141\n      tag_99\n      jump\t// in\n    tag_141:\n        /* \"#utility.yul\":1118:1237   */\n    tag_140:\n        /* \"#utility.yul\":1276:1277   */\n      0x00\n        /* \"#utility.yul\":1301:1354   */\n      tag_142\n        /* \"#utility.yul\":1346:1353   */\n      dup5\n        /* \"#utility.yul\":1337:1343   */\n      dup3\n        /* \"#utility.yul\":1326:1335   */\n      dup6\n        /* \"#utility.yul\":1322:1344   */\n      add\n        /* \"#utility.yul\":1301:1354   */\n      tag_102\n      jump\t// in\n    tag_142:\n        /* \"#utility.yul\":1291:1354   */\n      swap2\n      pop\n        /* \"#utility.yul\":1247:1364   */\n      pop\n        /* \"#utility.yul\":1042:1371   */\n      swap3\n      swap2\n      pop\n      pop\n      jump\t// out\n        /* \"#utility.yul\":1377:1476   */\n    tag_103:\n        /* \"#utility.yul\":1429:1435   */\n      0x00\n        /* \"#utility.yul\":1463:1468   */\n      dup2\n        /* \"#utility.yul\":1457:1469   */\n      mload\n        /* \"#utility.yul\":1447:1469   */\n      swap1\n      pop\n        /* \"#utility.yul\":1377:1476   */\n      swap2\n      swap1\n      pop\n      jump\t// out\n        /* \"#utility.yul\":1482:1651   */\n    tag_104:\n        /* \"#utility.yul\":1566:1577   */\n      0x00\n        /* \"#utility.yul\":1600:1606   */\n      dup3\n        /* \"#utility.yul\":1595:1598   */\n      dup3\n        /* \"#utility.yul\":1588:1607   */\n      mstore\n        /* \"#utility.yul\":1640:1644   */\n      0x20\n        /* \"#utility.yul\":1635:1638   */\n      dup3\n        /* \"#utility.yul\":1631:1645   */\n      add\n        /* \"#utility.yul\":1616:1645   */\n      swap1\n      pop\n        /* \"#utility.yul\":1482:1651   */\n      swap3\n      swap2\n      pop\n      pop\n      jump\t// out\n        /* \"#utility.yul\":1657:1796   */\n    tag_105:\n        /* \"#utility.yul\":1746:1752   */\n      dup3\n        /* \"#utility.yul\":1741:1744   */\n      dup2\n        /* \"#utility.yul\":1736:1739   */\n      dup4\n        /* \"#utility.yul\":1730:1753   */\n      mcopy\n        /* \"#utility.yul\":1787:1788   */\n      0x00\n        /* \"#utility.yul\":1778:1784   */\n      dup4\n        /* \"#utility.yul\":1773:1776   */\n      dup4\n        /* \"#utility.yul\":1769:1785   */\n      add\n        /* \"#utility.yul\":1762:1789   */\n      mstore\n        /* \"#utility.yul\":1657:1796   */\n      pop\n      pop\n      pop\n      jump\t// out\n        /* \"#utility.yul\":1802:1904   */\n    tag_106:\n        /* \"#utility.yul\":1843:1849   */\n      0x00\n        /* \"#utility.yul\":1894:1896   */\n      0x1f\n        /* \"#utility.yul\":1890:1897   */\n      not\n        /* \"#utility.yul\":1885:1887   */\n      0x1f\n        /* \"#utility.yul\":1878:1883   */\n      dup4\n        /* \"#utility.yul\":1874:1888   */\n      add\n        /* \"#utility.yul\":1870:1898   */\n      and\n        /* \"#utility.yul\":1860:1898   */\n      swap1\n      pop\n        /* \"#utility.yul\":1802:1904   */\n      swap2\n      swap1\n      pop\n      jump\t// out\n        /* \"#utility.yul\":1910:2287   */\n    tag_107:\n        /* \"#utility.yul\":1998:2001   */\n      0x00\n        /* \"#utility.yul\":2026:2065   */\n      tag_148\n        /* \"#utility.yul\":2059:2064   */\n      dup3\n        /* \"#utility.yul\":2026:2065   */\n      tag_103\n      jump\t// in\n    tag_148:\n        /* \"#utility.yul\":2081:2152   */\n      tag_149\n        /* \"#utility.yul\":2145:2151   */\n      dup2\n        /* \"#utility.yul\":2140:2143   */\n      dup6\n        /* \"#utility.yul\":2081:2152   */\n      tag_104\n      jump\t// in\n    tag_149:\n        /* \"#utility.yul\":2074:2152   */\n      swap4\n      pop\n        /* \"#utility.yul\":2161:2226   */\n      tag_150\n        /* \"#utility.yul\":2219:2225   */\n      dup2\n        /* \"#utility.yul\":2214:2217   */\n      dup6\n        /* \"#utility.yul\":2207:2211   */\n      0x20\n        /* \"#utility.yul\":2200:2205   */\n      dup7\n        /* \"#utility.yul\":2196:2212   */\n      add\n        /* \"#utility.yul\":2161:2226   */\n      tag_105\n      jump\t// in\n    tag_150:\n        /* \"#utility.yul\":2251:2280   */\n      tag_151\n        /* \"#utility.yul\":2273:2279   */\n      dup2\n        /* \"#utility.yul\":2251:2280   */\n      tag_106\n      jump\t// in\n    tag_151:\n        /* \"#utility.yul\":2246:2249   */\n      dup5\n        /* \"#utility.yul\":2242:2281   */\n      add\n        /* \"#utility.yul\":2235:2281   */\n      swap2\n      pop\n        /* \"#utility.yul\":2002:2287   */\n      pop\n        /* \"#utility.yul\":1910:2287   */\n      swap3\n      swap2\n      pop\n      pop\n      jump\t// out\n        /* \"#utility.yul\":2293:2473   */\n    tag_52:\n        /* \"#utility.yul\":2341:2418   */\n      0x4e487b7100000000000000000000000000000000000000000000000000000000\n        /* \"#utility.yul\":2338:2339   */\n      0x00\n        /* \"#utility.yul\":2331:2419   */\n      mstore\n        /* \"#utility.yul\":2438:2442   */\n      0x21\n        /* \"#utility.yul\":2435:2436   */\n      0x04\n        /* \"#utility.yul\":2428:2443   */\n      mstore\n        /* \"#utility.yul\":2462:2466   */\n      0x24\n        /* \"#utility.yul\":2459:2460   */\n      0x00\n        /* \"#utility.yul\":2452:2467   */\n      revert\n        /* \"#utility.yul\":2479:2595   */\n    tag_108:\n        /* \"#utility.yul\":2563:2564   */\n      0x02\n        /* \"#utility.yul\":2556:2561   */\n      dup2\n        /* \"#utility.yul\":2553:2565   */\n      lt\n        /* \"#utility.yul\":2543:2589   */\n      tag_154\n      jumpi\n        /* \"#utility.yul\":2569:2587   */\n      tag_155\n      tag_52\n      jump\t// in\n    tag_155:\n        /* \"#utility.yul\":2543:2589   */\n    tag_154:\n        /* \"#utility.yul\":2479:2595   */\n      pop\n      jump\t// out\n        /* \"#utility.yul\":2601:2734   */\n    tag_109:\n        /* \"#utility.yul\":2649:2656   */\n      0x00\n        /* \"#utility.yul\":2678:2683   */\n      dup2\n        /* \"#utility.yul\":2667:2683   */\n      swap1\n      pop\n        /* \"#utility.yul\":2684:2728   */\n      tag_157\n        /* \"#utility.yul\":2722:2727   */\n      dup3\n        /* \"#utility.yul\":2684:2728   */\n      tag_108\n      jump\t// in\n    tag_157:\n        /* \"#utility.yul\":2601:2734   */\n      swap2\n      swap1\n      pop\n      jump\t// out\n        /* \"#utility.yul\":2740:2873   */\n    tag_110:\n        /* \"#utility.yul\":2799:2808   */\n      0x00\n        /* \"#utility.yul\":2832:2867   */\n      tag_159\n        /* \"#utility.yul\":2861:2866   */\n      dup3\n        /* \"#utility.yul\":2832:2867   */\n      tag_109\n      jump\t// in\n    tag_159:\n        /* \"#utility.yul\":2819:2867   */\n      swap1\n      pop\n        /* \"#utility.yul\":2740:2873   */\n      swap2\n      swap1\n      pop\n      jump\t// out\n        /* \"#utility.yul\":2879:3028   */\n    tag_111:\n        /* \"#utility.yul\":2975:3021   */\n      tag_161\n        /* \"#utility.yul\":3015:3020   */\n      dup2\n        /* \"#utility.yul\":2975:3021   */\n      tag_110\n      jump\t// in\n    tag_161:\n        /* \"#utility.yul\":2970:2973   */\n      dup3\n        /* \"#utility.yul\":2963:3022   */\n      mstore\n        /* \"#utility.yul\":2879:3028   */\n      pop\n      pop\n      jump\t// out\n        /* \"#utility.yul\":3034:3696   */\n    tag_26:\n        /* \"#utility.yul\":3240:3244   */\n      0x00\n        /* \"#utility.yul\":3278:3281   */\n      0x80\n        /* \"#utility.yul\":3267:3276   */\n      dup3\n        /* \"#utility.yul\":3263:3282   */\n      add\n        /* \"#utility.yul\":3255:3282   */\n      swap1\n      pop\n        /* \"#utility.yul\":3292:3363   */\n      tag_163\n        /* \"#utility.yul\":3360:3361   */\n      0x00\n        /* \"#utility.yul\":3349:3358   */\n      dup4\n        /* \"#utility.yul\":3345:3362   */\n      add\n        /* \"#utility.yul\":3336:3342   */\n      dup8\n        /* \"#utility.yul\":3292:3363   */\n      tag_97\n      jump\t// in\n    tag_163:\n        /* \"#utility.yul\":3410:3419   */\n      dup2\n        /* \"#utility.yul\":3404:3408   */\n      dup2\n        /* \"#utility.yul\":3400:3420   */\n      sub\n        /* \"#utility.yul\":3395:3397   */\n      0x20\n        /* \"#utility.yul\":3384:3393   */\n      dup4\n        /* \"#utility.yul\":3380:3398   */\n      add\n        /* \"#utility.yul\":3373:3421   */\n      mstore\n        /* \"#utility.yul\":3438:3516   */\n      tag_164\n        /* \"#utility.yul\":3511:3515   */\n      dup2\n        /* \"#utility.yul\":3502:3508   */\n      dup7\n        /* \"#utility.yul\":3438:3516   */\n      tag_107\n      jump\t// in\n    tag_164:\n        /* \"#utility.yul\":3430:3516   */\n      swap1\n      pop\n        /* \"#utility.yul\":3526:3607   */\n      tag_165\n        /* \"#utility.yul\":3603:3605   */\n      0x40\n        /* \"#utility.yul\":3592:3601   */\n      dup4\n        /* \"#utility.yul\":3588:3606   */\n      add\n        /* \"#utility.yul\":3579:3585   */\n      dup6\n        /* \"#utility.yul\":3526:3607   */\n      tag_111\n      jump\t// in\n    tag_165:\n        /* \"#utility.yul\":3617:3689   */\n      tag_166\n        /* \"#utility.yul\":3685:3687   */\n      0x60\n        /* \"#utility.yul\":3674:3683   */\n      dup4\n        /* \"#utility.yul\":3670:3688   */\n      add\n        /* \"#utility.yul\":3661:3667   */\n      dup5\n        /* \"#utility.yul\":3617:3689   */\n      tag_97\n      jump\t// in\n    tag_166:\n        /* \"#utility.yul\":3034:3696   */\n      swap6\n      swap5\n      pop\n      pop\n      pop\n      pop\n      pop\n      jump\t// out\n        /* \"#utility.yul\":3702:3942   */\n    tag_32:\n        /* \"#utility.yul\":3804:3808   */\n      0x00\n        /* \"#utility.yul\":3842:3844   */\n      0x20\n        /* \"#utility.yul\":3831:3840   */\n      dup3\n        /* \"#utility.yul\":3827:3845   */\n      add\n        /* \"#utility.yul\":3819:3845   */\n      swap1\n      pop\n        /* \"#utility.yul\":3855:3935   */\n      tag_168\n        /* \"#utility.yul\":3932:3933   */\n      0x00\n        /* \"#utility.yul\":3921:3930   */\n      dup4\n        /* \"#utility.yul\":3917:3934   */\n      add\n        /* \"#utility.yul\":3908:3914   */\n      dup5\n        /* \"#utility.yul\":3855:3935   */\n      tag_111\n      jump\t// in\n    tag_168:\n        /* \"#utility.yul\":3702:3942   */\n      swap3\n      swap2\n      pop\n      pop\n      jump\t// out\n        /* \"#utility.yul\":3948:4074   */\n    tag_112:\n        /* \"#utility.yul\":3985:3992   */\n      0x00\n        /* \"#utility.yul\":4025:4067   */\n      0xffffffffffffffffffffffffffffffffffffffff\n        /* \"#utility.yul\":4018:4023   */\n      dup3\n        /* \"#utility.yul\":4014:4068   */\n      and\n        /* \"#utility.yul\":4003:4068   */\n      swap1\n      pop\n        /* \"#utility.yul\":3948:4074   */\n      swap2\n      swap1\n      pop\n      jump\t// out\n        /* \"#utility.yul\":4080:4184   */\n    tag_113:\n        /* \"#utility.yul\":4125:4132   */\n      0x00\n        /* \"#utility.yul\":4154:4178   */\n      tag_171\n        /* \"#utility.yul\":4172:4177   */\n      dup3\n        /* \"#utility.yul\":4154:4178   */\n      tag_112\n      jump\t// in\n    tag_171:\n        /* \"#utility.yul\":4143:4178   */\n      swap1\n      pop\n        /* \"#utility.yul\":4080:4184   */\n      swap2\n      swap1\n      pop\n      jump\t// out\n        /* \"#utility.yul\":4190:4332   */\n    tag_114:\n        /* \"#utility.yul\":4293:4325   */\n      tag_173\n        /* \"#utility.yul\":4319:4324   */\n      dup2\n        /* \"#utility.yul\":4293:4325   */\n      tag_113\n      jump\t// in\n    tag_173:\n        /* \"#utility.yul\":4288:4291   */\n      dup3\n        /* \"#utility.yul\":4281:4326   */\n      mstore\n        /* \"#utility.yul\":4190:4332   */\n      pop\n      pop\n      jump\t// out\n        /* \"#utility.yul\":4338:4592   */\n    tag_44:\n        /* \"#utility.yul\":4447:4451   */\n      0x00\n        /* \"#utility.yul\":4485:4487   */\n      0x20\n        /* \"#utility.yul\":4474:4483   */\n      dup3\n        /* \"#utility.yul\":4470:4488   */\n      add\n        /* \"#utility.yul\":4462:4488   */\n      swap1\n      pop\n        /* \"#utility.yul\":4498:4585   */\n      tag_175\n        /* \"#utility.yul\":4582:4583   */\n      0x00\n        /* \"#utility.yul\":4571:4580   */\n      dup4\n        /* \"#utility.yul\":4567:4584   */\n      add\n        /* \"#utility.yul\":4558:4564   */\n      dup5\n        /* \"#utility.yul\":4498:4585   */\n      tag_114\n      jump\t// in\n    tag_175:\n        /* \"#utility.yul\":4338:4592   */\n      swap3\n      swap2\n      pop\n      pop\n      jump\t// out\n        /* \"#utility.yul\":4598:4767   */\n    tag_115:\n        /* \"#utility.yul\":4738:4759   */\n      0x42696b65206973206e6f742072656e7465642100000000000000000000000000\n        /* \"#utility.yul\":4734:4735   */\n      0x00\n        /* \"#utility.yul\":4726:4732   */\n      dup3\n        /* \"#utility.yul\":4722:4736   */\n      add\n        /* \"#utility.yul\":4715:4760   */\n      mstore\n        /* \"#utility.yul\":4598:4767   */\n      pop\n      jump\t// out\n        /* \"#utility.yul\":4773:5139   */\n    tag_116:\n        /* \"#utility.yul\":4915:4918   */\n      0x00\n        /* \"#utility.yul\":4936:5003   */\n      tag_178\n        /* \"#utility.yul\":5000:5002   */\n      0x13\n        /* \"#utility.yul\":4995:4998   */\n      dup4\n        /* \"#utility.yul\":4936:5003   */\n      tag_104\n      jump\t// in\n    tag_178:\n        /* \"#utility.yul\":4929:5003   */\n      swap2\n      pop\n        /* \"#utility.yul\":5012:5105   */\n      tag_179\n        /* \"#utility.yul\":5101:5104   */\n      dup3\n        /* \"#utility.yul\":5012:5105   */\n      tag_115\n      jump\t// in\n    tag_179:\n        /* \"#utility.yul\":5130:5132   */\n      0x20\n        /* \"#utility.yul\":5125:5128   */\n      dup3\n        /* \"#utility.yul\":5121:5133   */\n      add\n        /* \"#utility.yul\":5114:5133   */\n      swap1\n      pop\n        /* \"#utility.yul\":4773:5139   */\n      swap2\n      swap1\n      pop\n      jump\t// out\n        /* \"#utility.yul\":5145:5564   */\n    tag_57:\n        /* \"#utility.yul\":5311:5315   */\n      0x00\n        /* \"#utility.yul\":5349:5351   */\n      0x20\n        /* \"#utility.yul\":5338:5347   */\n      dup3\n        /* \"#utility.yul\":5334:5352   */\n      add\n        /* \"#utility.yul\":5326:5352   */\n      swap1\n      pop\n        /* \"#utility.yul\":5398:5407   */\n      dup2\n        /* \"#utility.yul\":5392:5396   */\n      dup2\n        /* \"#utility.yul\":5388:5408   */\n      sub\n        /* \"#utility.yul\":5384:5385   */\n      0x00\n        /* \"#utility.yul\":5373:5382   */\n      dup4\n        /* \"#utility.yul\":5369:5386   */\n      add\n        /* \"#utility.yul\":5362:5409   */\n      mstore\n        /* \"#utility.yul\":5426:5557   */\n      tag_181\n        /* \"#utility.yul\":5552:5556   */\n      dup2\n        /* \"#utility.yul\":5426:5557   */\n      tag_116\n      jump\t// in\n    tag_181:\n        /* \"#utility.yul\":5418:5557   */\n      swap1\n      pop\n        /* \"#utility.yul\":5145:5564   */\n      swap2\n      swap1\n      pop\n      jump\t// out\n        /* \"#utility.yul\":5570:5750   */\n    tag_117:\n        /* \"#utility.yul\":5618:5695   */\n      0x4e487b7100000000000000000000000000000000000000000000000000000000\n        /* \"#utility.yul\":5615:5616   */\n      0x00\n        /* \"#utility.yul\":5608:5696   */\n      mstore\n        /* \"#utility.yul\":5715:5719   */\n      0x22\n        /* \"#utility.yul\":5712:5713   */\n      0x04\n        /* \"#utility.yul\":5705:5720   */\n      mstore\n        /* \"#utility.yul\":5739:5743   */\n      0x24\n        /* \"#utility.yul\":5736:5737   */\n      0x00\n        /* \"#utility.yul\":5729:5744   */\n      revert\n        /* \"#utility.yul\":5756:6076   */\n    tag_64:\n        /* \"#utility.yul\":5800:5806   */\n      0x00\n        /* \"#utility.yul\":5837:5838   */\n      0x02\n        /* \"#utility.yul\":5831:5835   */\n      dup3\n        /* \"#utility.yul\":5827:5839   */\n      div\n        /* \"#utility.yul\":5817:5839   */\n      swap1\n      pop\n        /* \"#utility.yul\":5884:5885   */\n      0x01\n        /* \"#utility.yul\":5878:5882   */\n      dup3\n        /* \"#utility.yul\":5874:5886   */\n      and\n        /* \"#utility.yul\":5905:5923   */\n      dup1\n        /* \"#utility.yul\":5895:5976   */\n      tag_184\n      jumpi\n        /* \"#utility.yul\":5961:5965   */\n      0x7f\n        /* \"#utility.yul\":5953:5959   */\n      dup3\n        /* \"#utility.yul\":5949:5966   */\n      and\n        /* \"#utility.yul\":5939:5966   */\n      swap2\n      pop\n        /* \"#utility.yul\":5895:5976   */\n    tag_184:\n        /* \"#utility.yul\":6023:6025   */\n      0x20\n        /* \"#utility.yul\":6015:6021   */\n      dup3\n        /* \"#utility.yul\":6012:6026   */\n      lt\n        /* \"#utility.yul\":5992:6010   */\n      dup2\n        /* \"#utility.yul\":5989:6027   */\n      sub\n        /* \"#utility.yul\":5986:6070   */\n      tag_185\n      jumpi\n        /* \"#utility.yul\":6042:6060   */\n      tag_186\n      tag_117\n      jump\t// in\n    tag_186:\n        /* \"#utility.yul\":5986:6070   */\n    tag_185:\n        /* \"#utility.yul\":5807:6076   */\n      pop\n        /* \"#utility.yul\":5756:6076   */\n      swap2\n      swap1\n      pop\n      jump\t// out\n        /* \"#utility.yul\":6082:6254   */\n    tag_118:\n        /* \"#utility.yul\":6222:6246   */\n      0x42696b65206973206e6f7420617661696c61626c652100000000000000000000\n        /* \"#utility.yul\":6218:6219   */\n      0x00\n        /* \"#utility.yul\":6210:6216   */\n      dup3\n        /* \"#utility.yul\":6206:6220   */\n      add\n        /* \"#utility.yul\":6199:6247   */\n      mstore\n        /* \"#utility.yul\":6082:6254   */\n      pop\n      jump\t// out\n        /* \"#utility.yul\":6260:6626   */\n    tag_119:\n        /* \"#utility.yul\":6402:6405   */\n      0x00\n        /* \"#utility.yul\":6423:6490   */\n      tag_189\n        /* \"#utility.yul\":6487:6489   */\n      0x16\n        /* \"#utility.yul\":6482:6485   */\n      dup4\n        /* \"#utility.yul\":6423:6490   */\n      tag_104\n      jump\t// in\n    tag_189:\n        /* \"#utility.yul\":6416:6490   */\n      swap2\n      pop\n        /* \"#utility.yul\":6499:6592   */\n      tag_190\n        /* \"#utility.yul\":6588:6591   */\n      dup3\n        /* \"#utility.yul\":6499:6592   */\n      tag_118\n      jump\t// in\n    tag_190:\n        /* \"#utility.yul\":6617:6619   */\n      0x20\n        /* \"#utility.yul\":6612:6615   */\n      dup3\n        /* \"#utility.yul\":6608:6620   */\n      add\n        /* \"#utility.yul\":6601:6620   */\n      swap1\n      pop\n        /* \"#utility.yul\":6260:6626   */\n      swap2\n      swap1\n      pop\n      jump\t// out\n        /* \"#utility.yul\":6632:7051   */\n    tag_77:\n        /* \"#utility.yul\":6798:6802   */\n      0x00\n        /* \"#utility.yul\":6836:6838   */\n      0x20\n        /* \"#utility.yul\":6825:6834   */\n      dup3\n        /* \"#utility.yul\":6821:6839   */\n      add\n        /* \"#utility.yul\":6813:6839   */\n      swap1\n      pop\n        /* \"#utility.yul\":6885:6894   */\n      dup2\n        /* \"#utility.yul\":6879:6883   */\n      dup2\n        /* \"#utility.yul\":6875:6895   */\n      sub\n        /* \"#utility.yul\":6871:6872   */\n      0x00\n        /* \"#utility.yul\":6860:6869   */\n      dup4\n        /* \"#utility.yul\":6856:6873   */\n      add\n        /* \"#utility.yul\":6849:6896   */\n      mstore\n        /* \"#utility.yul\":6913:7044   */\n      tag_192\n        /* \"#utility.yul\":7039:7043   */\n      dup2\n        /* \"#utility.yul\":6913:7044   */\n      tag_119\n      jump\t// in\n    tag_192:\n        /* \"#utility.yul\":6905:7044   */\n      swap1\n      pop\n        /* \"#utility.yul\":6632:7051   */\n      swap2\n      swap1\n      pop\n      jump\t// out\n        /* \"#utility.yul\":7057:7226   */\n    tag_120:\n        /* \"#utility.yul\":7197:7218   */\n      0x496e73756666696369656e742066756e64732100000000000000000000000000\n        /* \"#utility.yul\":7193:7194   */\n      0x00\n        /* \"#utility.yul\":7185:7191   */\n      dup3\n        /* \"#utility.yul\":7181:7195   */\n      add\n        /* \"#utility.yul\":7174:7219   */\n      mstore\n        /* \"#utility.yul\":7057:7226   */\n      pop\n      jump\t// out\n        /* \"#utility.yul\":7232:7598   */\n    tag_121:\n        /* \"#utility.yul\":7374:7377   */\n      0x00\n        /* \"#utility.yul\":7395:7462   */\n      tag_195\n        /* \"#utility.yul\":7459:7461   */\n      0x13\n        /* \"#utility.yul\":7454:7457   */\n      dup4\n        /* \"#utility.yul\":7395:7462   */\n      tag_104\n      jump\t// in\n    tag_195:\n        /* \"#utility.yul\":7388:7462   */\n      swap2\n      pop\n        /* \"#utility.yul\":7471:7564   */\n      tag_196\n        /* \"#utility.yul\":7560:7563   */\n      dup3\n        /* \"#utility.yul\":7471:7564   */\n      tag_120\n      jump\t// in\n    tag_196:\n        /* \"#utility.yul\":7589:7591   */\n      0x20\n        /* \"#utility.yul\":7584:7587   */\n      dup3\n        /* \"#utility.yul\":7580:7592   */\n      add\n        /* \"#utility.yul\":7573:7592   */\n      swap1\n      pop\n        /* \"#utility.yul\":7232:7598   */\n      swap2\n      swap1\n      pop\n      jump\t// out\n        /* \"#utility.yul\":7604:8023   */\n    tag_81:\n        /* \"#utility.yul\":7770:7774   */\n      0x00\n        /* \"#utility.yul\":7808:7810   */\n      0x20\n        /* \"#utility.yul\":7797:7806   */\n      dup3\n        /* \"#utility.yul\":7793:7811   */\n      add\n        /* \"#utility.yul\":7785:7811   */\n      swap1\n      pop\n        /* \"#utility.yul\":7857:7866   */\n      dup2\n        /* \"#utility.yul\":7851:7855   */\n      dup2\n        /* \"#utility.yul\":7847:7867   */\n      sub\n        /* \"#utility.yul\":7843:7844   */\n      0x00\n        /* \"#utility.yul\":7832:7841   */\n      dup4\n        /* \"#utility.yul\":7828:7845   */\n      add\n        /* \"#utility.yul\":7821:7868   */\n      mstore\n        /* \"#utility.yul\":7885:8016   */\n      tag_198\n        /* \"#utility.yul\":8011:8015   */\n      dup2\n        /* \"#utility.yul\":7885:8016   */\n      tag_121\n      jump\t// in\n    tag_198:\n        /* \"#utility.yul\":7877:8016   */\n      swap1\n      pop\n        /* \"#utility.yul\":7604:8023   */\n      swap2\n      swap1\n      pop\n      jump\t// out\n        /* \"#utility.yul\":8029:8209   */\n    tag_122:\n        /* \"#utility.yul\":8077:8154   */\n      0x4e487b7100000000000000000000000000000000000000000000000000000000\n        /* \"#utility.yul\":8074:8075   */\n      0x00\n        /* \"#utility.yul\":8067:8155   */\n      mstore\n        /* \"#utility.yul\":8174:8178   */\n      0x11\n        /* \"#utility.yul\":8171:8172   */\n      0x04\n        /* \"#utility.yul\":8164:8179   */\n      mstore\n        /* \"#utility.yul\":8198:8202   */\n      0x24\n        /* \"#utility.yul\":8195:8196   */\n      0x00\n        /* \"#utility.yul\":8188:8203   */\n      revert\n        /* \"#utility.yul\":8215:8406   */\n    tag_86:\n        /* \"#utility.yul\":8255:8258   */\n      0x00\n        /* \"#utility.yul\":8274:8294   */\n      tag_201\n        /* \"#utility.yul\":8292:8293   */\n      dup3\n        /* \"#utility.yul\":8274:8294   */\n      tag_96\n      jump\t// in\n    tag_201:\n        /* \"#utility.yul\":8269:8294   */\n      swap2\n      pop\n        /* \"#utility.yul\":8308:8328   */\n      tag_202\n        /* \"#utility.yul\":8326:8327   */\n      dup4\n        /* \"#utility.yul\":8308:8328   */\n      tag_96\n      jump\t// in\n    tag_202:\n        /* \"#utility.yul\":8303:8328   */\n      swap3\n      pop\n        /* \"#utility.yul\":8351:8352   */\n      dup3\n        /* \"#utility.yul\":8348:8349   */\n      dup3\n        /* \"#utility.yul\":8344:8353   */\n      add\n        /* \"#utility.yul\":8337:8353   */\n      swap1\n      pop\n        /* \"#utility.yul\":8372:8375   */\n      dup1\n        /* \"#utility.yul\":8369:8370   */\n      dup3\n        /* \"#utility.yul\":8366:8376   */\n      gt\n        /* \"#utility.yul\":8363:8399   */\n      iszero\n      tag_203\n      jumpi\n        /* \"#utility.yul\":8379:8397   */\n      tag_204\n      tag_122\n      jump\t// in\n    tag_204:\n        /* \"#utility.yul\":8363:8399   */\n    tag_203:\n        /* \"#utility.yul\":8215:8406   */\n      swap3\n      swap2\n      pop\n      pop\n      jump\t// out\n        /* \"#utility.yul\":8412:8854   */\n    tag_88:\n        /* \"#utility.yul\":8561:8565   */\n      0x00\n        /* \"#utility.yul\":8599:8601   */\n      0x60\n        /* \"#utility.yul\":8588:8597   */\n      dup3\n        /* \"#utility.yul\":8584:8602   */\n      add\n        /* \"#utility.yul\":8576:8602   */\n      swap1\n      pop\n        /* \"#utility.yul\":8612:8683   */\n      tag_206\n        /* \"#utility.yul\":8680:8681   */\n      0x00\n        /* \"#utility.yul\":8669:8678   */\n      dup4\n        /* \"#utility.yul\":8665:8682   */\n      add\n        /* \"#utility.yul\":8656:8662   */\n      dup7\n        /* \"#utility.yul\":8612:8683   */\n      tag_97\n      jump\t// in\n    tag_206:\n        /* \"#utility.yul\":8693:8765   */\n      tag_207\n        /* \"#utility.yul\":8761:8763   */\n      0x20\n        /* \"#utility.yul\":8750:8759   */\n      dup4\n        /* \"#utility.yul\":8746:8764   */\n      add\n        /* \"#utility.yul\":8737:8743   */\n      dup6\n        /* \"#utility.yul\":8693:8765   */\n      tag_97\n      jump\t// in\n    tag_207:\n        /* \"#utility.yul\":8775:8847   */\n      tag_208\n        /* \"#utility.yul\":8843:8845   */\n      0x40\n        /* \"#utility.yul\":8832:8841   */\n      dup4\n        /* \"#utility.yul\":8828:8846   */\n      add\n        /* \"#utility.yul\":8819:8825   */\n      dup5\n        /* \"#utility.yul\":8775:8847   */\n      tag_97\n      jump\t// in\n    tag_208:\n        /* \"#utility.yul\":8412:8854   */\n      swap5\n      swap4\n      pop\n      pop\n      pop\n      pop\n      jump\t// out\n        /* \"#utility.yul\":8860:9031   */\n    tag_123:\n        /* \"#utility.yul\":9000:9023   */\n      0x42696b65206973207374696c6c2072656e746564210000000000000000000000\n        /* \"#utility.yul\":8996:8997   */\n      0x00\n        /* \"#utility.yul\":8988:8994   */\n      dup3\n        /* \"#utility.yul\":8984:8998   */\n      add\n        /* \"#utility.yul\":8977:9024   */\n      mstore\n        /* \"#utility.yul\":8860:9031   */\n      pop\n      jump\t// out\n        /* \"#utility.yul\":9037:9403   */\n    tag_124:\n        /* \"#utility.yul\":9179:9182   */\n      0x00\n        /* \"#utility.yul\":9200:9267   */\n      tag_211\n        /* \"#utility.yul\":9264:9266   */\n      0x15\n        /* \"#utility.yul\":9259:9262   */\n      dup4\n        /* \"#utility.yul\":9200:9267   */\n      tag_104\n      jump\t// in\n    tag_211:\n        /* \"#utility.yul\":9193:9267   */\n      swap2\n      pop\n        /* \"#utility.yul\":9276:9369   */\n      tag_212\n        /* \"#utility.yul\":9365:9368   */\n      dup3\n        /* \"#utility.yul\":9276:9369   */\n      tag_123\n      jump\t// in\n    tag_212:\n        /* \"#utility.yul\":9394:9396   */\n      0x20\n        /* \"#utility.yul\":9389:9392   */\n      dup3\n        /* \"#utility.yul\":9385:9397   */\n      add\n        /* \"#utility.yul\":9378:9397   */\n      swap1\n      pop\n        /* \"#utility.yul\":9037:9403   */\n      swap2\n      swap1\n      pop\n      jump\t// out\n        /* \"#utility.yul\":9409:9828   */\n    tag_92:\n        /* \"#utility.yul\":9575:9579   */\n      0x00\n        /* \"#utility.yul\":9613:9615   */\n      0x20\n        /* \"#utility.yul\":9602:9611   */\n      dup3\n        /* \"#utility.yul\":9598:9616   */\n      add\n        /* \"#utility.yul\":9590:9616   */\n      swap1\n      pop\n        /* \"#utility.yul\":9662:9671   */\n      dup2\n        /* \"#utility.yul\":9656:9660   */\n      dup2\n        /* \"#utility.yul\":9652:9672   */\n      sub\n        /* \"#utility.yul\":9648:9649   */\n      0x00\n        /* \"#utility.yul\":9637:9646   */\n      dup4\n        /* \"#utility.yul\":9633:9650   */\n      add\n        /* \"#utility.yul\":9626:9673   */\n      mstore\n        /* \"#utility.yul\":9690:9821   */\n      tag_214\n        /* \"#utility.yul\":9816:9820   */\n      dup2\n        /* \"#utility.yul\":9690:9821   */\n      tag_124\n      jump\t// in\n    tag_214:\n        /* \"#utility.yul\":9682:9821   */\n      swap1\n      pop\n        /* \"#utility.yul\":9409:9828   */\n      swap2\n      swap1\n      pop\n      jump\t// out\n\n    auxdata: 0xa26469706673582212205bb2570db4ba5e0a57dd7eb5a72a1360f95d732e5e1e768e465a5aa05b29d07764736f6c634300081a0033\n}\n",
				"bytecode": {
					"linkReferences": {},
					"object": "608060405262015180600155348015610016575f80fd5b50335f806101000a81548173ffffffffffffffffffffffffffffffffffffffff021916908373ffffffffffffffffffffffffffffffffffffffff1602179055506040518060800160405280600181526020016040518060400160405280600d81526020017f4d6f756e7461696e2042696b650000000000000000000000000000000000000081525081526020015f60018111156100b6576100b5610205565b5b81526020015f81525060025f600181526020019081526020015f205f820151815f015560208201518160010190816100ee919061046c565b506040820151816002015f6101000a81548160ff0219169083600181111561011957610118610205565b5b0217905550606082015181600301559050506040518060800160405280600281526020016040518060400160405280600981526020017f526f61642042696b65000000000000000000000000000000000000000000000081525081526020015f600181111561018b5761018a610205565b5b81526020015f81525060025f600281526020019081526020015f205f820151815f015560208201518160010190816101c3919061046c565b506040820151816002015f6101000a81548160ff021916908360018111156101ee576101ed610205565b5b02179055506060820151816003015590505061053b565b7f4e487b71000000000000000000000000000000000000000000000000000000005f52602160045260245ffd5b5f81519050919050565b7f4e487b71000000000000000000000000000000000000000000000000000000005f52604160045260245ffd5b7f4e487b71000000000000000000000000000000000000000000000000000000005f52602260045260245ffd5b5f60028204905060018216806102ad57607f821691505b6020821081036102c0576102bf610269565b5b50919050565b5f819050815f5260205f209050919050565b5f6020601f8301049050919050565b5f82821b905092915050565b5f600883026103227fffffffffffffffffffffffffffffffffffffffffffffffffffffffffffffffff826102e7565b61032c86836102e7565b95508019841693508086168417925050509392505050565b5f819050919050565b5f819050919050565b5f61037061036b61036684610344565b61034d565b610344565b9050919050565b5f819050919050565b61038983610356565b61039d61039582610377565b8484546102f3565b825550505050565b5f90565b6103b16103a5565b6103bc818484610380565b505050565b5b818110156103df576103d45f826103a9565b6001810190506103c2565b5050565b601f821115610424576103f5816102c6565b6103fe846102d8565b8101602085101561040d578190505b610421610419856102d8565b8301826103c1565b50505b505050565b5f82821c905092915050565b5f6104445f1984600802610429565b1980831691505092915050565b5f61045c8383610435565b9150826002028217905092915050565b61047582610232565b67ffffffffffffffff81111561048e5761048d61023c565b5b6104988254610296565b6104a38282856103e3565b5f60209050601f8311600181146104d4575f84156104c2578287015190505b6104cc8582610451565b865550610533565b601f1984166104e2866102c6565b5f5b82811015610509578489015182556001820191506020850194506020810190506104e4565b868310156105265784890151610522601f891682610435565b8355505b6001600288020188555050505b505050505050565b610bbf806105485f395ff3fe60806040526004361061007a575f3560e01c80636eefcb1f1161004d5780636eefcb1f1461014b5780637ad8f224146101755780638da5cb5b14610191578063a56a91c5146101bb5761007a565b80631c43cd041461007e578063278ecde1146100a85780635c526e19146100d05780635ea527131461010f575b5f80fd5b348015610089575f80fd5b506100926101e3565b60405161009f91906106e7565b60405180910390f35b3480156100b3575f80fd5b506100ce60048036038101906100c9919061072e565b6101e8565b005b3480156100db575f80fd5b506100f660048036038101906100f1919061072e565b610341565b604051610106949392919061083c565b60405180910390f35b34801561011a575f80fd5b506101356004803603810190610130919061072e565b6103ff565b6040516101429190610886565b60405180910390f35b348015610156575f80fd5b5061015f610428565b60405161016c91906106e7565b60405180910390f35b61018f600480360381019061018a919061072e565b61042e565b005b34801561019c575f80fd5b506101a56105c7565b6040516101b291906108de565b60405180910390f35b3480156101c6575f80fd5b506101e160048036038101906101dc919061072e565b6105ea565b005b600281565b6001808111156101fb576101fa6107c9565b5b60025f8381526020019081526020015f206002015f9054906101000a900460ff16600181111561022e5761022d6107c9565b5b1461026e576040517f08c379a000000000000000000000000000000000000000000000000000000000815260040161026590610941565b60405180910390fd5b5f60025f8381526020019081526020015f206002015f6101000a81548160ff021916908360018111156102a4576102a36107c9565b5b02179055505f60025f8381526020019081526020015f20600301819055503373ffffffffffffffffffffffffffffffffffffffff166108fc600290811502906040515f60405180830381858888f19350505050158015610306573d5f803e3d5ffd5b507f2e1897b0591d764356194f7a795238a87c1987c7a877568e50d829d547c92b978160405161033691906106e7565b60405180910390a150565b6002602052805f5260405f205f91509050805f0154908060010180546103669061098c565b80601f01602080910402602001604051908101604052809291908181526020018280546103929061098c565b80156103dd5780601f106103b4576101008083540402835291602001916103dd565b820191905f5260205f20905b8154815290600101906020018083116103c057829003601f168201915b505050505090806002015f9054906101000a900460ff16908060030154905084565b5f60025f8381526020019081526020015f206002015f9054906101000a900460ff169050919050565b60015481565b805f6001811115610442576104416107c9565b5b60025f8381526020019081526020015f206002015f9054906101000a900460ff166001811115610475576104746107c9565b5b146104b5576040517f08c379a00000000000000000000000000000000000000000000000000000000081526004016104ac90610a06565b60405180910390fd5b6002803410156104fa576040517f08c379a00000000000000000000000000000000000000000000000000000000081526004016104f190610a6e565b60405180910390fd5b600160025f8581526020019081526020015f206002015f6101000a81548160ff02191690836001811115610531576105306107c9565b5b0217905550600154426105449190610ab9565b60025f8581526020019081526020015f20600301819055503373ffffffffffffffffffffffffffffffffffffffff167fcdebf885a8d6b40fb0883b31fdbee6a8b4fadc5ddef539ac0ff90c104046f8a8348560025f8881526020019081526020015f20600301546040516105ba93929190610aec565b60405180910390a2505050565b5f8054906101000a900473ffffffffffffffffffffffffffffffffffffffff1681565b60025f8281526020019081526020015f2060030154421015610641576040517f08c379a000000000000000000000000000000000000000000000000000000000815260040161063890610b6b565b60405180910390fd5b5f60025f8381526020019081526020015f206002015f6101000a81548160ff02191690836001811115610677576106766107c9565b5b02179055505f60025f8381526020019081526020015f20600301819055507f336bea1cd71b6fced353b888a0beae82acd2a0b7a3c283407f4b79af29cfa7ab816040516106c491906106e7565b60405180910390a150565b5f819050919050565b6106e1816106cf565b82525050565b5f6020820190506106fa5f8301846106d8565b92915050565b5f80fd5b61070d816106cf565b8114610717575f80fd5b50565b5f8135905061072881610704565b92915050565b5f6020828403121561074357610742610700565b5b5f6107508482850161071a565b91505092915050565b5f81519050919050565b5f82825260208201905092915050565b8281835e5f83830152505050565b5f601f19601f8301169050919050565b5f61079b82610759565b6107a58185610763565b93506107b5818560208601610773565b6107be81610781565b840191505092915050565b7f4e487b71000000000000000000000000000000000000000000000000000000005f52602160045260245ffd5b60028110610807576108066107c9565b5b50565b5f819050610817826107f6565b919050565b5f6108268261080a565b9050919050565b6108368161081c565b82525050565b5f60808201905061084f5f8301876106d8565b81810360208301526108618186610791565b9050610870604083018561082d565b61087d60608301846106d8565b95945050505050565b5f6020820190506108995f83018461082d565b92915050565b5f73ffffffffffffffffffffffffffffffffffffffff82169050919050565b5f6108c88261089f565b9050919050565b6108d8816108be565b82525050565b5f6020820190506108f15f8301846108cf565b92915050565b7f42696b65206973206e6f742072656e74656421000000000000000000000000005f82015250565b5f61092b601383610763565b9150610936826108f7565b602082019050919050565b5f6020820190508181035f8301526109588161091f565b9050919050565b7f4e487b71000000000000000000000000000000000000000000000000000000005f52602260045260245ffd5b5f60028204905060018216806109a357607f821691505b6020821081036109b6576109b561095f565b5b50919050565b7f42696b65206973206e6f7420617661696c61626c6521000000000000000000005f82015250565b5f6109f0601683610763565b91506109fb826109bc565b602082019050919050565b5f6020820190508181035f830152610a1d816109e4565b9050919050565b7f496e73756666696369656e742066756e647321000000000000000000000000005f82015250565b5f610a58601383610763565b9150610a6382610a24565b602082019050919050565b5f6020820190508181035f830152610a8581610a4c565b9050919050565b7f4e487b71000000000000000000000000000000000000000000000000000000005f52601160045260245ffd5b5f610ac3826106cf565b9150610ace836106cf565b9250828201905080821115610ae657610ae5610a8c565b5b92915050565b5f606082019050610aff5f8301866106d8565b610b0c60208301856106d8565b610b1960408301846106d8565b949350505050565b7f42696b65206973207374696c6c2072656e7465642100000000000000000000005f82015250565b5f610b55601583610763565b9150610b6082610b21565b602082019050919050565b5f6020820190508181035f830152610b8281610b49565b905091905056fea26469706673582212205bb2570db4ba5e0a57dd7eb5a72a1360f95d732e5e1e768e465a5aa05b29d07764736f6c634300081a0033",
					"opcodes": "PUSH1 0x80 PUSH1 0x40 MSTORE PUSH3 0x15180 PUSH1 0x1 SSTORE CALLVALUE DUP1 ISZERO PUSH2 0x16 JUMPI PUSH0 DUP1 REVERT JUMPDEST POP CALLER PUSH0 DUP1 PUSH2 0x100 EXP DUP2 SLOAD DUP2 PUSH20 0xFFFFFFFFFFFFFFFFFFFFFFFFFFFFFFFFFFFFFFFF MUL NOT AND SWAP1 DUP4 PUSH20 0xFFFFFFFFFFFFFFFFFFFFFFFFFFFFFFFFFFFFFFFF AND MUL OR SWAP1 SSTORE POP PUSH1 0x40 MLOAD DUP1 PUSH1 0x80 ADD PUSH1 0x40 MSTORE DUP1 PUSH1 0x1 DUP2 MSTORE PUSH1 0x20 ADD PUSH1 0x40 MLOAD DUP1 PUSH1 0x40 ADD PUSH1 0x40 MSTORE DUP1 PUSH1 0xD DUP2 MSTORE PUSH1 0x20 ADD PUSH32 0x4D6F756E7461696E2042696B6500000000000000000000000000000000000000 DUP2 MSTORE POP DUP2 MSTORE PUSH1 0x20 ADD PUSH0 PUSH1 0x1 DUP2 GT ISZERO PUSH2 0xB6 JUMPI PUSH2 0xB5 PUSH2 0x205 JUMP JUMPDEST JUMPDEST DUP2 MSTORE PUSH1 0x20 ADD PUSH0 DUP2 MSTORE POP PUSH1 0x2 PUSH0 PUSH1 0x1 DUP2 MSTORE PUSH1 0x20 ADD SWAP1 DUP2 MSTORE PUSH1 0x20 ADD PUSH0 KECCAK256 PUSH0 DUP3 ADD MLOAD DUP2 PUSH0 ADD SSTORE PUSH1 0x20 DUP3 ADD MLOAD DUP2 PUSH1 0x1 ADD SWAP1 DUP2 PUSH2 0xEE SWAP2 SWAP1 PUSH2 0x46C JUMP JUMPDEST POP PUSH1 0x40 DUP3 ADD MLOAD DUP2 PUSH1 0x2 ADD PUSH0 PUSH2 0x100 EXP DUP2 SLOAD DUP2 PUSH1 0xFF MUL NOT AND SWAP1 DUP4 PUSH1 0x1 DUP2 GT ISZERO PUSH2 0x119 JUMPI PUSH2 0x118 PUSH2 0x205 JUMP JUMPDEST JUMPDEST MUL OR SWAP1 SSTORE POP PUSH1 0x60 DUP3 ADD MLOAD DUP2 PUSH1 0x3 ADD SSTORE SWAP1 POP POP PUSH1 0x40 MLOAD DUP1 PUSH1 0x80 ADD PUSH1 0x40 MSTORE DUP1 PUSH1 0x2 DUP2 MSTORE PUSH1 0x20 ADD PUSH1 0x40 MLOAD DUP1 PUSH1 0x40 ADD PUSH1 0x40 MSTORE DUP1 PUSH1 0x9 DUP2 MSTORE PUSH1 0x20 ADD PUSH32 0x526F61642042696B650000000000000000000000000000000000000000000000 DUP2 MSTORE POP DUP2 MSTORE PUSH1 0x20 ADD PUSH0 PUSH1 0x1 DUP2 GT ISZERO PUSH2 0x18B JUMPI PUSH2 0x18A PUSH2 0x205 JUMP JUMPDEST JUMPDEST DUP2 MSTORE PUSH1 0x20 ADD PUSH0 DUP2 MSTORE POP PUSH1 0x2 PUSH0 PUSH1 0x2 DUP2 MSTORE PUSH1 0x20 ADD SWAP1 DUP2 MSTORE PUSH1 0x20 ADD PUSH0 KECCAK256 PUSH0 DUP3 ADD MLOAD DUP2 PUSH0 ADD SSTORE PUSH1 0x20 DUP3 ADD MLOAD DUP2 PUSH1 0x1 ADD SWAP1 DUP2 PUSH2 0x1C3 SWAP2 SWAP1 PUSH2 0x46C JUMP JUMPDEST POP PUSH1 0x40 DUP3 ADD MLOAD DUP2 PUSH1 0x2 ADD PUSH0 PUSH2 0x100 EXP DUP2 SLOAD DUP2 PUSH1 0xFF MUL NOT AND SWAP1 DUP4 PUSH1 0x1 DUP2 GT ISZERO PUSH2 0x1EE JUMPI PUSH2 0x1ED PUSH2 0x205 JUMP JUMPDEST JUMPDEST MUL OR SWAP1 SSTORE POP PUSH1 0x60 DUP3 ADD MLOAD DUP2 PUSH1 0x3 ADD SSTORE SWAP1 POP POP PUSH2 0x53B JUMP JUMPDEST PUSH32 0x4E487B7100000000000000000000000000000000000000000000000000000000 PUSH0 MSTORE PUSH1 0x21 PUSH1 0x4 MSTORE PUSH1 0x24 PUSH0 REVERT JUMPDEST PUSH0 DUP2 MLOAD SWAP1 POP SWAP2 SWAP1 POP JUMP JUMPDEST PUSH32 0x4E487B7100000000000000000000000000000000000000000000000000000000 PUSH0 MSTORE PUSH1 0x41 PUSH1 0x4 MSTORE PUSH1 0x24 PUSH0 REVERT JUMPDEST PUSH32 0x4E487B7100000000000000000000000000000000000000000000000000000000 PUSH0 MSTORE PUSH1 0x22 PUSH1 0x4 MSTORE PUSH1 0x24 PUSH0 REVERT JUMPDEST PUSH0 PUSH1 0x2 DUP3 DIV SWAP1 POP PUSH1 0x1 DUP3 AND DUP1 PUSH2 0x2AD JUMPI PUSH1 0x7F DUP3 AND SWAP2 POP JUMPDEST PUSH1 0x20 DUP3 LT DUP2 SUB PUSH2 0x2C0 JUMPI PUSH2 0x2BF PUSH2 0x269 JUMP JUMPDEST JUMPDEST POP SWAP2 SWAP1 POP JUMP JUMPDEST PUSH0 DUP2 SWAP1 POP DUP2 PUSH0 MSTORE PUSH1 0x20 PUSH0 KECCAK256 SWAP1 POP SWAP2 SWAP1 POP JUMP JUMPDEST PUSH0 PUSH1 0x20 PUSH1 0x1F DUP4 ADD DIV SWAP1 POP SWAP2 SWAP1 POP JUMP JUMPDEST PUSH0 DUP3 DUP3 SHL SWAP1 POP SWAP3 SWAP2 POP POP JUMP JUMPDEST PUSH0 PUSH1 0x8 DUP4 MUL PUSH2 0x322 PUSH32 0xFFFFFFFFFFFFFFFFFFFFFFFFFFFFFFFFFFFFFFFFFFFFFFFFFFFFFFFFFFFFFFFF DUP3 PUSH2 0x2E7 JUMP JUMPDEST PUSH2 0x32C DUP7 DUP4 PUSH2 0x2E7 JUMP JUMPDEST SWAP6 POP DUP1 NOT DUP5 AND SWAP4 POP DUP1 DUP7 AND DUP5 OR SWAP3 POP POP POP SWAP4 SWAP3 POP POP POP JUMP JUMPDEST PUSH0 DUP2 SWAP1 POP SWAP2 SWAP1 POP JUMP JUMPDEST PUSH0 DUP2 SWAP1 POP SWAP2 SWAP1 POP JUMP JUMPDEST PUSH0 PUSH2 0x370 PUSH2 0x36B PUSH2 0x366 DUP5 PUSH2 0x344 JUMP JUMPDEST PUSH2 0x34D JUMP JUMPDEST PUSH2 0x344 JUMP JUMPDEST SWAP1 POP SWAP2 SWAP1 POP JUMP JUMPDEST PUSH0 DUP2 SWAP1 POP SWAP2 SWAP1 POP JUMP JUMPDEST PUSH2 0x389 DUP4 PUSH2 0x356 JUMP JUMPDEST PUSH2 0x39D PUSH2 0x395 DUP3 PUSH2 0x377 JUMP JUMPDEST DUP5 DUP5 SLOAD PUSH2 0x2F3 JUMP JUMPDEST DUP3 SSTORE POP POP POP POP JUMP JUMPDEST PUSH0 SWAP1 JUMP JUMPDEST PUSH2 0x3B1 PUSH2 0x3A5 JUMP JUMPDEST PUSH2 0x3BC DUP2 DUP5 DUP5 PUSH2 0x380 JUMP JUMPDEST POP POP POP JUMP JUMPDEST JUMPDEST DUP2 DUP2 LT ISZERO PUSH2 0x3DF JUMPI PUSH2 0x3D4 PUSH0 DUP3 PUSH2 0x3A9 JUMP JUMPDEST PUSH1 0x1 DUP2 ADD SWAP1 POP PUSH2 0x3C2 JUMP JUMPDEST POP POP JUMP JUMPDEST PUSH1 0x1F DUP3 GT ISZERO PUSH2 0x424 JUMPI PUSH2 0x3F5 DUP2 PUSH2 0x2C6 JUMP JUMPDEST PUSH2 0x3FE DUP5 PUSH2 0x2D8 JUMP JUMPDEST DUP2 ADD PUSH1 0x20 DUP6 LT ISZERO PUSH2 0x40D JUMPI DUP2 SWAP1 POP JUMPDEST PUSH2 0x421 PUSH2 0x419 DUP6 PUSH2 0x2D8 JUMP JUMPDEST DUP4 ADD DUP3 PUSH2 0x3C1 JUMP JUMPDEST POP POP JUMPDEST POP POP POP JUMP JUMPDEST PUSH0 DUP3 DUP3 SHR SWAP1 POP SWAP3 SWAP2 POP POP JUMP JUMPDEST PUSH0 PUSH2 0x444 PUSH0 NOT DUP5 PUSH1 0x8 MUL PUSH2 0x429 JUMP JUMPDEST NOT DUP1 DUP4 AND SWAP2 POP POP SWAP3 SWAP2 POP POP JUMP JUMPDEST PUSH0 PUSH2 0x45C DUP4 DUP4 PUSH2 0x435 JUMP JUMPDEST SWAP2 POP DUP3 PUSH1 0x2 MUL DUP3 OR SWAP1 POP SWAP3 SWAP2 POP POP JUMP JUMPDEST PUSH2 0x475 DUP3 PUSH2 0x232 JUMP JUMPDEST PUSH8 0xFFFFFFFFFFFFFFFF DUP2 GT ISZERO PUSH2 0x48E JUMPI PUSH2 0x48D PUSH2 0x23C JUMP JUMPDEST JUMPDEST PUSH2 0x498 DUP3 SLOAD PUSH2 0x296 JUMP JUMPDEST PUSH2 0x4A3 DUP3 DUP3 DUP6 PUSH2 0x3E3 JUMP JUMPDEST PUSH0 PUSH1 0x20 SWAP1 POP PUSH1 0x1F DUP4 GT PUSH1 0x1 DUP2 EQ PUSH2 0x4D4 JUMPI PUSH0 DUP5 ISZERO PUSH2 0x4C2 JUMPI DUP3 DUP8 ADD MLOAD SWAP1 POP JUMPDEST PUSH2 0x4CC DUP6 DUP3 PUSH2 0x451 JUMP JUMPDEST DUP7 SSTORE POP PUSH2 0x533 JUMP JUMPDEST PUSH1 0x1F NOT DUP5 AND PUSH2 0x4E2 DUP7 PUSH2 0x2C6 JUMP JUMPDEST PUSH0 JUMPDEST DUP3 DUP2 LT ISZERO PUSH2 0x509 JUMPI DUP5 DUP10 ADD MLOAD DUP3 SSTORE PUSH1 0x1 DUP3 ADD SWAP2 POP PUSH1 0x20 DUP6 ADD SWAP5 POP PUSH1 0x20 DUP2 ADD SWAP1 POP PUSH2 0x4E4 JUMP JUMPDEST DUP7 DUP4 LT ISZERO PUSH2 0x526 JUMPI DUP5 DUP10 ADD MLOAD PUSH2 0x522 PUSH1 0x1F DUP10 AND DUP3 PUSH2 0x435 JUMP JUMPDEST DUP4 SSTORE POP JUMPDEST PUSH1 0x1 PUSH1 0x2 DUP9 MUL ADD DUP9 SSTORE POP POP POP JUMPDEST POP POP POP POP POP POP JUMP JUMPDEST PUSH2 0xBBF DUP1 PUSH2 0x548 PUSH0 CODECOPY PUSH0 RETURN INVALID PUSH1 0x80 PUSH1 0x40 MSTORE PUSH1 0x4 CALLDATASIZE LT PUSH2 0x7A JUMPI PUSH0 CALLDATALOAD PUSH1 0xE0 SHR DUP1 PUSH4 0x6EEFCB1F GT PUSH2 0x4D JUMPI DUP1 PUSH4 0x6EEFCB1F EQ PUSH2 0x14B JUMPI DUP1 PUSH4 0x7AD8F224 EQ PUSH2 0x175 JUMPI DUP1 PUSH4 0x8DA5CB5B EQ PUSH2 0x191 JUMPI DUP1 PUSH4 0xA56A91C5 EQ PUSH2 0x1BB JUMPI PUSH2 0x7A JUMP JUMPDEST DUP1 PUSH4 0x1C43CD04 EQ PUSH2 0x7E JUMPI DUP1 PUSH4 0x278ECDE1 EQ PUSH2 0xA8 JUMPI DUP1 PUSH4 0x5C526E19 EQ PUSH2 0xD0 JUMPI DUP1 PUSH4 0x5EA52713 EQ PUSH2 0x10F JUMPI JUMPDEST PUSH0 DUP1 REVERT JUMPDEST CALLVALUE DUP1 ISZERO PUSH2 0x89 JUMPI PUSH0 DUP1 REVERT JUMPDEST POP PUSH2 0x92 PUSH2 0x1E3 JUMP JUMPDEST PUSH1 0x40 MLOAD PUSH2 0x9F SWAP2 SWAP1 PUSH2 0x6E7 JUMP JUMPDEST PUSH1 0x40 MLOAD DUP1 SWAP2 SUB SWAP1 RETURN JUMPDEST CALLVALUE DUP1 ISZERO PUSH2 0xB3 JUMPI PUSH0 DUP1 REVERT JUMPDEST POP PUSH2 0xCE PUSH1 0x4 DUP1 CALLDATASIZE SUB DUP2 ADD SWAP1 PUSH2 0xC9 SWAP2 SWAP1 PUSH2 0x72E JUMP JUMPDEST PUSH2 0x1E8 JUMP JUMPDEST STOP JUMPDEST CALLVALUE DUP1 ISZERO PUSH2 0xDB JUMPI PUSH0 DUP1 REVERT JUMPDEST POP PUSH2 0xF6 PUSH1 0x4 DUP1 CALLDATASIZE SUB DUP2 ADD SWAP1 PUSH2 0xF1 SWAP2 SWAP1 PUSH2 0x72E JUMP JUMPDEST PUSH2 0x341 JUMP JUMPDEST PUSH1 0x40 MLOAD PUSH2 0x106 SWAP5 SWAP4 SWAP3 SWAP2 SWAP1 PUSH2 0x83C JUMP JUMPDEST PUSH1 0x40 MLOAD DUP1 SWAP2 SUB SWAP1 RETURN JUMPDEST CALLVALUE DUP1 ISZERO PUSH2 0x11A JUMPI PUSH0 DUP1 REVERT JUMPDEST POP PUSH2 0x135 PUSH1 0x4 DUP1 CALLDATASIZE SUB DUP2 ADD SWAP1 PUSH2 0x130 SWAP2 SWAP1 PUSH2 0x72E JUMP JUMPDEST PUSH2 0x3FF JUMP JUMPDEST PUSH1 0x40 MLOAD PUSH2 0x142 SWAP2 SWAP1 PUSH2 0x886 JUMP JUMPDEST PUSH1 0x40 MLOAD DUP1 SWAP2 SUB SWAP1 RETURN JUMPDEST CALLVALUE DUP1 ISZERO PUSH2 0x156 JUMPI PUSH0 DUP1 REVERT JUMPDEST POP PUSH2 0x15F PUSH2 0x428 JUMP JUMPDEST PUSH1 0x40 MLOAD PUSH2 0x16C SWAP2 SWAP1 PUSH2 0x6E7 JUMP JUMPDEST PUSH1 0x40 MLOAD DUP1 SWAP2 SUB SWAP1 RETURN JUMPDEST PUSH2 0x18F PUSH1 0x4 DUP1 CALLDATASIZE SUB DUP2 ADD SWAP1 PUSH2 0x18A SWAP2 SWAP1 PUSH2 0x72E JUMP JUMPDEST PUSH2 0x42E JUMP JUMPDEST STOP JUMPDEST CALLVALUE DUP1 ISZERO PUSH2 0x19C JUMPI PUSH0 DUP1 REVERT JUMPDEST POP PUSH2 0x1A5 PUSH2 0x5C7 JUMP JUMPDEST PUSH1 0x40 MLOAD PUSH2 0x1B2 SWAP2 SWAP1 PUSH2 0x8DE JUMP JUMPDEST PUSH1 0x40 MLOAD DUP1 SWAP2 SUB SWAP1 RETURN JUMPDEST CALLVALUE DUP1 ISZERO PUSH2 0x1C6 JUMPI PUSH0 DUP1 REVERT JUMPDEST POP PUSH2 0x1E1 PUSH1 0x4 DUP1 CALLDATASIZE SUB DUP2 ADD SWAP1 PUSH2 0x1DC SWAP2 SWAP1 PUSH2 0x72E JUMP JUMPDEST PUSH2 0x5EA JUMP JUMPDEST STOP JUMPDEST PUSH1 0x2 DUP2 JUMP JUMPDEST PUSH1 0x1 DUP1 DUP2 GT ISZERO PUSH2 0x1FB JUMPI PUSH2 0x1FA PUSH2 0x7C9 JUMP JUMPDEST JUMPDEST PUSH1 0x2 PUSH0 DUP4 DUP2 MSTORE PUSH1 0x20 ADD SWAP1 DUP2 MSTORE PUSH1 0x20 ADD PUSH0 KECCAK256 PUSH1 0x2 ADD PUSH0 SWAP1 SLOAD SWAP1 PUSH2 0x100 EXP SWAP1 DIV PUSH1 0xFF AND PUSH1 0x1 DUP2 GT ISZERO PUSH2 0x22E JUMPI PUSH2 0x22D PUSH2 0x7C9 JUMP JUMPDEST JUMPDEST EQ PUSH2 0x26E JUMPI PUSH1 0x40 MLOAD PUSH32 0x8C379A000000000000000000000000000000000000000000000000000000000 DUP2 MSTORE PUSH1 0x4 ADD PUSH2 0x265 SWAP1 PUSH2 0x941 JUMP JUMPDEST PUSH1 0x40 MLOAD DUP1 SWAP2 SUB SWAP1 REVERT JUMPDEST PUSH0 PUSH1 0x2 PUSH0 DUP4 DUP2 MSTORE PUSH1 0x20 ADD SWAP1 DUP2 MSTORE PUSH1 0x20 ADD PUSH0 KECCAK256 PUSH1 0x2 ADD PUSH0 PUSH2 0x100 EXP DUP2 SLOAD DUP2 PUSH1 0xFF MUL NOT AND SWAP1 DUP4 PUSH1 0x1 DUP2 GT ISZERO PUSH2 0x2A4 JUMPI PUSH2 0x2A3 PUSH2 0x7C9 JUMP JUMPDEST JUMPDEST MUL OR SWAP1 SSTORE POP PUSH0 PUSH1 0x2 PUSH0 DUP4 DUP2 MSTORE PUSH1 0x20 ADD SWAP1 DUP2 MSTORE PUSH1 0x20 ADD PUSH0 KECCAK256 PUSH1 0x3 ADD DUP2 SWAP1 SSTORE POP CALLER PUSH20 0xFFFFFFFFFFFFFFFFFFFFFFFFFFFFFFFFFFFFFFFF AND PUSH2 0x8FC PUSH1 0x2 SWAP1 DUP2 ISZERO MUL SWAP1 PUSH1 0x40 MLOAD PUSH0 PUSH1 0x40 MLOAD DUP1 DUP4 SUB DUP2 DUP6 DUP9 DUP9 CALL SWAP4 POP POP POP POP ISZERO DUP1 ISZERO PUSH2 0x306 JUMPI RETURNDATASIZE PUSH0 DUP1 RETURNDATACOPY RETURNDATASIZE PUSH0 REVERT JUMPDEST POP PUSH32 0x2E1897B0591D764356194F7A795238A87C1987C7A877568E50D829D547C92B97 DUP2 PUSH1 0x40 MLOAD PUSH2 0x336 SWAP2 SWAP1 PUSH2 0x6E7 JUMP JUMPDEST PUSH1 0x40 MLOAD DUP1 SWAP2 SUB SWAP1 LOG1 POP JUMP JUMPDEST PUSH1 0x2 PUSH1 0x20 MSTORE DUP1 PUSH0 MSTORE PUSH1 0x40 PUSH0 KECCAK256 PUSH0 SWAP2 POP SWAP1 POP DUP1 PUSH0 ADD SLOAD SWAP1 DUP1 PUSH1 0x1 ADD DUP1 SLOAD PUSH2 0x366 SWAP1 PUSH2 0x98C JUMP JUMPDEST DUP1 PUSH1 0x1F ADD PUSH1 0x20 DUP1 SWAP2 DIV MUL PUSH1 0x20 ADD PUSH1 0x40 MLOAD SWAP1 DUP2 ADD PUSH1 0x40 MSTORE DUP1 SWAP3 SWAP2 SWAP1 DUP2 DUP2 MSTORE PUSH1 0x20 ADD DUP3 DUP1 SLOAD PUSH2 0x392 SWAP1 PUSH2 0x98C JUMP JUMPDEST DUP1 ISZERO PUSH2 0x3DD JUMPI DUP1 PUSH1 0x1F LT PUSH2 0x3B4 JUMPI PUSH2 0x100 DUP1 DUP4 SLOAD DIV MUL DUP4 MSTORE SWAP2 PUSH1 0x20 ADD SWAP2 PUSH2 0x3DD JUMP JUMPDEST DUP3 ADD SWAP2 SWAP1 PUSH0 MSTORE PUSH1 0x20 PUSH0 KECCAK256 SWAP1 JUMPDEST DUP2 SLOAD DUP2 MSTORE SWAP1 PUSH1 0x1 ADD SWAP1 PUSH1 0x20 ADD DUP1 DUP4 GT PUSH2 0x3C0 JUMPI DUP3 SWAP1 SUB PUSH1 0x1F AND DUP3 ADD SWAP2 JUMPDEST POP POP POP POP POP SWAP1 DUP1 PUSH1 0x2 ADD PUSH0 SWAP1 SLOAD SWAP1 PUSH2 0x100 EXP SWAP1 DIV PUSH1 0xFF AND SWAP1 DUP1 PUSH1 0x3 ADD SLOAD SWAP1 POP DUP5 JUMP JUMPDEST PUSH0 PUSH1 0x2 PUSH0 DUP4 DUP2 MSTORE PUSH1 0x20 ADD SWAP1 DUP2 MSTORE PUSH1 0x20 ADD PUSH0 KECCAK256 PUSH1 0x2 ADD PUSH0 SWAP1 SLOAD SWAP1 PUSH2 0x100 EXP SWAP1 DIV PUSH1 0xFF AND SWAP1 POP SWAP2 SWAP1 POP JUMP JUMPDEST PUSH1 0x1 SLOAD DUP2 JUMP JUMPDEST DUP1 PUSH0 PUSH1 0x1 DUP2 GT ISZERO PUSH2 0x442 JUMPI PUSH2 0x441 PUSH2 0x7C9 JUMP JUMPDEST JUMPDEST PUSH1 0x2 PUSH0 DUP4 DUP2 MSTORE PUSH1 0x20 ADD SWAP1 DUP2 MSTORE PUSH1 0x20 ADD PUSH0 KECCAK256 PUSH1 0x2 ADD PUSH0 SWAP1 SLOAD SWAP1 PUSH2 0x100 EXP SWAP1 DIV PUSH1 0xFF AND PUSH1 0x1 DUP2 GT ISZERO PUSH2 0x475 JUMPI PUSH2 0x474 PUSH2 0x7C9 JUMP JUMPDEST JUMPDEST EQ PUSH2 0x4B5 JUMPI PUSH1 0x40 MLOAD PUSH32 0x8C379A000000000000000000000000000000000000000000000000000000000 DUP2 MSTORE PUSH1 0x4 ADD PUSH2 0x4AC SWAP1 PUSH2 0xA06 JUMP JUMPDEST PUSH1 0x40 MLOAD DUP1 SWAP2 SUB SWAP1 REVERT JUMPDEST PUSH1 0x2 DUP1 CALLVALUE LT ISZERO PUSH2 0x4FA JUMPI PUSH1 0x40 MLOAD PUSH32 0x8C379A000000000000000000000000000000000000000000000000000000000 DUP2 MSTORE PUSH1 0x4 ADD PUSH2 0x4F1 SWAP1 PUSH2 0xA6E JUMP JUMPDEST PUSH1 0x40 MLOAD DUP1 SWAP2 SUB SWAP1 REVERT JUMPDEST PUSH1 0x1 PUSH1 0x2 PUSH0 DUP6 DUP2 MSTORE PUSH1 0x20 ADD SWAP1 DUP2 MSTORE PUSH1 0x20 ADD PUSH0 KECCAK256 PUSH1 0x2 ADD PUSH0 PUSH2 0x100 EXP DUP2 SLOAD DUP2 PUSH1 0xFF MUL NOT AND SWAP1 DUP4 PUSH1 0x1 DUP2 GT ISZERO PUSH2 0x531 JUMPI PUSH2 0x530 PUSH2 0x7C9 JUMP JUMPDEST JUMPDEST MUL OR SWAP1 SSTORE POP PUSH1 0x1 SLOAD TIMESTAMP PUSH2 0x544 SWAP2 SWAP1 PUSH2 0xAB9 JUMP JUMPDEST PUSH1 0x2 PUSH0 DUP6 DUP2 MSTORE PUSH1 0x20 ADD SWAP1 DUP2 MSTORE PUSH1 0x20 ADD PUSH0 KECCAK256 PUSH1 0x3 ADD DUP2 SWAP1 SSTORE POP CALLER PUSH20 0xFFFFFFFFFFFFFFFFFFFFFFFFFFFFFFFFFFFFFFFF AND PUSH32 0xCDEBF885A8D6B40FB0883B31FDBEE6A8B4FADC5DDEF539AC0FF90C104046F8A8 CALLVALUE DUP6 PUSH1 0x2 PUSH0 DUP9 DUP2 MSTORE PUSH1 0x20 ADD SWAP1 DUP2 MSTORE PUSH1 0x20 ADD PUSH0 KECCAK256 PUSH1 0x3 ADD SLOAD PUSH1 0x40 MLOAD PUSH2 0x5BA SWAP4 SWAP3 SWAP2 SWAP1 PUSH2 0xAEC JUMP JUMPDEST PUSH1 0x40 MLOAD DUP1 SWAP2 SUB SWAP1 LOG2 POP POP POP JUMP JUMPDEST PUSH0 DUP1 SLOAD SWAP1 PUSH2 0x100 EXP SWAP1 DIV PUSH20 0xFFFFFFFFFFFFFFFFFFFFFFFFFFFFFFFFFFFFFFFF AND DUP2 JUMP JUMPDEST PUSH1 0x2 PUSH0 DUP3 DUP2 MSTORE PUSH1 0x20 ADD SWAP1 DUP2 MSTORE PUSH1 0x20 ADD PUSH0 KECCAK256 PUSH1 0x3 ADD SLOAD TIMESTAMP LT ISZERO PUSH2 0x641 JUMPI PUSH1 0x40 MLOAD PUSH32 0x8C379A000000000000000000000000000000000000000000000000000000000 DUP2 MSTORE PUSH1 0x4 ADD PUSH2 0x638 SWAP1 PUSH2 0xB6B JUMP JUMPDEST PUSH1 0x40 MLOAD DUP1 SWAP2 SUB SWAP1 REVERT JUMPDEST PUSH0 PUSH1 0x2 PUSH0 DUP4 DUP2 MSTORE PUSH1 0x20 ADD SWAP1 DUP2 MSTORE PUSH1 0x20 ADD PUSH0 KECCAK256 PUSH1 0x2 ADD PUSH0 PUSH2 0x100 EXP DUP2 SLOAD DUP2 PUSH1 0xFF MUL NOT AND SWAP1 DUP4 PUSH1 0x1 DUP2 GT ISZERO PUSH2 0x677 JUMPI PUSH2 0x676 PUSH2 0x7C9 JUMP JUMPDEST JUMPDEST MUL OR SWAP1 SSTORE POP PUSH0 PUSH1 0x2 PUSH0 DUP4 DUP2 MSTORE PUSH1 0x20 ADD SWAP1 DUP2 MSTORE PUSH1 0x20 ADD PUSH0 KECCAK256 PUSH1 0x3 ADD DUP2 SWAP1 SSTORE POP PUSH32 0x336BEA1CD71B6FCED353B888A0BEAE82ACD2A0B7A3C283407F4B79AF29CFA7AB DUP2 PUSH1 0x40 MLOAD PUSH2 0x6C4 SWAP2 SWAP1 PUSH2 0x6E7 JUMP JUMPDEST PUSH1 0x40 MLOAD DUP1 SWAP2 SUB SWAP1 LOG1 POP JUMP JUMPDEST PUSH0 DUP2 SWAP1 POP SWAP2 SWAP1 POP JUMP JUMPDEST PUSH2 0x6E1 DUP2 PUSH2 0x6CF JUMP JUMPDEST DUP3 MSTORE POP POP JUMP JUMPDEST PUSH0 PUSH1 0x20 DUP3 ADD SWAP1 POP PUSH2 0x6FA PUSH0 DUP4 ADD DUP5 PUSH2 0x6D8 JUMP JUMPDEST SWAP3 SWAP2 POP POP JUMP JUMPDEST PUSH0 DUP1 REVERT JUMPDEST PUSH2 0x70D DUP2 PUSH2 0x6CF JUMP JUMPDEST DUP2 EQ PUSH2 0x717 JUMPI PUSH0 DUP1 REVERT JUMPDEST POP JUMP JUMPDEST PUSH0 DUP2 CALLDATALOAD SWAP1 POP PUSH2 0x728 DUP2 PUSH2 0x704 JUMP JUMPDEST SWAP3 SWAP2 POP POP JUMP JUMPDEST PUSH0 PUSH1 0x20 DUP3 DUP5 SUB SLT ISZERO PUSH2 0x743 JUMPI PUSH2 0x742 PUSH2 0x700 JUMP JUMPDEST JUMPDEST PUSH0 PUSH2 0x750 DUP5 DUP3 DUP6 ADD PUSH2 0x71A JUMP JUMPDEST SWAP2 POP POP SWAP3 SWAP2 POP POP JUMP JUMPDEST PUSH0 DUP2 MLOAD SWAP1 POP SWAP2 SWAP1 POP JUMP JUMPDEST PUSH0 DUP3 DUP3 MSTORE PUSH1 0x20 DUP3 ADD SWAP1 POP SWAP3 SWAP2 POP POP JUMP JUMPDEST DUP3 DUP2 DUP4 MCOPY PUSH0 DUP4 DUP4 ADD MSTORE POP POP POP JUMP JUMPDEST PUSH0 PUSH1 0x1F NOT PUSH1 0x1F DUP4 ADD AND SWAP1 POP SWAP2 SWAP1 POP JUMP JUMPDEST PUSH0 PUSH2 0x79B DUP3 PUSH2 0x759 JUMP JUMPDEST PUSH2 0x7A5 DUP2 DUP6 PUSH2 0x763 JUMP JUMPDEST SWAP4 POP PUSH2 0x7B5 DUP2 DUP6 PUSH1 0x20 DUP7 ADD PUSH2 0x773 JUMP JUMPDEST PUSH2 0x7BE DUP2 PUSH2 0x781 JUMP JUMPDEST DUP5 ADD SWAP2 POP POP SWAP3 SWAP2 POP POP JUMP JUMPDEST PUSH32 0x4E487B7100000000000000000000000000000000000000000000000000000000 PUSH0 MSTORE PUSH1 0x21 PUSH1 0x4 MSTORE PUSH1 0x24 PUSH0 REVERT JUMPDEST PUSH1 0x2 DUP2 LT PUSH2 0x807 JUMPI PUSH2 0x806 PUSH2 0x7C9 JUMP JUMPDEST JUMPDEST POP JUMP JUMPDEST PUSH0 DUP2 SWAP1 POP PUSH2 0x817 DUP3 PUSH2 0x7F6 JUMP JUMPDEST SWAP2 SWAP1 POP JUMP JUMPDEST PUSH0 PUSH2 0x826 DUP3 PUSH2 0x80A JUMP JUMPDEST SWAP1 POP SWAP2 SWAP1 POP JUMP JUMPDEST PUSH2 0x836 DUP2 PUSH2 0x81C JUMP JUMPDEST DUP3 MSTORE POP POP JUMP JUMPDEST PUSH0 PUSH1 0x80 DUP3 ADD SWAP1 POP PUSH2 0x84F PUSH0 DUP4 ADD DUP8 PUSH2 0x6D8 JUMP JUMPDEST DUP2 DUP2 SUB PUSH1 0x20 DUP4 ADD MSTORE PUSH2 0x861 DUP2 DUP7 PUSH2 0x791 JUMP JUMPDEST SWAP1 POP PUSH2 0x870 PUSH1 0x40 DUP4 ADD DUP6 PUSH2 0x82D JUMP JUMPDEST PUSH2 0x87D PUSH1 0x60 DUP4 ADD DUP5 PUSH2 0x6D8 JUMP JUMPDEST SWAP6 SWAP5 POP POP POP POP POP JUMP JUMPDEST PUSH0 PUSH1 0x20 DUP3 ADD SWAP1 POP PUSH2 0x899 PUSH0 DUP4 ADD DUP5 PUSH2 0x82D JUMP JUMPDEST SWAP3 SWAP2 POP POP JUMP JUMPDEST PUSH0 PUSH20 0xFFFFFFFFFFFFFFFFFFFFFFFFFFFFFFFFFFFFFFFF DUP3 AND SWAP1 POP SWAP2 SWAP1 POP JUMP JUMPDEST PUSH0 PUSH2 0x8C8 DUP3 PUSH2 0x89F JUMP JUMPDEST SWAP1 POP SWAP2 SWAP1 POP JUMP JUMPDEST PUSH2 0x8D8 DUP2 PUSH2 0x8BE JUMP JUMPDEST DUP3 MSTORE POP POP JUMP JUMPDEST PUSH0 PUSH1 0x20 DUP3 ADD SWAP1 POP PUSH2 0x8F1 PUSH0 DUP4 ADD DUP5 PUSH2 0x8CF JUMP JUMPDEST SWAP3 SWAP2 POP POP JUMP JUMPDEST PUSH32 0x42696B65206973206E6F742072656E7465642100000000000000000000000000 PUSH0 DUP3 ADD MSTORE POP JUMP JUMPDEST PUSH0 PUSH2 0x92B PUSH1 0x13 DUP4 PUSH2 0x763 JUMP JUMPDEST SWAP2 POP PUSH2 0x936 DUP3 PUSH2 0x8F7 JUMP JUMPDEST PUSH1 0x20 DUP3 ADD SWAP1 POP SWAP2 SWAP1 POP JUMP JUMPDEST PUSH0 PUSH1 0x20 DUP3 ADD SWAP1 POP DUP2 DUP2 SUB PUSH0 DUP4 ADD MSTORE PUSH2 0x958 DUP2 PUSH2 0x91F JUMP JUMPDEST SWAP1 POP SWAP2 SWAP1 POP JUMP JUMPDEST PUSH32 0x4E487B7100000000000000000000000000000000000000000000000000000000 PUSH0 MSTORE PUSH1 0x22 PUSH1 0x4 MSTORE PUSH1 0x24 PUSH0 REVERT JUMPDEST PUSH0 PUSH1 0x2 DUP3 DIV SWAP1 POP PUSH1 0x1 DUP3 AND DUP1 PUSH2 0x9A3 JUMPI PUSH1 0x7F DUP3 AND SWAP2 POP JUMPDEST PUSH1 0x20 DUP3 LT DUP2 SUB PUSH2 0x9B6 JUMPI PUSH2 0x9B5 PUSH2 0x95F JUMP JUMPDEST JUMPDEST POP SWAP2 SWAP1 POP JUMP JUMPDEST PUSH32 0x42696B65206973206E6F7420617661696C61626C652100000000000000000000 PUSH0 DUP3 ADD MSTORE POP JUMP JUMPDEST PUSH0 PUSH2 0x9F0 PUSH1 0x16 DUP4 PUSH2 0x763 JUMP JUMPDEST SWAP2 POP PUSH2 0x9FB DUP3 PUSH2 0x9BC JUMP JUMPDEST PUSH1 0x20 DUP3 ADD SWAP1 POP SWAP2 SWAP1 POP JUMP JUMPDEST PUSH0 PUSH1 0x20 DUP3 ADD SWAP1 POP DUP2 DUP2 SUB PUSH0 DUP4 ADD MSTORE PUSH2 0xA1D DUP2 PUSH2 0x9E4 JUMP JUMPDEST SWAP1 POP SWAP2 SWAP1 POP JUMP JUMPDEST PUSH32 0x496E73756666696369656E742066756E64732100000000000000000000000000 PUSH0 DUP3 ADD MSTORE POP JUMP JUMPDEST PUSH0 PUSH2 0xA58 PUSH1 0x13 DUP4 PUSH2 0x763 JUMP JUMPDEST SWAP2 POP PUSH2 0xA63 DUP3 PUSH2 0xA24 JUMP JUMPDEST PUSH1 0x20 DUP3 ADD SWAP1 POP SWAP2 SWAP1 POP JUMP JUMPDEST PUSH0 PUSH1 0x20 DUP3 ADD SWAP1 POP DUP2 DUP2 SUB PUSH0 DUP4 ADD MSTORE PUSH2 0xA85 DUP2 PUSH2 0xA4C JUMP JUMPDEST SWAP1 POP SWAP2 SWAP1 POP JUMP JUMPDEST PUSH32 0x4E487B7100000000000000000000000000000000000000000000000000000000 PUSH0 MSTORE PUSH1 0x11 PUSH1 0x4 MSTORE PUSH1 0x24 PUSH0 REVERT JUMPDEST PUSH0 PUSH2 0xAC3 DUP3 PUSH2 0x6CF JUMP JUMPDEST SWAP2 POP PUSH2 0xACE DUP4 PUSH2 0x6CF JUMP JUMPDEST SWAP3 POP DUP3 DUP3 ADD SWAP1 POP DUP1 DUP3 GT ISZERO PUSH2 0xAE6 JUMPI PUSH2 0xAE5 PUSH2 0xA8C JUMP JUMPDEST JUMPDEST SWAP3 SWAP2 POP POP JUMP JUMPDEST PUSH0 PUSH1 0x60 DUP3 ADD SWAP1 POP PUSH2 0xAFF PUSH0 DUP4 ADD DUP7 PUSH2 0x6D8 JUMP JUMPDEST PUSH2 0xB0C PUSH1 0x20 DUP4 ADD DUP6 PUSH2 0x6D8 JUMP JUMPDEST PUSH2 0xB19 PUSH1 0x40 DUP4 ADD DUP5 PUSH2 0x6D8 JUMP JUMPDEST SWAP5 SWAP4 POP POP POP POP JUMP JUMPDEST PUSH32 0x42696B65206973207374696C6C2072656E746564210000000000000000000000 PUSH0 DUP3 ADD MSTORE POP JUMP JUMPDEST PUSH0 PUSH2 0xB55 PUSH1 0x15 DUP4 PUSH2 0x763 JUMP JUMPDEST SWAP2 POP PUSH2 0xB60 DUP3 PUSH2 0xB21 JUMP JUMPDEST PUSH1 0x20 DUP3 ADD SWAP1 POP SWAP2 SWAP1 POP JUMP JUMPDEST PUSH0 PUSH1 0x20 DUP3 ADD SWAP1 POP DUP2 DUP2 SUB PUSH0 DUP4 ADD MSTORE PUSH2 0xB82 DUP2 PUSH2 0xB49 JUMP JUMPDEST SWAP1 POP SWAP2 SWAP1 POP JUMP INVALID LOG2 PUSH5 0x6970667358 0x22 SLT KECCAK256 JUMPDEST 0xB2 JUMPI 0xD 0xB4 0xBA MCOPY EXP JUMPI 0xDD PUSH31 0xB5A72A1360F95D732E5E1E768E465A5AA05B29D07764736F6C634300081A00 CALLER "
				},
				"gasEstimates": {
					"creation": {
						"codeDepositCost": "601400",
						"executionCost": "infinite",
						"totalCost": "infinite"
					},
					"external": {
						"bikes(uint256)": "infinite",
						"getBikeStatus(uint256)": "2971",
						"owner()": "2549",
						"refund(uint256)": "infinite",
						"rentBike(uint256)": "infinite",
						"rentalDuration()": "2425",
						"rentalPrice()": "326",
						"returnBike(uint256)": "infinite"
					}
				},
				"methodIdentifiers": {
					"bikes(uint256)": "5c526e19",
					"getBikeStatus(uint256)": "5ea52713",
					"owner()": "8da5cb5b",
					"refund(uint256)": "278ecde1",
					"rentBike(uint256)": "7ad8f224",
					"rentalDuration()": "6eefcb1f",
					"rentalPrice()": "1c43cd04",
					"returnBike(uint256)": "a56a91c5"
				}
			},
			"storageLayout": {
				"storage": [
					{
						"astId": 3,
						"contract": "contracts/BikeRental.sol:BikeRental",
						"label": "owner",
						"offset": 0,
						"slot": "0",
						"type": "t_address_payable"
					},
					{
						"astId": 9,
						"contract": "contracts/BikeRental.sol:BikeRental",
						"label": "rentalDuration",
						"offset": 0,
						"slot": "1",
						"type": "t_uint256"
					},
					{
						"astId": 27,
						"contract": "contracts/BikeRental.sol:BikeRental",
						"label": "bikes",
						"offset": 0,
						"slot": "2",
						"type": "t_mapping(t_uint256,t_struct(Bike)22_storage)"
					}
				],
				"types": {
					"t_address_payable": {
						"encoding": "inplace",
						"label": "address payable",
						"numberOfBytes": "20"
					},
					"t_enum(Statuses)12": {
						"encoding": "inplace",
						"label": "enum BikeRental.Statuses",
						"numberOfBytes": "1"
					},
					"t_mapping(t_uint256,t_struct(Bike)22_storage)": {
						"encoding": "mapping",
						"key": "t_uint256",
						"label": "mapping(uint256 => struct BikeRental.Bike)",
						"numberOfBytes": "32",
						"value": "t_struct(Bike)22_storage"
					},
					"t_string_storage": {
						"encoding": "bytes",
						"label": "string",
						"numberOfBytes": "32"
					},
					"t_struct(Bike)22_storage": {
						"encoding": "inplace",
						"label": "struct BikeRental.Bike",
						"members": [
							{
								"astId": 14,
								"contract": "contracts/BikeRental.sol:BikeRental",
								"label": "bikeId",
								"offset": 0,
								"slot": "0",
								"type": "t_uint256"
							},
							{
								"astId": 16,
								"contract": "contracts/BikeRental.sol:BikeRental",
								"label": "model",
								"offset": 0,
								"slot": "1",
								"type": "t_string_storage"
							},
							{
								"astId": 19,
								"contract": "contracts/BikeRental.sol:BikeRental",
								"label": "status",
								"offset": 0,
								"slot": "2",
								"type": "t_enum(Statuses)12"
							},
							{
								"astId": 21,
								"contract": "contracts/BikeRental.sol:BikeRental",
								"label": "rentedUntil",
								"offset": 0,
								"slot": "3",
								"type": "t_uint256"
							}
						],
						"numberOfBytes": "128"
					},
					"t_uint256": {
						"encoding": "inplace",
						"label": "uint256",
						"numberOfBytes": "32"
					}
				}
			},
			"userdoc": {
				"kind": "user",
				"methods": {},
				"version": 1
			}
		}
	}
}