{
	"data": {
		"bytecode": {
			"linkReferences": {},
			"object": "608060405262015180600155348015610016575f80fd5b50335f806101000a81548173ffffffffffffffffffffffffffffffffffffffff021916908373ffffffffffffffffffffffffffffffffffffffff1602179055506040518060800160405280600181526020016040518060400160405280600b81526020017f44656c75786520526f6f6d00000000000000000000000000000000000000000081525081526020015f60018111156100b6576100b5610205565b5b81526020015f81525060025f600181526020019081526020015f205f820151815f015560208201518160010190816100ee919061046c565b506040820151816002015f6101000a81548160ff0219169083600181111561011957610118610205565b5b0217905550606082015181600301559050506040518060800160405280600281526020016040518060400160405280600d81526020017f5374616e6461727420526f6f6d0000000000000000000000000000000000000081525081526020015f600181111561018b5761018a610205565b5b81526020015f81525060025f600281526020019081526020015f205f820151815f015560208201518160010190816101c3919061046c565b506040820151816002015f6101000a81548160ff021916908360018111156101ee576101ed610205565b5b02179055506060820151816003015590505061053b565b7f4e487b71000000000000000000000000000000000000000000000000000000005f52602160045260245ffd5b5f81519050919050565b7f4e487b71000000000000000000000000000000000000000000000000000000005f52604160045260245ffd5b7f4e487b71000000000000000000000000000000000000000000000000000000005f52602260045260245ffd5b5f60028204905060018216806102ad57607f821691505b6020821081036102c0576102bf610269565b5b50919050565b5f819050815f5260205f209050919050565b5f6020601f8301049050919050565b5f82821b905092915050565b5f600883026103227fffffffffffffffffffffffffffffffffffffffffffffffffffffffffffffffff826102e7565b61032c86836102e7565b95508019841693508086168417925050509392505050565b5f819050919050565b5f819050919050565b5f61037061036b61036684610344565b61034d565b610344565b9050919050565b5f819050919050565b61038983610356565b61039d61039582610377565b8484546102f3565b825550505050565b5f90565b6103b16103a5565b6103bc818484610380565b505050565b5b818110156103df576103d45f826103a9565b6001810190506103c2565b5050565b601f821115610424576103f5816102c6565b6103fe846102d8565b8101602085101561040d578190505b610421610419856102d8565b8301826103c1565b50505b505050565b5f82821c905092915050565b5f6104445f1984600802610429565b1980831691505092915050565b5f61045c8383610435565b9150826002028217905092915050565b61047582610232565b67ffffffffffffffff81111561048e5761048d61023c565b5b6104988254610296565b6104a38282856103e3565b5f60209050601f8311600181146104d4575f84156104c2578287015190505b6104cc8582610451565b865550610533565b601f1984166104e2866102c6565b5f5b82811015610509578489015182556001820191506020850194506020810190506104e4565b868310156105265784890151610522601f891682610435565b8355505b6001600288020188555050505b505050505050565b610b57806105485f395ff3fe60806040526004361061007a575f3560e01c80638da5cb5b1161004d5780638da5cb5b146101375780638fcee83f14610161578063af4c38ed1461019d578063e95a644f146101c75761007a565b80631bae0ac81461007e5780631bd2eeee146100bd578063278ecde1146100e55780636c0361621461010d575b5f80fd5b348015610089575f80fd5b506100a4600480360381019061009f9190610706565b6101e3565b6040516100b49493929190610823565b60405180910390f35b3480156100c8575f80fd5b506100e360048036038101906100de9190610706565b6102a1565b005b3480156100f0575f80fd5b5061010b60048036038101906101069190610706565b610386565b005b348015610118575f80fd5b506101216104df565b60405161012e919061086d565b60405180910390f35b348015610142575f80fd5b5061014b6104e4565b60405161015891906108c5565b60405180910390f35b34801561016c575f80fd5b5061018760048036038101906101829190610706565b610507565b60405161019491906108de565b60405180910390f35b3480156101a8575f80fd5b506101b1610530565b6040516101be919061086d565b60405180910390f35b6101e160048036038101906101dc9190610706565b610536565b005b6002602052805f5260405f205f91509050805f01549080600101805461020890610924565b80601f016020809104026020016040519081016040528092919081815260200182805461023490610924565b801561027f5780601f106102565761010080835404028352916020019161027f565b820191905f5260205f20905b81548152906001019060200180831161026257829003601f168201915b505050505090806002015f9054906101000a900460ff16908060030154905084565b60025f8281526020019081526020015f20600301544210156102f8576040517f08c379a00000000000000000000000000000000000000000000000000000000081526004016102ef9061099e565b60405180910390fd5b5f60025f8381526020019081526020015f206002015f6101000a81548160ff0219169083600181111561032e5761032d6107b0565b5b02179055505f60025f8381526020019081526020015f20600301819055507f2c276699fefbad45f18509233bc03bb9cfdf41b18f32756933188bdef35fef558160405161037b919061086d565b60405180910390a150565b600180811115610399576103986107b0565b5b60025f8381526020019081526020015f206002015f9054906101000a900460ff1660018111156103cc576103cb6107b0565b5b1461040c576040517f08c379a00000000000000000000000000000000000000000000000000000000081526004016104039061099e565b60405180910390fd5b5f60025f8381526020019081526020015f206002015f6101000a81548160ff02191690836001811115610442576104416107b0565b5b02179055505f60025f8381526020019081526020015f20600301819055503373ffffffffffffffffffffffffffffffffffffffff166108fc600290811502906040515f60405180830381858888f193505050501580156104a4573d5f803e3d5ffd5b507f2e1897b0591d764356194f7a795238a87c1987c7a877568e50d829d547c92b97816040516104d4919061086d565b60405180910390a150565b600281565b5f8054906101000a900473ffffffffffffffffffffffffffffffffffffffff1681565b5f60025f8381526020019081526020015f206002015f9054906101000a900460ff169050919050565b60015481565b805f600181111561054a576105496107b0565b5b60025f8381526020019081526020015f206002015f9054906101000a900460ff16600181111561057d5761057c6107b0565b5b146105bd576040517f08c379a00000000000000000000000000000000000000000000000000000000081526004016105b490610a06565b60405180910390fd5b600280341015610602576040517f08c379a00000000000000000000000000000000000000000000000000000000081526004016105f990610a6e565b60405180910390fd5b600160025f8581526020019081526020015f206002015f6101000a81548160ff02191690836001811115610639576106386107b0565b5b02179055506001544261064c9190610ab9565b60025f8581526020019081526020015f20600301819055503373ffffffffffffffffffffffffffffffffffffffff167ff70c8ccfb49937cb9079ffa719be60366bdb8f901313f28dd3da4e482977a7fa348560025f8881526020019081526020015f20600301546040516106c293929190610aec565b60405180910390a2505050565b5f80fd5b5f819050919050565b6106e5816106d3565b81146106ef575f80fd5b50565b5f81359050610700816106dc565b92915050565b5f6020828403121561071b5761071a6106cf565b5b5f610728848285016106f2565b91505092915050565b61073a816106d3565b82525050565b5f81519050919050565b5f82825260208201905092915050565b8281835e5f83830152505050565b5f601f19601f8301169050919050565b5f61078282610740565b61078c818561074a565b935061079c81856020860161075a565b6107a581610768565b840191505092915050565b7f4e487b71000000000000000000000000000000000000000000000000000000005f52602160045260245ffd5b600281106107ee576107ed6107b0565b5b50565b5f8190506107fe826107dd565b919050565b5f61080d826107f1565b9050919050565b61081d81610803565b82525050565b5f6080820190506108365f830187610731565b81810360208301526108488186610778565b90506108576040830185610814565b6108646060830184610731565b95945050505050565b5f6020820190506108805f830184610731565b92915050565b5f73ffffffffffffffffffffffffffffffffffffffff82169050919050565b5f6108af82610886565b9050919050565b6108bf816108a5565b82525050565b5f6020820190506108d85f8301846108b6565b92915050565b5f6020820190506108f15f830184610814565b92915050565b7f4e487b71000000000000000000000000000000000000000000000000000000005f52602260045260245ffd5b5f600282049050600182168061093b57607f821691505b60208210810361094e5761094d6108f7565b5b50919050565b7f4f6461207a6174656e206b6972616c696b20647572756d6461210000000000005f82015250565b5f610988601a8361074a565b915061099382610954565b602082019050919050565b5f6020820190508181035f8301526109b58161097c565b9050919050565b7f4f6461206d757361697420646567696c210000000000000000000000000000005f82015250565b5f6109f060118361074a565b91506109fb826109bc565b602082019050919050565b5f6020820190508181035f830152610a1d816109e4565b9050919050565b7f596574657273697a2042616b69796521000000000000000000000000000000005f82015250565b5f610a5860108361074a565b9150610a6382610a24565b602082019050919050565b5f6020820190508181035f830152610a8581610a4c565b9050919050565b7f4e487b71000000000000000000000000000000000000000000000000000000005f52601160045260245ffd5b5f610ac3826106d3565b9150610ace836106d3565b9250828201905080821115610ae657610ae5610a8c565b5b92915050565b5f606082019050610aff5f830186610731565b610b0c6020830185610731565b610b196040830184610731565b94935050505056fea2646970667358221220d2489b5827319f5f32e2248ab3f6792fbe929f7245d854fd7e15dbce1c7ecce264736f6c634300081a0033",
			"opcodes": "PUSH1 0x80 PUSH1 0x40 MSTORE PUSH3 0x15180 PUSH1 0x1 SSTORE CALLVALUE DUP1 ISZERO PUSH2 0x16 JUMPI PUSH0 DUP1 REVERT JUMPDEST POP CALLER PUSH0 DUP1 PUSH2 0x100 EXP DUP2 SLOAD DUP2 PUSH20 0xFFFFFFFFFFFFFFFFFFFFFFFFFFFFFFFFFFFFFFFF MUL NOT AND SWAP1 DUP4 PUSH20 0xFFFFFFFFFFFFFFFFFFFFFFFFFFFFFFFFFFFFFFFF AND MUL OR SWAP1 SSTORE POP PUSH1 0x40 MLOAD DUP1 PUSH1 0x80 ADD PUSH1 0x40 MSTORE DUP1 PUSH1 0x1 DUP2 MSTORE PUSH1 0x20 ADD PUSH1 0x40 MLOAD DUP1 PUSH1 0x40 ADD PUSH1 0x40 MSTORE DUP1 PUSH1 0xB DUP2 MSTORE PUSH1 0x20 ADD PUSH32 0x44656C75786520526F6F6D000000000000000000000000000000000000000000 DUP2 MSTORE POP DUP2 MSTORE PUSH1 0x20 ADD PUSH0 PUSH1 0x1 DUP2 GT ISZERO PUSH2 0xB6 JUMPI PUSH2 0xB5 PUSH2 0x205 JUMP JUMPDEST JUMPDEST DUP2 MSTORE PUSH1 0x20 ADD PUSH0 DUP2 MSTORE POP PUSH1 0x2 PUSH0 PUSH1 0x1 DUP2 MSTORE PUSH1 0x20 ADD SWAP1 DUP2 MSTORE PUSH1 0x20 ADD PUSH0 KECCAK256 PUSH0 DUP3 ADD MLOAD DUP2 PUSH0 ADD SSTORE PUSH1 0x20 DUP3 ADD MLOAD DUP2 PUSH1 0x1 ADD SWAP1 DUP2 PUSH2 0xEE SWAP2 SWAP1 PUSH2 0x46C JUMP JUMPDEST POP PUSH1 0x40 DUP3 ADD MLOAD DUP2 PUSH1 0x2 ADD PUSH0 PUSH2 0x100 EXP DUP2 SLOAD DUP2 PUSH1 0xFF MUL NOT AND SWAP1 DUP4 PUSH1 0x1 DUP2 GT ISZERO PUSH2 0x119 JUMPI PUSH2 0x118 PUSH2 0x205 JUMP JUMPDEST JUMPDEST MUL OR SWAP1 SSTORE POP PUSH1 0x60 DUP3 ADD MLOAD DUP2 PUSH1 0x3 ADD SSTORE SWAP1 POP POP PUSH1 0x40 MLOAD DUP1 PUSH1 0x80 ADD PUSH1 0x40 MSTORE DUP1 PUSH1 0x2 DUP2 MSTORE PUSH1 0x20 ADD PUSH1 0x40 MLOAD DUP1 PUSH1 0x40 ADD PUSH1 0x40 MSTORE DUP1 PUSH1 0xD DUP2 MSTORE PUSH1 0x20 ADD PUSH32 0x5374616E6461727420526F6F6D00000000000000000000000000000000000000 DUP2 MSTORE POP DUP2 MSTORE PUSH1 0x20 ADD PUSH0 PUSH1 0x1 DUP2 GT ISZERO PUSH2 0x18B JUMPI PUSH2 0x18A PUSH2 0x205 JUMP JUMPDEST JUMPDEST DUP2 MSTORE PUSH1 0x20 ADD PUSH0 DUP2 MSTORE POP PUSH1 0x2 PUSH0 PUSH1 0x2 DUP2 MSTORE PUSH1 0x20 ADD SWAP1 DUP2 MSTORE PUSH1 0x20 ADD PUSH0 KECCAK256 PUSH0 DUP3 ADD MLOAD DUP2 PUSH0 ADD SSTORE PUSH1 0x20 DUP3 ADD MLOAD DUP2 PUSH1 0x1 ADD SWAP1 DUP2 PUSH2 0x1C3 SWAP2 SWAP1 PUSH2 0x46C JUMP JUMPDEST POP PUSH1 0x40 DUP3 ADD MLOAD DUP2 PUSH1 0x2 ADD PUSH0 PUSH2 0x100 EXP DUP2 SLOAD DUP2 PUSH1 0xFF MUL NOT AND SWAP1 DUP4 PUSH1 0x1 DUP2 GT ISZERO PUSH2 0x1EE JUMPI PUSH2 0x1ED PUSH2 0x205 JUMP JUMPDEST JUMPDEST MUL OR SWAP1 SSTORE POP PUSH1 0x60 DUP3 ADD MLOAD DUP2 PUSH1 0x3 ADD SSTORE SWAP1 POP POP PUSH2 0x53B JUMP JUMPDEST PUSH32 0x4E487B7100000000000000000000000000000000000000000000000000000000 PUSH0 MSTORE PUSH1 0x21 PUSH1 0x4 MSTORE PUSH1 0x24 PUSH0 REVERT JUMPDEST PUSH0 DUP2 MLOAD SWAP1 POP SWAP2 SWAP1 POP JUMP JUMPDEST PUSH32 0x4E487B7100000000000000000000000000000000000000000000000000000000 PUSH0 MSTORE PUSH1 0x41 PUSH1 0x4 MSTORE PUSH1 0x24 PUSH0 REVERT JUMPDEST PUSH32 0x4E487B7100000000000000000000000000000000000000000000000000000000 PUSH0 MSTORE PUSH1 0x22 PUSH1 0x4 MSTORE PUSH1 0x24 PUSH0 REVERT JUMPDEST PUSH0 PUSH1 0x2 DUP3 DIV SWAP1 POP PUSH1 0x1 DUP3 AND DUP1 PUSH2 0x2AD JUMPI PUSH1 0x7F DUP3 AND SWAP2 POP JUMPDEST PUSH1 0x20 DUP3 LT DUP2 SUB PUSH2 0x2C0 JUMPI PUSH2 0x2BF PUSH2 0x269 JUMP JUMPDEST JUMPDEST POP SWAP2 SWAP1 POP JUMP JUMPDEST PUSH0 DUP2 SWAP1 POP DUP2 PUSH0 MSTORE PUSH1 0x20 PUSH0 KECCAK256 SWAP1 POP SWAP2 SWAP1 POP JUMP JUMPDEST PUSH0 PUSH1 0x20 PUSH1 0x1F DUP4 ADD DIV SWAP1 POP SWAP2 SWAP1 POP JUMP JUMPDEST PUSH0 DUP3 DUP3 SHL SWAP1 POP SWAP3 SWAP2 POP POP JUMP JUMPDEST PUSH0 PUSH1 0x8 DUP4 MUL PUSH2 0x322 PUSH32 0xFFFFFFFFFFFFFFFFFFFFFFFFFFFFFFFFFFFFFFFFFFFFFFFFFFFFFFFFFFFFFFFF DUP3 PUSH2 0x2E7 JUMP JUMPDEST PUSH2 0x32C DUP7 DUP4 PUSH2 0x2E7 JUMP JUMPDEST SWAP6 POP DUP1 NOT DUP5 AND SWAP4 POP DUP1 DUP7 AND DUP5 OR SWAP3 POP POP POP SWAP4 SWAP3 POP POP POP JUMP JUMPDEST PUSH0 DUP2 SWAP1 POP SWAP2 SWAP1 POP JUMP JUMPDEST PUSH0 DUP2 SWAP1 POP SWAP2 SWAP1 POP JUMP JUMPDEST PUSH0 PUSH2 0x370 PUSH2 0x36B PUSH2 0x366 DUP5 PUSH2 0x344 JUMP JUMPDEST PUSH2 0x34D JUMP JUMPDEST PUSH2 0x344 JUMP JUMPDEST SWAP1 POP SWAP2 SWAP1 POP JUMP JUMPDEST PUSH0 DUP2 SWAP1 POP SWAP2 SWAP1 POP JUMP JUMPDEST PUSH2 0x389 DUP4 PUSH2 0x356 JUMP JUMPDEST PUSH2 0x39D PUSH2 0x395 DUP3 PUSH2 0x377 JUMP JUMPDEST DUP5 DUP5 SLOAD PUSH2 0x2F3 JUMP JUMPDEST DUP3 SSTORE POP POP POP POP JUMP JUMPDEST PUSH0 SWAP1 JUMP JUMPDEST PUSH2 0x3B1 PUSH2 0x3A5 JUMP JUMPDEST PUSH2 0x3BC DUP2 DUP5 DUP5 PUSH2 0x380 JUMP JUMPDEST POP POP POP JUMP JUMPDEST JUMPDEST DUP2 DUP2 LT ISZERO PUSH2 0x3DF JUMPI PUSH2 0x3D4 PUSH0 DUP3 PUSH2 0x3A9 JUMP JUMPDEST PUSH1 0x1 DUP2 ADD SWAP1 POP PUSH2 0x3C2 JUMP JUMPDEST POP POP JUMP JUMPDEST PUSH1 0x1F DUP3 GT ISZERO PUSH2 0x424 JUMPI PUSH2 0x3F5 DUP2 PUSH2 0x2C6 JUMP JUMPDEST PUSH2 0x3FE DUP5 PUSH2 0x2D8 JUMP JUMPDEST DUP2 ADD PUSH1 0x20 DUP6 LT ISZERO PUSH2 0x40D JUMPI DUP2 SWAP1 POP JUMPDEST PUSH2 0x421 PUSH2 0x419 DUP6 PUSH2 0x2D8 JUMP JUMPDEST DUP4 ADD DUP3 PUSH2 0x3C1 JUMP JUMPDEST POP POP JUMPDEST POP POP POP JUMP JUMPDEST PUSH0 DUP3 DUP3 SHR SWAP1 POP SWAP3 SWAP2 POP POP JUMP JUMPDEST PUSH0 PUSH2 0x444 PUSH0 NOT DUP5 PUSH1 0x8 MUL PUSH2 0x429 JUMP JUMPDEST NOT DUP1 DUP4 AND SWAP2 POP POP SWAP3 SWAP2 POP POP JUMP JUMPDEST PUSH0 PUSH2 0x45C DUP4 DUP4 PUSH2 0x435 JUMP JUMPDEST SWAP2 POP DUP3 PUSH1 0x2 MUL DUP3 OR SWAP1 POP SWAP3 SWAP2 POP POP JUMP JUMPDEST PUSH2 0x475 DUP3 PUSH2 0x232 JUMP JUMPDEST PUSH8 0xFFFFFFFFFFFFFFFF DUP2 GT ISZERO PUSH2 0x48E JUMPI PUSH2 0x48D PUSH2 0x23C JUMP JUMPDEST JUMPDEST PUSH2 0x498 DUP3 SLOAD PUSH2 0x296 JUMP JUMPDEST PUSH2 0x4A3 DUP3 DUP3 DUP6 PUSH2 0x3E3 JUMP JUMPDEST PUSH0 PUSH1 0x20 SWAP1 POP PUSH1 0x1F DUP4 GT PUSH1 0x1 DUP2 EQ PUSH2 0x4D4 JUMPI PUSH0 DUP5 ISZERO PUSH2 0x4C2 JUMPI DUP3 DUP8 ADD MLOAD SWAP1 POP JUMPDEST PUSH2 0x4CC DUP6 DUP3 PUSH2 0x451 JUMP JUMPDEST DUP7 SSTORE POP PUSH2 0x533 JUMP JUMPDEST PUSH1 0x1F NOT DUP5 AND PUSH2 0x4E2 DUP7 PUSH2 0x2C6 JUMP JUMPDEST PUSH0 JUMPDEST DUP3 DUP2 LT ISZERO PUSH2 0x509 JUMPI DUP5 DUP10 ADD MLOAD DUP3 SSTORE PUSH1 0x1 DUP3 ADD SWAP2 POP PUSH1 0x20 DUP6 ADD SWAP5 POP PUSH1 0x20 DUP2 ADD SWAP1 POP PUSH2 0x4E4 JUMP JUMPDEST DUP7 DUP4 LT ISZERO PUSH2 0x526 JUMPI DUP5 DUP10 ADD MLOAD PUSH2 0x522 PUSH1 0x1F DUP10 AND DUP3 PUSH2 0x435 JUMP JUMPDEST DUP4 SSTORE POP JUMPDEST PUSH1 0x1 PUSH1 0x2 DUP9 MUL ADD DUP9 SSTORE POP POP POP JUMPDEST POP POP POP POP POP POP JUMP JUMPDEST PUSH2 0xB57 DUP1 PUSH2 0x548 PUSH0 CODECOPY PUSH0 RETURN INVALID PUSH1 0x80 PUSH1 0x40 MSTORE PUSH1 0x4 CALLDATASIZE LT PUSH2 0x7A JUMPI PUSH0 CALLDATALOAD PUSH1 0xE0 SHR DUP1 PUSH4 0x8DA5CB5B GT PUSH2 0x4D JUMPI DUP1 PUSH4 0x8DA5CB5B EQ PUSH2 0x137 JUMPI DUP1 PUSH4 0x8FCEE83F EQ PUSH2 0x161 JUMPI DUP1 PUSH4 0xAF4C38ED EQ PUSH2 0x19D JUMPI DUP1 PUSH4 0xE95A644F EQ PUSH2 0x1C7 JUMPI PUSH2 0x7A JUMP JUMPDEST DUP1 PUSH4 0x1BAE0AC8 EQ PUSH2 0x7E JUMPI DUP1 PUSH4 0x1BD2EEEE EQ PUSH2 0xBD JUMPI DUP1 PUSH4 0x278ECDE1 EQ PUSH2 0xE5 JUMPI DUP1 PUSH4 0x6C036162 EQ PUSH2 0x10D JUMPI JUMPDEST PUSH0 DUP1 REVERT JUMPDEST CALLVALUE DUP1 ISZERO PUSH2 0x89 JUMPI PUSH0 DUP1 REVERT JUMPDEST POP PUSH2 0xA4 PUSH1 0x4 DUP1 CALLDATASIZE SUB DUP2 ADD SWAP1 PUSH2 0x9F SWAP2 SWAP1 PUSH2 0x706 JUMP JUMPDEST PUSH2 0x1E3 JUMP JUMPDEST PUSH1 0x40 MLOAD PUSH2 0xB4 SWAP5 SWAP4 SWAP3 SWAP2 SWAP1 PUSH2 0x823 JUMP JUMPDEST PUSH1 0x40 MLOAD DUP1 SWAP2 SUB SWAP1 RETURN JUMPDEST CALLVALUE DUP1 ISZERO PUSH2 0xC8 JUMPI PUSH0 DUP1 REVERT JUMPDEST POP PUSH2 0xE3 PUSH1 0x4 DUP1 CALLDATASIZE SUB DUP2 ADD SWAP1 PUSH2 0xDE SWAP2 SWAP1 PUSH2 0x706 JUMP JUMPDEST PUSH2 0x2A1 JUMP JUMPDEST STOP JUMPDEST CALLVALUE DUP1 ISZERO PUSH2 0xF0 JUMPI PUSH0 DUP1 REVERT JUMPDEST POP PUSH2 0x10B PUSH1 0x4 DUP1 CALLDATASIZE SUB DUP2 ADD SWAP1 PUSH2 0x106 SWAP2 SWAP1 PUSH2 0x706 JUMP JUMPDEST PUSH2 0x386 JUMP JUMPDEST STOP JUMPDEST CALLVALUE DUP1 ISZERO PUSH2 0x118 JUMPI PUSH0 DUP1 REVERT JUMPDEST POP PUSH2 0x121 PUSH2 0x4DF JUMP JUMPDEST PUSH1 0x40 MLOAD PUSH2 0x12E SWAP2 SWAP1 PUSH2 0x86D JUMP JUMPDEST PUSH1 0x40 MLOAD DUP1 SWAP2 SUB SWAP1 RETURN JUMPDEST CALLVALUE DUP1 ISZERO PUSH2 0x142 JUMPI PUSH0 DUP1 REVERT JUMPDEST POP PUSH2 0x14B PUSH2 0x4E4 JUMP JUMPDEST PUSH1 0x40 MLOAD PUSH2 0x158 SWAP2 SWAP1 PUSH2 0x8C5 JUMP JUMPDEST PUSH1 0x40 MLOAD DUP1 SWAP2 SUB SWAP1 RETURN JUMPDEST CALLVALUE DUP1 ISZERO PUSH2 0x16C JUMPI PUSH0 DUP1 REVERT JUMPDEST POP PUSH2 0x187 PUSH1 0x4 DUP1 CALLDATASIZE SUB DUP2 ADD SWAP1 PUSH2 0x182 SWAP2 SWAP1 PUSH2 0x706 JUMP JUMPDEST PUSH2 0x507 JUMP JUMPDEST PUSH1 0x40 MLOAD PUSH2 0x194 SWAP2 SWAP1 PUSH2 0x8DE JUMP JUMPDEST PUSH1 0x40 MLOAD DUP1 SWAP2 SUB SWAP1 RETURN JUMPDEST CALLVALUE DUP1 ISZERO PUSH2 0x1A8 JUMPI PUSH0 DUP1 REVERT JUMPDEST POP PUSH2 0x1B1 PUSH2 0x530 JUMP JUMPDEST PUSH1 0x40 MLOAD PUSH2 0x1BE SWAP2 SWAP1 PUSH2 0x86D JUMP JUMPDEST PUSH1 0x40 MLOAD DUP1 SWAP2 SUB SWAP1 RETURN JUMPDEST PUSH2 0x1E1 PUSH1 0x4 DUP1 CALLDATASIZE SUB DUP2 ADD SWAP1 PUSH2 0x1DC SWAP2 SWAP1 PUSH2 0x706 JUMP JUMPDEST PUSH2 0x536 JUMP JUMPDEST STOP JUMPDEST PUSH1 0x2 PUSH1 0x20 MSTORE DUP1 PUSH0 MSTORE PUSH1 0x40 PUSH0 KECCAK256 PUSH0 SWAP2 POP SWAP1 POP DUP1 PUSH0 ADD SLOAD SWAP1 DUP1 PUSH1 0x1 ADD DUP1 SLOAD PUSH2 0x208 SWAP1 PUSH2 0x924 JUMP JUMPDEST DUP1 PUSH1 0x1F ADD PUSH1 0x20 DUP1 SWAP2 DIV MUL PUSH1 0x20 ADD PUSH1 0x40 MLOAD SWAP1 DUP2 ADD PUSH1 0x40 MSTORE DUP1 SWAP3 SWAP2 SWAP1 DUP2 DUP2 MSTORE PUSH1 0x20 ADD DUP3 DUP1 SLOAD PUSH2 0x234 SWAP1 PUSH2 0x924 JUMP JUMPDEST DUP1 ISZERO PUSH2 0x27F JUMPI DUP1 PUSH1 0x1F LT PUSH2 0x256 JUMPI PUSH2 0x100 DUP1 DUP4 SLOAD DIV MUL DUP4 MSTORE SWAP2 PUSH1 0x20 ADD SWAP2 PUSH2 0x27F JUMP JUMPDEST DUP3 ADD SWAP2 SWAP1 PUSH0 MSTORE PUSH1 0x20 PUSH0 KECCAK256 SWAP1 JUMPDEST DUP2 SLOAD DUP2 MSTORE SWAP1 PUSH1 0x1 ADD SWAP1 PUSH1 0x20 ADD DUP1 DUP4 GT PUSH2 0x262 JUMPI DUP3 SWAP1 SUB PUSH1 0x1F AND DUP3 ADD SWAP2 JUMPDEST POP POP POP POP POP SWAP1 DUP1 PUSH1 0x2 ADD PUSH0 SWAP1 SLOAD SWAP1 PUSH2 0x100 EXP SWAP1 DIV PUSH1 0xFF AND SWAP1 DUP1 PUSH1 0x3 ADD SLOAD SWAP1 POP DUP5 JUMP JUMPDEST PUSH1 0x2 PUSH0 DUP3 DUP2 MSTORE PUSH1 0x20 ADD SWAP1 DUP2 MSTORE PUSH1 0x20 ADD PUSH0 KECCAK256 PUSH1 0x3 ADD SLOAD TIMESTAMP LT ISZERO PUSH2 0x2F8 JUMPI PUSH1 0x40 MLOAD PUSH32 0x8C379A000000000000000000000000000000000000000000000000000000000 DUP2 MSTORE PUSH1 0x4 ADD PUSH2 0x2EF SWAP1 PUSH2 0x99E JUMP JUMPDEST PUSH1 0x40 MLOAD DUP1 SWAP2 SUB SWAP1 REVERT JUMPDEST PUSH0 PUSH1 0x2 PUSH0 DUP4 DUP2 MSTORE PUSH1 0x20 ADD SWAP1 DUP2 MSTORE PUSH1 0x20 ADD PUSH0 KECCAK256 PUSH1 0x2 ADD PUSH0 PUSH2 0x100 EXP DUP2 SLOAD DUP2 PUSH1 0xFF MUL NOT AND SWAP1 DUP4 PUSH1 0x1 DUP2 GT ISZERO PUSH2 0x32E JUMPI PUSH2 0x32D PUSH2 0x7B0 JUMP JUMPDEST JUMPDEST MUL OR SWAP1 SSTORE POP PUSH0 PUSH1 0x2 PUSH0 DUP4 DUP2 MSTORE PUSH1 0x20 ADD SWAP1 DUP2 MSTORE PUSH1 0x20 ADD PUSH0 KECCAK256 PUSH1 0x3 ADD DUP2 SWAP1 SSTORE POP PUSH32 0x2C276699FEFBAD45F18509233BC03BB9CFDF41B18F32756933188BDEF35FEF55 DUP2 PUSH1 0x40 MLOAD PUSH2 0x37B SWAP2 SWAP1 PUSH2 0x86D JUMP JUMPDEST PUSH1 0x40 MLOAD DUP1 SWAP2 SUB SWAP1 LOG1 POP JUMP JUMPDEST PUSH1 0x1 DUP1 DUP2 GT ISZERO PUSH2 0x399 JUMPI PUSH2 0x398 PUSH2 0x7B0 JUMP JUMPDEST JUMPDEST PUSH1 0x2 PUSH0 DUP4 DUP2 MSTORE PUSH1 0x20 ADD SWAP1 DUP2 MSTORE PUSH1 0x20 ADD PUSH0 KECCAK256 PUSH1 0x2 ADD PUSH0 SWAP1 SLOAD SWAP1 PUSH2 0x100 EXP SWAP1 DIV PUSH1 0xFF AND PUSH1 0x1 DUP2 GT ISZERO PUSH2 0x3CC JUMPI PUSH2 0x3CB PUSH2 0x7B0 JUMP JUMPDEST JUMPDEST EQ PUSH2 0x40C JUMPI PUSH1 0x40 MLOAD PUSH32 0x8C379A000000000000000000000000000000000000000000000000000000000 DUP2 MSTORE PUSH1 0x4 ADD PUSH2 0x403 SWAP1 PUSH2 0x99E JUMP JUMPDEST PUSH1 0x40 MLOAD DUP1 SWAP2 SUB SWAP1 REVERT JUMPDEST PUSH0 PUSH1 0x2 PUSH0 DUP4 DUP2 MSTORE PUSH1 0x20 ADD SWAP1 DUP2 MSTORE PUSH1 0x20 ADD PUSH0 KECCAK256 PUSH1 0x2 ADD PUSH0 PUSH2 0x100 EXP DUP2 SLOAD DUP2 PUSH1 0xFF MUL NOT AND SWAP1 DUP4 PUSH1 0x1 DUP2 GT ISZERO PUSH2 0x442 JUMPI PUSH2 0x441 PUSH2 0x7B0 JUMP JUMPDEST JUMPDEST MUL OR SWAP1 SSTORE POP PUSH0 PUSH1 0x2 PUSH0 DUP4 DUP2 MSTORE PUSH1 0x20 ADD SWAP1 DUP2 MSTORE PUSH1 0x20 ADD PUSH0 KECCAK256 PUSH1 0x3 ADD DUP2 SWAP1 SSTORE POP CALLER PUSH20 0xFFFFFFFFFFFFFFFFFFFFFFFFFFFFFFFFFFFFFFFF AND PUSH2 0x8FC PUSH1 0x2 SWAP1 DUP2 ISZERO MUL SWAP1 PUSH1 0x40 MLOAD PUSH0 PUSH1 0x40 MLOAD DUP1 DUP4 SUB DUP2 DUP6 DUP9 DUP9 CALL SWAP4 POP POP POP POP ISZERO DUP1 ISZERO PUSH2 0x4A4 JUMPI RETURNDATASIZE PUSH0 DUP1 RETURNDATACOPY RETURNDATASIZE PUSH0 REVERT JUMPDEST POP PUSH32 0x2E1897B0591D764356194F7A795238A87C1987C7A877568E50D829D547C92B97 DUP2 PUSH1 0x40 MLOAD PUSH2 0x4D4 SWAP2 SWAP1 PUSH2 0x86D JUMP JUMPDEST PUSH1 0x40 MLOAD DUP1 SWAP2 SUB SWAP1 LOG1 POP JUMP JUMPDEST PUSH1 0x2 DUP2 JUMP JUMPDEST PUSH0 DUP1 SLOAD SWAP1 PUSH2 0x100 EXP SWAP1 DIV PUSH20 0xFFFFFFFFFFFFFFFFFFFFFFFFFFFFFFFFFFFFFFFF AND DUP2 JUMP JUMPDEST PUSH0 PUSH1 0x2 PUSH0 DUP4 DUP2 MSTORE PUSH1 0x20 ADD SWAP1 DUP2 MSTORE PUSH1 0x20 ADD PUSH0 KECCAK256 PUSH1 0x2 ADD PUSH0 SWAP1 SLOAD SWAP1 PUSH2 0x100 EXP SWAP1 DIV PUSH1 0xFF AND SWAP1 POP SWAP2 SWAP1 POP JUMP JUMPDEST PUSH1 0x1 SLOAD DUP2 JUMP JUMPDEST DUP1 PUSH0 PUSH1 0x1 DUP2 GT ISZERO PUSH2 0x54A JUMPI PUSH2 0x549 PUSH2 0x7B0 JUMP JUMPDEST JUMPDEST PUSH1 0x2 PUSH0 DUP4 DUP2 MSTORE PUSH1 0x20 ADD SWAP1 DUP2 MSTORE PUSH1 0x20 ADD PUSH0 KECCAK256 PUSH1 0x2 ADD PUSH0 SWAP1 SLOAD SWAP1 PUSH2 0x100 EXP SWAP1 DIV PUSH1 0xFF AND PUSH1 0x1 DUP2 GT ISZERO PUSH2 0x57D JUMPI PUSH2 0x57C PUSH2 0x7B0 JUMP JUMPDEST JUMPDEST EQ PUSH2 0x5BD JUMPI PUSH1 0x40 MLOAD PUSH32 0x8C379A000000000000000000000000000000000000000000000000000000000 DUP2 MSTORE PUSH1 0x4 ADD PUSH2 0x5B4 SWAP1 PUSH2 0xA06 JUMP JUMPDEST PUSH1 0x40 MLOAD DUP1 SWAP2 SUB SWAP1 REVERT JUMPDEST PUSH1 0x2 DUP1 CALLVALUE LT ISZERO PUSH2 0x602 JUMPI PUSH1 0x40 MLOAD PUSH32 0x8C379A000000000000000000000000000000000000000000000000000000000 DUP2 MSTORE PUSH1 0x4 ADD PUSH2 0x5F9 SWAP1 PUSH2 0xA6E JUMP JUMPDEST PUSH1 0x40 MLOAD DUP1 SWAP2 SUB SWAP1 REVERT JUMPDEST PUSH1 0x1 PUSH1 0x2 PUSH0 DUP6 DUP2 MSTORE PUSH1 0x20 ADD SWAP1 DUP2 MSTORE PUSH1 0x20 ADD PUSH0 KECCAK256 PUSH1 0x2 ADD PUSH0 PUSH2 0x100 EXP DUP2 SLOAD DUP2 PUSH1 0xFF MUL NOT AND SWAP1 DUP4 PUSH1 0x1 DUP2 GT ISZERO PUSH2 0x639 JUMPI PUSH2 0x638 PUSH2 0x7B0 JUMP JUMPDEST JUMPDEST MUL OR SWAP1 SSTORE POP PUSH1 0x1 SLOAD TIMESTAMP PUSH2 0x64C SWAP2 SWAP1 PUSH2 0xAB9 JUMP JUMPDEST PUSH1 0x2 PUSH0 DUP6 DUP2 MSTORE PUSH1 0x20 ADD SWAP1 DUP2 MSTORE PUSH1 0x20 ADD PUSH0 KECCAK256 PUSH1 0x3 ADD DUP2 SWAP1 SSTORE POP CALLER PUSH20 0xFFFFFFFFFFFFFFFFFFFFFFFFFFFFFFFFFFFFFFFF AND PUSH32 0xF70C8CCFB49937CB9079FFA719BE60366BDB8F901313F28DD3DA4E482977A7FA CALLVALUE DUP6 PUSH1 0x2 PUSH0 DUP9 DUP2 MSTORE PUSH1 0x20 ADD SWAP1 DUP2 MSTORE PUSH1 0x20 ADD PUSH0 KECCAK256 PUSH1 0x3 ADD SLOAD PUSH1 0x40 MLOAD PUSH2 0x6C2 SWAP4 SWAP3 SWAP2 SWAP1 PUSH2 0xAEC JUMP JUMPDEST PUSH1 0x40 MLOAD DUP1 SWAP2 SUB SWAP1 LOG2 POP POP POP JUMP JUMPDEST PUSH0 DUP1 REVERT JUMPDEST PUSH0 DUP2 SWAP1 POP SWAP2 SWAP1 POP JUMP JUMPDEST PUSH2 0x6E5 DUP2 PUSH2 0x6D3 JUMP JUMPDEST DUP2 EQ PUSH2 0x6EF JUMPI PUSH0 DUP1 REVERT JUMPDEST POP JUMP JUMPDEST PUSH0 DUP2 CALLDATALOAD SWAP1 POP PUSH2 0x700 DUP2 PUSH2 0x6DC JUMP JUMPDEST SWAP3 SWAP2 POP POP JUMP JUMPDEST PUSH0 PUSH1 0x20 DUP3 DUP5 SUB SLT ISZERO PUSH2 0x71B JUMPI PUSH2 0x71A PUSH2 0x6CF JUMP JUMPDEST JUMPDEST PUSH0 PUSH2 0x728 DUP5 DUP3 DUP6 ADD PUSH2 0x6F2 JUMP JUMPDEST SWAP2 POP POP SWAP3 SWAP2 POP POP JUMP JUMPDEST PUSH2 0x73A DUP2 PUSH2 0x6D3 JUMP JUMPDEST DUP3 MSTORE POP POP JUMP JUMPDEST PUSH0 DUP2 MLOAD SWAP1 POP SWAP2 SWAP1 POP JUMP JUMPDEST PUSH0 DUP3 DUP3 MSTORE PUSH1 0x20 DUP3 ADD SWAP1 POP SWAP3 SWAP2 POP POP JUMP JUMPDEST DUP3 DUP2 DUP4 MCOPY PUSH0 DUP4 DUP4 ADD MSTORE POP POP POP JUMP JUMPDEST PUSH0 PUSH1 0x1F NOT PUSH1 0x1F DUP4 ADD AND SWAP1 POP SWAP2 SWAP1 POP JUMP JUMPDEST PUSH0 PUSH2 0x782 DUP3 PUSH2 0x740 JUMP JUMPDEST PUSH2 0x78C DUP2 DUP6 PUSH2 0x74A JUMP JUMPDEST SWAP4 POP PUSH2 0x79C DUP2 DUP6 PUSH1 0x20 DUP7 ADD PUSH2 0x75A JUMP JUMPDEST PUSH2 0x7A5 DUP2 PUSH2 0x768 JUMP JUMPDEST DUP5 ADD SWAP2 POP POP SWAP3 SWAP2 POP POP JUMP JUMPDEST PUSH32 0x4E487B7100000000000000000000000000000000000000000000000000000000 PUSH0 MSTORE PUSH1 0x21 PUSH1 0x4 MSTORE PUSH1 0x24 PUSH0 REVERT JUMPDEST PUSH1 0x2 DUP2 LT PUSH2 0x7EE JUMPI PUSH2 0x7ED PUSH2 0x7B0 JUMP JUMPDEST JUMPDEST POP JUMP JUMPDEST PUSH0 DUP2 SWAP1 POP PUSH2 0x7FE DUP3 PUSH2 0x7DD JUMP JUMPDEST SWAP2 SWAP1 POP JUMP JUMPDEST PUSH0 PUSH2 0x80D DUP3 PUSH2 0x7F1 JUMP JUMPDEST SWAP1 POP SWAP2 SWAP1 POP JUMP JUMPDEST PUSH2 0x81D DUP2 PUSH2 0x803 JUMP JUMPDEST DUP3 MSTORE POP POP JUMP JUMPDEST PUSH0 PUSH1 0x80 DUP3 ADD SWAP1 POP PUSH2 0x836 PUSH0 DUP4 ADD DUP8 PUSH2 0x731 JUMP JUMPDEST DUP2 DUP2 SUB PUSH1 0x20 DUP4 ADD MSTORE PUSH2 0x848 DUP2 DUP7 PUSH2 0x778 JUMP JUMPDEST SWAP1 POP PUSH2 0x857 PUSH1 0x40 DUP4 ADD DUP6 PUSH2 0x814 JUMP JUMPDEST PUSH2 0x864 PUSH1 0x60 DUP4 ADD DUP5 PUSH2 0x731 JUMP JUMPDEST SWAP6 SWAP5 POP POP POP POP POP JUMP JUMPDEST PUSH0 PUSH1 0x20 DUP3 ADD SWAP1 POP PUSH2 0x880 PUSH0 DUP4 ADD DUP5 PUSH2 0x731 JUMP JUMPDEST SWAP3 SWAP2 POP POP JUMP JUMPDEST PUSH0 PUSH20 0xFFFFFFFFFFFFFFFFFFFFFFFFFFFFFFFFFFFFFFFF DUP3 AND SWAP1 POP SWAP2 SWAP1 POP JUMP JUMPDEST PUSH0 PUSH2 0x8AF DUP3 PUSH2 0x886 JUMP JUMPDEST SWAP1 POP SWAP2 SWAP1 POP JUMP JUMPDEST PUSH2 0x8BF DUP2 PUSH2 0x8A5 JUMP JUMPDEST DUP3 MSTORE POP POP JUMP JUMPDEST PUSH0 PUSH1 0x20 DUP3 ADD SWAP1 POP PUSH2 0x8D8 PUSH0 DUP4 ADD DUP5 PUSH2 0x8B6 JUMP JUMPDEST SWAP3 SWAP2 POP POP JUMP JUMPDEST PUSH0 PUSH1 0x20 DUP3 ADD SWAP1 POP PUSH2 0x8F1 PUSH0 DUP4 ADD DUP5 PUSH2 0x814 JUMP JUMPDEST SWAP3 SWAP2 POP POP JUMP JUMPDEST PUSH32 0x4E487B7100000000000000000000000000000000000000000000000000000000 PUSH0 MSTORE PUSH1 0x22 PUSH1 0x4 MSTORE PUSH1 0x24 PUSH0 REVERT JUMPDEST PUSH0 PUSH1 0x2 DUP3 DIV SWAP1 POP PUSH1 0x1 DUP3 AND DUP1 PUSH2 0x93B JUMPI PUSH1 0x7F DUP3 AND SWAP2 POP JUMPDEST PUSH1 0x20 DUP3 LT DUP2 SUB PUSH2 0x94E JUMPI PUSH2 0x94D PUSH2 0x8F7 JUMP JUMPDEST JUMPDEST POP SWAP2 SWAP1 POP JUMP JUMPDEST PUSH32 0x4F6461207A6174656E206B6972616C696B20647572756D646121000000000000 PUSH0 DUP3 ADD MSTORE POP JUMP JUMPDEST PUSH0 PUSH2 0x988 PUSH1 0x1A DUP4 PUSH2 0x74A JUMP JUMPDEST SWAP2 POP PUSH2 0x993 DUP3 PUSH2 0x954 JUMP JUMPDEST PUSH1 0x20 DUP3 ADD SWAP1 POP SWAP2 SWAP1 POP JUMP JUMPDEST PUSH0 PUSH1 0x20 DUP3 ADD SWAP1 POP DUP2 DUP2 SUB PUSH0 DUP4 ADD MSTORE PUSH2 0x9B5 DUP2 PUSH2 0x97C JUMP JUMPDEST SWAP1 POP SWAP2 SWAP1 POP JUMP JUMPDEST PUSH32 0x4F6461206D757361697420646567696C21000000000000000000000000000000 PUSH0 DUP3 ADD MSTORE POP JUMP JUMPDEST PUSH0 PUSH2 0x9F0 PUSH1 0x11 DUP4 PUSH2 0x74A JUMP JUMPDEST SWAP2 POP PUSH2 0x9FB DUP3 PUSH2 0x9BC JUMP JUMPDEST PUSH1 0x20 DUP3 ADD SWAP1 POP SWAP2 SWAP1 POP JUMP JUMPDEST PUSH0 PUSH1 0x20 DUP3 ADD SWAP1 POP DUP2 DUP2 SUB PUSH0 DUP4 ADD MSTORE PUSH2 0xA1D DUP2 PUSH2 0x9E4 JUMP JUMPDEST SWAP1 POP SWAP2 SWAP1 POP JUMP JUMPDEST PUSH32 0x596574657273697A2042616B6979652100000000000000000000000000000000 PUSH0 DUP3 ADD MSTORE POP JUMP JUMPDEST PUSH0 PUSH2 0xA58 PUSH1 0x10 DUP4 PUSH2 0x74A JUMP JUMPDEST SWAP2 POP PUSH2 0xA63 DUP3 PUSH2 0xA24 JUMP JUMPDEST PUSH1 0x20 DUP3 ADD SWAP1 POP SWAP2 SWAP1 POP JUMP JUMPDEST PUSH0 PUSH1 0x20 DUP3 ADD SWAP1 POP DUP2 DUP2 SUB PUSH0 DUP4 ADD MSTORE PUSH2 0xA85 DUP2 PUSH2 0xA4C JUMP JUMPDEST SWAP1 POP SWAP2 SWAP1 POP JUMP JUMPDEST PUSH32 0x4E487B7100000000000000000000000000000000000000000000000000000000 PUSH0 MSTORE PUSH1 0x11 PUSH1 0x4 MSTORE PUSH1 0x24 PUSH0 REVERT JUMPDEST PUSH0 PUSH2 0xAC3 DUP3 PUSH2 0x6D3 JUMP JUMPDEST SWAP2 POP PUSH2 0xACE DUP4 PUSH2 0x6D3 JUMP JUMPDEST SWAP3 POP DUP3 DUP3 ADD SWAP1 POP DUP1 DUP3 GT ISZERO PUSH2 0xAE6 JUMPI PUSH2 0xAE5 PUSH2 0xA8C JUMP JUMPDEST JUMPDEST SWAP3 SWAP2 POP POP JUMP JUMPDEST PUSH0 PUSH1 0x60 DUP3 ADD SWAP1 POP PUSH2 0xAFF PUSH0 DUP4 ADD DUP7 PUSH2 0x731 JUMP JUMPDEST PUSH2 0xB0C PUSH1 0x20 DUP4 ADD DUP6 PUSH2 0x731 JUMP JUMPDEST PUSH2 0xB19 PUSH1 0x40 DUP4 ADD DUP5 PUSH2 0x731 JUMP JUMPDEST SWAP5 SWAP4 POP POP POP POP JUMP INVALID LOG2 PUSH5 0x6970667358 0x22 SLT KECCAK256 0xD2 BASEFEE SWAP12 PC 0x27 BALANCE SWAP16 PUSH0 ORIGIN 0xE2 0x24 DUP11 0xB3 0xF6 PUSH26 0x2FBE929F7245D854FD7E15DBCE1C7ECCE264736F6C634300081A STOP CALLER "
		},
		"gasEstimates": {
			"creation": {
				"codeDepositCost": "580600",
				"executionCost": "infinite",
				"totalCost": "infinite"
			},
			"external": {
				"bookingDuration()": "2469",
				"checkIn(uint256)": "infinite",
				"checkOut(uint256)": "infinite",
				"getRoomStatus(uint256)": "2926",
				"owner()": "2505",
				"refund(uint256)": "infinite",
				"roomPrice()": "392",
				"rooms(uint256)": "infinite"
			}
		},
		"methodIdentifiers": {
			"bookingDuration()": "af4c38ed",
			"checkIn(uint256)": "e95a644f",
			"checkOut(uint256)": "1bd2eeee",
			"getRoomStatus(uint256)": "8fcee83f",
			"owner()": "8da5cb5b",
			"refund(uint256)": "278ecde1",
			"roomPrice()": "6c036162",
			"rooms(uint256)": "1bae0ac8"
		}
	},
	"abi": [
		{
			"inputs": [],
			"stateMutability": "nonpayable",
			"type": "constructor"
		},
		{
			"anonymous": false,
			"inputs": [
				{
					"indexed": true,
					"internalType": "address",
					"name": "_client",
					"type": "address"
				},
				{
					"indexed": false,
					"internalType": "uint256",
					"name": "_value",
					"type": "uint256"
				},
				{
					"indexed": false,
					"internalType": "uint256",
					"name": "_roomNumber",
					"type": "uint256"
				},
				{
					"indexed": false,
					"internalType": "uint256",
					"name": "_rentedUntil",
					"type": "uint256"
				}
			],
			"name": "CheckIn",
			"type": "event"
		},
		{
			"anonymous": false,
			"inputs": [
				{
					"indexed": false,
					"internalType": "uint256",
					"name": "_roomNumber",
					"type": "uint256"
				}
			],
			"name": "CheckOut",
			"type": "event"
		},
		{
			"anonymous": false,
			"inputs": [
				{
					"indexed": false,
					"internalType": "uint256",
					"name": "_roomNumber",
					"type": "uint256"
				}
			],
			"name": "Refund",
			"type": "event"
		},
		{
			"inputs": [],
			"name": "bookingDuration",
			"outputs": [
				{
					"internalType": "uint256",
					"name": "",
					"type": "uint256"
				}
			],
			"stateMutability": "view",
			"type": "function"
		},
		{
			"inputs": [
				{
					"internalType": "uint256",
					"name": "_roomNumber",
					"type": "uint256"
				}
			],
			"name": "checkIn",
			"outputs": [],
			"stateMutability": "payable",
			"type": "function"
		},
		{
			"inputs": [
				{
					"internalType": "uint256",
					"name": "_roomNumber",
					"type": "uint256"
				}
			],
			"name": "checkOut",
			"outputs": [],
			"stateMutability": "nonpayable",
			"type": "function"
		},
		{
			"inputs": [
				{
					"internalType": "uint256",
					"name": "_roomNumber",
					"type": "uint256"
				}
			],
			"name": "getRoomStatus",
			"outputs": [
				{
					"internalType": "enum HotemRoom.Statuses",
					"name": "",
					"type": "uint8"
				}
			],
			"stateMutability": "view",
			"type": "function"
		},
		{
			"inputs": [],
			"name": "owner",
			"outputs": [
				{
					"internalType": "address payable",
					"name": "",
					"type": "address"
				}
			],
			"stateMutability": "view",
			"type": "function"
		},
		{
			"inputs": [
				{
					"internalType": "uint256",
					"name": "_roomNumber",
					"type": "uint256"
				}
			],
			"name": "refund",
			"outputs": [],
			"stateMutability": "nonpayable",
			"type": "function"
		},
		{
			"inputs": [],
			"name": "roomPrice",
			"outputs": [
				{
					"internalType": "uint256",
					"name": "",
					"type": "uint256"
				}
			],
			"stateMutability": "view",
			"type": "function"
		},
		{
			"inputs": [
				{
					"internalType": "uint256",
					"name": "",
					"type": "uint256"
				}
			],
			"name": "rooms",
			"outputs": [
				{
					"internalType": "uint256",
					"name": "roomNumber",
					"type": "uint256"
				},
				{
					"internalType": "string",
					"name": "title",
					"type": "string"
				},
				{
					"internalType": "enum HotemRoom.Statuses",
					"name": "status",
					"type": "uint8"
				},
				{
					"internalType": "uint256",
					"name": "rentedUntil",
					"type": "uint256"
				}
			],
			"stateMutability": "view",
			"type": "function"
		}
	]
}